{
  "_format": "hh-sol-artifact-1",
  "contractName": "ConnectionUserRegistry",
  "sourceName": "contracts/ConnectionUserRegistry.sol",
  "abi": [
    {
      "inputs": [
        {
          "internalType": "address",
          "name": "_ctToken",
          "type": "address"
        },
        {
          "internalType": "uint256",
          "name": "_regFee",
          "type": "uint256"
        },
        {
          "internalType": "uint256",
          "name": "_modFee",
          "type": "uint256"
        }
      ],
      "stateMutability": "nonpayable",
      "type": "constructor"
    },
    {
      "inputs": [
        {
          "internalType": "address",
          "name": "owner",
          "type": "address"
        }
      ],
      "name": "OwnableInvalidOwner",
      "type": "error"
    },
    {
      "inputs": [
        {
          "internalType": "address",
          "name": "account",
          "type": "address"
        }
      ],
      "name": "OwnableUnauthorizedAccount",
      "type": "error"
    },
    {
      "anonymous": false,
      "inputs": [
        {
          "indexed": false,
          "internalType": "uint256",
          "name": "start",
          "type": "uint256"
        },
        {
          "indexed": false,
          "internalType": "uint256",
          "name": "end",
          "type": "uint256"
        },
        {
          "indexed": false,
          "internalType": "uint256",
          "name": "totalCT",
          "type": "uint256"
        }
      ],
      "name": "AirdropCycleStarted",
      "type": "event"
    },
    {
      "anonymous": false,
      "inputs": [
        {
          "indexed": true,
          "internalType": "address",
          "name": "user",
          "type": "address"
        },
        {
          "indexed": false,
          "internalType": "uint256",
          "name": "ai3Paid",
          "type": "uint256"
        },
        {
          "indexed": false,
          "internalType": "uint256",
          "name": "ctAmount",
          "type": "uint256"
        }
      ],
      "name": "AirdropExecuted",
      "type": "event"
    },
    {
      "anonymous": false,
      "inputs": [
        {
          "indexed": true,
          "internalType": "address",
          "name": "oldAddr",
          "type": "address"
        },
        {
          "indexed": true,
          "internalType": "address",
          "name": "newAddr",
          "type": "address"
        }
      ],
      "name": "FeeReceiverChanged",
      "type": "event"
    },
    {
      "anonymous": false,
      "inputs": [
        {
          "indexed": true,
          "internalType": "address",
          "name": "receiver",
          "type": "address"
        },
        {
          "indexed": false,
          "internalType": "uint256",
          "name": "amount",
          "type": "uint256"
        }
      ],
      "name": "FeeWithdrawn",
      "type": "event"
    },
    {
      "anonymous": false,
      "inputs": [
        {
          "indexed": true,
          "internalType": "address",
          "name": "previousOwner",
          "type": "address"
        },
        {
          "indexed": true,
          "internalType": "address",
          "name": "newOwner",
          "type": "address"
        }
      ],
      "name": "OwnershipTransferred",
      "type": "event"
    },
    {
      "anonymous": false,
      "inputs": [
        {
          "indexed": true,
          "internalType": "address",
          "name": "user",
          "type": "address"
        },
        {
          "indexed": false,
          "internalType": "string",
          "name": "oldName",
          "type": "string"
        },
        {
          "indexed": false,
          "internalType": "string",
          "name": "newName",
          "type": "string"
        },
        {
          "indexed": false,
          "internalType": "uint256",
          "name": "fee",
          "type": "uint256"
        }
      ],
      "name": "UsernameModified",
      "type": "event"
    },
    {
      "anonymous": false,
      "inputs": [
        {
          "indexed": true,
          "internalType": "address",
          "name": "user",
          "type": "address"
        },
        {
          "indexed": false,
          "internalType": "string",
          "name": "username",
          "type": "string"
        },
        {
          "indexed": false,
          "internalType": "uint256",
          "name": "fee",
          "type": "uint256"
        }
      ],
      "name": "UsernameRegistered",
      "type": "event"
    },
    {
      "inputs": [],
      "name": "AIRDROP_CYCLE_DURATION",
      "outputs": [
        {
          "internalType": "uint256",
          "name": "",
          "type": "uint256"
        }
      ],
      "stateMutability": "view",
      "type": "function"
    },
    {
      "inputs": [],
      "name": "MAX_USERNAME_LENGTH",
      "outputs": [
        {
          "internalType": "uint256",
          "name": "",
          "type": "uint256"
        }
      ],
      "stateMutability": "view",
      "type": "function"
    },
    {
      "inputs": [],
      "name": "MIN_USERNAME_LENGTH",
      "outputs": [
        {
          "internalType": "uint256",
          "name": "",
          "type": "uint256"
        }
      ],
      "stateMutability": "view",
      "type": "function"
    },
    {
      "inputs": [
        {
          "internalType": "uint256",
          "name": "",
          "type": "uint256"
        }
      ],
      "name": "allUsers",
      "outputs": [
        {
          "internalType": "address",
          "name": "",
          "type": "address"
        }
      ],
      "stateMutability": "view",
      "type": "function"
    },
    {
      "inputs": [],
      "name": "ctToken",
      "outputs": [
        {
          "internalType": "contract ConnectionToken",
          "name": "",
          "type": "address"
        }
      ],
      "stateMutability": "view",
      "type": "function"
    },
    {
      "inputs": [],
      "name": "cycleEndTime",
      "outputs": [
        {
          "internalType": "uint256",
          "name": "",
          "type": "uint256"
        }
      ],
      "stateMutability": "view",
      "type": "function"
    },
    {
      "inputs": [],
      "name": "cycleStartTime",
      "outputs": [
        {
          "internalType": "uint256",
          "name": "",
          "type": "uint256"
        }
      ],
      "stateMutability": "view",
      "type": "function"
    },
    {
      "inputs": [],
      "name": "cycleTotalCT",
      "outputs": [
        {
          "internalType": "uint256",
          "name": "",
          "type": "uint256"
        }
      ],
      "stateMutability": "view",
      "type": "function"
    },
    {
      "inputs": [],
      "name": "distributedCT",
      "outputs": [
        {
          "internalType": "uint256",
          "name": "",
          "type": "uint256"
        }
      ],
      "stateMutability": "view",
      "type": "function"
    },
    {
      "inputs": [],
      "name": "feeReceiver",
      "outputs": [
        {
          "internalType": "address",
          "name": "",
          "type": "address"
        }
      ],
      "stateMutability": "view",
      "type": "function"
    },
    {
      "inputs": [
        {
          "internalType": "string",
          "name": "name",
          "type": "string"
        }
      ],
      "name": "getAddressByUsername",
      "outputs": [
        {
          "internalType": "address",
          "name": "",
          "type": "address"
        }
      ],
      "stateMutability": "view",
      "type": "function"
    },
    {
      "inputs": [
        {
          "internalType": "address",
          "name": "user",
          "type": "address"
        }
      ],
      "name": "getUsernameByAddress",
      "outputs": [
        {
          "internalType": "string",
          "name": "",
          "type": "string"
        }
      ],
      "stateMutability": "view",
      "type": "function"
    },
    {
      "inputs": [
        {
          "internalType": "uint256",
          "name": "start",
          "type": "uint256"
        },
        {
          "internalType": "uint256",
          "name": "limit",
          "type": "uint256"
        }
      ],
      "name": "getUsersPaginated",
      "outputs": [
        {
          "internalType": "address[]",
          "name": "addrs",
          "type": "address[]"
        },
        {
          "internalType": "string[]",
          "name": "names",
          "type": "string[]"
        },
        {
          "internalType": "uint256[]",
          "name": "times",
          "type": "uint256[]"
        }
      ],
      "stateMutability": "view",
      "type": "function"
    },
    {
      "inputs": [],
      "name": "lastAirdropTS",
      "outputs": [
        {
          "internalType": "uint256",
          "name": "",
          "type": "uint256"
        }
      ],
      "stateMutability": "view",
      "type": "function"
    },
    {
      "inputs": [],
      "name": "modificationFee",
      "outputs": [
        {
          "internalType": "uint256",
          "name": "",
          "type": "uint256"
        }
      ],
      "stateMutability": "view",
      "type": "function"
    },
    {
      "inputs": [
        {
          "internalType": "string",
          "name": "newUsername",
          "type": "string"
        }
      ],
      "name": "modifyUsername",
      "outputs": [],
      "stateMutability": "payable",
      "type": "function"
    },
    {
      "inputs": [],
      "name": "owner",
      "outputs": [
        {
          "internalType": "address",
          "name": "",
          "type": "address"
        }
      ],
      "stateMutability": "view",
      "type": "function"
    },
    {
      "inputs": [
        {
          "internalType": "string",
          "name": "username",
          "type": "string"
        }
      ],
      "name": "registerUsername",
      "outputs": [],
      "stateMutability": "payable",
      "type": "function"
    },
    {
      "inputs": [],
      "name": "registrationFee",
      "outputs": [
        {
          "internalType": "uint256",
          "name": "",
          "type": "uint256"
        }
      ],
      "stateMutability": "view",
      "type": "function"
    },
    {
      "inputs": [],
      "name": "renounceOwnership",
      "outputs": [],
      "stateMutability": "nonpayable",
      "type": "function"
    },
    {
      "inputs": [
        {
          "internalType": "address",
          "name": "newReceiver",
          "type": "address"
        }
      ],
      "name": "setFeeReceiver",
      "outputs": [],
      "stateMutability": "nonpayable",
      "type": "function"
    },
    {
      "inputs": [
        {
          "internalType": "uint256",
          "name": "fee",
          "type": "uint256"
        }
      ],
      "name": "setModificationFee",
      "outputs": [],
      "stateMutability": "nonpayable",
      "type": "function"
    },
    {
      "inputs": [
        {
          "internalType": "uint256",
          "name": "fee",
          "type": "uint256"
        }
      ],
      "name": "setRegistrationFee",
      "outputs": [],
      "stateMutability": "nonpayable",
      "type": "function"
    },
    {
      "inputs": [
        {
          "internalType": "uint256",
          "name": "totalCT",
          "type": "uint256"
        }
      ],
      "name": "startNewAirdropCycle",
      "outputs": [],
      "stateMutability": "nonpayable",
      "type": "function"
    },
    {
      "inputs": [],
      "name": "totalUsers",
      "outputs": [
        {
          "internalType": "uint256",
          "name": "",
          "type": "uint256"
        }
      ],
      "stateMutability": "view",
      "type": "function"
    },
    {
      "inputs": [
        {
          "internalType": "address",
          "name": "newOwner",
          "type": "address"
        }
      ],
      "name": "transferOwnership",
      "outputs": [],
      "stateMutability": "nonpayable",
      "type": "function"
    },
    {
      "inputs": [
        {
          "internalType": "bytes32",
          "name": "",
          "type": "bytes32"
        }
      ],
      "name": "usernameHashToAddress",
      "outputs": [
        {
          "internalType": "address",
          "name": "",
          "type": "address"
        }
      ],
      "stateMutability": "view",
      "type": "function"
    },
    {
      "inputs": [
        {
          "internalType": "bytes32",
          "name": "",
          "type": "bytes32"
        }
      ],
      "name": "usernameHashToString",
      "outputs": [
        {
          "internalType": "string",
          "name": "",
          "type": "string"
        }
      ],
      "stateMutability": "view",
      "type": "function"
    },
    {
      "inputs": [
        {
          "internalType": "address",
          "name": "",
          "type": "address"
        }
      ],
      "name": "users",
      "outputs": [
        {
          "internalType": "bytes32",
          "name": "usernameHash",
          "type": "bytes32"
        },
        {
          "internalType": "uint256",
          "name": "registrationTime",
          "type": "uint256"
        }
      ],
      "stateMutability": "view",
      "type": "function"
    },
    {
      "inputs": [],
      "name": "withdrawFee",
      "outputs": [],
      "stateMutability": "nonpayable",
      "type": "function"
    }
  ],
  "bytecode": "0x60a060405234801561001057600080fd5b506040516135893803806135898339818101604052810190610032919061029d565b33600073ffffffffffffffffffffffffffffffffffffffff168173ffffffffffffffffffffffffffffffffffffffff16036100a55760006040517f1e4fbdf700000000000000000000000000000000000000000000000000000000815260040161009c91906102ff565b60405180910390fd5b6100b48161014060201b60201c565b508273ffffffffffffffffffffffffffffffffffffffff1660808173ffffffffffffffffffffffffffffffffffffffff1681525050816005819055508060068190555033600760006101000a81548173ffffffffffffffffffffffffffffffffffffffff021916908373ffffffffffffffffffffffffffffffffffffffff16021790555050505061031a565b60008060009054906101000a900473ffffffffffffffffffffffffffffffffffffffff169050816000806101000a81548173ffffffffffffffffffffffffffffffffffffffff021916908373ffffffffffffffffffffffffffffffffffffffff1602179055508173ffffffffffffffffffffffffffffffffffffffff168173ffffffffffffffffffffffffffffffffffffffff167f8be0079c531659141344cd1fd0a4f28419497f9722a3daafe3b4186f6b6457e060405160405180910390a35050565b600080fd5b600073ffffffffffffffffffffffffffffffffffffffff82169050919050565b600061023482610209565b9050919050565b61024481610229565b811461024f57600080fd5b50565b6000815190506102618161023b565b92915050565b6000819050919050565b61027a81610267565b811461028557600080fd5b50565b60008151905061029781610271565b92915050565b6000806000606084860312156102b6576102b5610204565b5b60006102c486828701610252565b93505060206102d586828701610288565b92505060406102e686828701610288565b9150509250925092565b6102f981610229565b82525050565b600060208201905061031460008301846102f0565b92915050565b60805161323f61034a600039600081816109e1015281816113f101528181611c220152611cca015261323f6000f3fe6080604052600436106101cd5760003560e01c806381e6b76d116100f7578063be721acb11610095578063e941fa7811610064578063e941fa7814610667578063ed1a998d1461067e578063efdcd974146106bb578063f2fde38b146106e4576101cd565b8063be721acb146105bf578063bff1f9e1146105e8578063c320c72714610613578063e552e7181461063c576101cd565b806399a0cf65116100d157806399a0cf65146104fd578063a2bdedf414610519578063a87430ba14610556578063b3f0067414610594576101cd565b806381e6b76d1461047e578063844c4264146104a75780638da5cb5b146104d2576101cd565b8063335e536c1161016f5780636322961d1161013e5780636322961d146103c25780636cb84f70146103ff578063715018a61461042a578063775dbe5514610441576101cd565b8063335e536c1461031157806336a941341461033c5780634d6fad0914610358578063505163c814610383576101cd565b806314c44e09116101ab57806314c44e0914610253578063155b1d981461027e5780631cd896c1146102a9578063228114af146102d4576101cd565b80630bbec4ff146101d25780630e45b00b146101fd57806312c3f75414610228575b600080fd5b3480156101de57600080fd5b506101e761070d565b6040516101f49190611fa8565b60405180910390f35b34801561020957600080fd5b50610212610713565b60405161021f9190611fa8565b60405180910390f35b34801561023457600080fd5b5061023d61071b565b60405161024a9190611fa8565b60405180910390f35b34801561025f57600080fd5b50610268610721565b6040516102759190611fa8565b60405180910390f35b34801561028a57600080fd5b50610293610727565b6040516102a09190611fa8565b60405180910390f35b3480156102b557600080fd5b506102be61072c565b6040516102cb9190611fa8565b60405180910390f35b3480156102e057600080fd5b506102fb60048036038101906102f6919061200d565b610731565b604051610308919061207b565b60405180910390f35b34801561031d57600080fd5b50610326610764565b6040516103339190611fa8565b60405180910390f35b610356600480360381019061035191906121dc565b61076a565b005b34801561036457600080fd5b5061036d6109df565b60405161037a9190612284565b60405180910390f35b34801561038f57600080fd5b506103aa60048036038101906103a591906122cb565b610a03565b6040516103b9939291906125c8565b60405180910390f35b3480156103ce57600080fd5b506103e960048036038101906103e491906121dc565b610e6b565b6040516103f6919061207b565b60405180910390f35b34801561040b57600080fd5b50610414610eaf565b6040516104219190611fa8565b60405180910390f35b34801561043657600080fd5b5061043f610eb5565b005b34801561044d57600080fd5b506104686004803603810190610463919061200d565b610ec9565b604051610475919061265e565b60405180910390f35b34801561048a57600080fd5b506104a560048036038101906104a09190612680565b610f69565b005b3480156104b357600080fd5b506104bc610f7b565b6040516104c99190611fa8565b60405180910390f35b3480156104de57600080fd5b506104e7610f81565b6040516104f4919061207b565b60405180910390f35b610517600480360381019061051291906121dc565b610faa565b005b34801561052557600080fd5b50610540600480360381019061053b9190612680565b61131a565b60405161054d919061207b565b60405180910390f35b34801561056257600080fd5b5061057d600480360381019061057891906126d9565b611359565b60405161058b929190612715565b60405180910390f35b3480156105a057600080fd5b506105a961137d565b6040516105b6919061207b565b60405180910390f35b3480156105cb57600080fd5b506105e660048036038101906105e19190612680565b6113a3565b005b3480156105f457600080fd5b506105fd61153f565b60405161060a9190611fa8565b60405180910390f35b34801561061f57600080fd5b5061063a60048036038101906106359190612680565b61154c565b005b34801561064857600080fd5b5061065161155e565b60405161065e9190611fa8565b60405180910390f35b34801561067357600080fd5b5061067c611564565b005b34801561068a57600080fd5b506106a560048036038101906106a091906126d9565b6117bb565b6040516106b2919061265e565b60405180910390f35b3480156106c757600080fd5b506106e260048036038101906106dd91906126d9565b6118c8565b005b3480156106f057600080fd5b5061070b600480360381019061070691906126d9565b6119ff565b005b600b5481565b630784ce0081565b60065481565b60055481565b600381565b602081565b60026020528060005260406000206000915054906101000a900473ffffffffffffffffffffffffffffffffffffffff1681565b60085481565b6005543410156107af576040517f08c379a00000000000000000000000000000000000000000000000000000000081526004016107a69061278a565b60405180910390fd5b6000600160003373ffffffffffffffffffffffffffffffffffffffff1673ffffffffffffffffffffffffffffffffffffffff1681526020019081526020016000206001015414610834576040517f08c379a000000000000000000000000000000000000000000000000000000000815260040161082b906127f6565b60405180910390fd5b600061083f82611a85565b9050604051806040016040528082815260200142815250600160003373ffffffffffffffffffffffffffffffffffffffff1673ffffffffffffffffffffffffffffffffffffffff1681526020019081526020016000206000820151816000015560208201518160010155905050336002600083815260200190815260200160002060006101000a81548173ffffffffffffffffffffffffffffffffffffffff021916908373ffffffffffffffffffffffffffffffffffffffff1602179055508160036000838152602001908152602001600020908161091e9190612a18565b506004339080600181540180825580915050600190039060005260206000200160009091909190916101000a81548173ffffffffffffffffffffffffffffffffffffffff021916908373ffffffffffffffffffffffffffffffffffffffff16021790555061098b34611b96565b3373ffffffffffffffffffffffffffffffffffffffff167f0a09fa67e91ea818e53d712f63caf32f685bed0c54acdb1cebf8f63a36b454aa83346040516109d3929190612aea565b60405180910390a25050565b7f000000000000000000000000000000000000000000000000000000000000000081565b60608060606004805490508510610b0257600067ffffffffffffffff811115610a2f57610a2e6120b1565b5b604051908082528060200260200182016040528015610a5d5781602001602082028036833780820191505090505b50600067ffffffffffffffff811115610a7957610a786120b1565b5b604051908082528060200260200182016040528015610aac57816020015b6060815260200190600190039081610a975790505b50600067ffffffffffffffff811115610ac857610ac76120b1565b5b604051908082528060200260200182016040528015610af65781602001602082028036833780820191505090505b50925092509250610e64565b60008486610b109190612b49565b9050600480549050811115610b285760048054905090505b8581610b349190612b7d565b67ffffffffffffffff811115610b4d57610b4c6120b1565b5b604051908082528060200260200182016040528015610b7b5781602001602082028036833780820191505090505b5093508581610b8a9190612b7d565b67ffffffffffffffff811115610ba357610ba26120b1565b5b604051908082528060200260200182016040528015610bd657816020015b6060815260200190600190039081610bc15790505b5092508581610be59190612b7d565b67ffffffffffffffff811115610bfe57610bfd6120b1565b5b604051908082528060200260200182016040528015610c2c5781602001602082028036833780820191505090505b50915060008690505b81811015610e6157600060048281548110610c5357610c52612bb1565b5b9060005260206000200160009054906101000a900473ffffffffffffffffffffffffffffffffffffffff1690506000600160008373ffffffffffffffffffffffffffffffffffffffff1673ffffffffffffffffffffffffffffffffffffffff16815260200190815260200160002060000154905081878a85610cd59190612b7d565b81518110610ce657610ce5612bb1565b5b602002602001019073ffffffffffffffffffffffffffffffffffffffff16908173ffffffffffffffffffffffffffffffffffffffff1681525050600360008281526020019081526020016000208054610d3e90612845565b80601f0160208091040260200160405190810160405280929190818152602001828054610d6a90612845565b8015610db75780601f10610d8c57610100808354040283529160200191610db7565b820191906000526020600020905b815481529060010190602001808311610d9a57829003601f168201915b5050505050868a85610dc99190612b7d565b81518110610dda57610dd9612bb1565b5b6020026020010181905250600160008373ffffffffffffffffffffffffffffffffffffffff1673ffffffffffffffffffffffffffffffffffffffff16815260200190815260200160002060010154858a85610e359190612b7d565b81518110610e4657610e45612bb1565b5b60200260200101818152505050508080600101915050610c35565b50505b9250925092565b6000600260008380519060200120815260200190815260200160002060009054906101000a900473ffffffffffffffffffffffffffffffffffffffff169050919050565b600a5481565b610ebd611ddf565b610ec76000611e66565b565b60036020528060005260406000206000915090508054610ee890612845565b80601f0160208091040260200160405190810160405280929190818152602001828054610f1490612845565b8015610f615780601f10610f3657610100808354040283529160200191610f61565b820191906000526020600020905b815481529060010190602001808311610f4457829003601f168201915b505050505081565b610f71611ddf565b8060068190555050565b60095481565b60008060009054906101000a900473ffffffffffffffffffffffffffffffffffffffff16905090565b6000600160003373ffffffffffffffffffffffffffffffffffffffff1673ffffffffffffffffffffffffffffffffffffffff168152602001908152602001600020600101540361102f576040517f08c379a000000000000000000000000000000000000000000000000000000000815260040161102690612c2c565b60405180910390fd5b600654341015611074576040517f08c379a000000000000000000000000000000000000000000000000000000000815260040161106b9061278a565b60405180910390fd5b600060036000600160003373ffffffffffffffffffffffffffffffffffffffff1673ffffffffffffffffffffffffffffffffffffffff16815260200190815260200160002060000154815260200190815260200160002080546110d690612845565b80601f016020809104026020016040519081016040528092919081815260200182805461110290612845565b801561114f5780601f106111245761010080835404028352916020019161114f565b820191906000526020600020905b81548152906001019060200180831161113257829003601f168201915b505050505090506000600160003373ffffffffffffffffffffffffffffffffffffffff1673ffffffffffffffffffffffffffffffffffffffff16815260200190815260200160002060000154905060006111a884611a85565b90506002600083815260200190815260200160002060006101000a81549073ffffffffffffffffffffffffffffffffffffffff02191690556003600083815260200190815260200160002060006111ff9190611f32565b80600160003373ffffffffffffffffffffffffffffffffffffffff1673ffffffffffffffffffffffffffffffffffffffff16815260200190815260200160002060000181905550336002600083815260200190815260200160002060006101000a81548173ffffffffffffffffffffffffffffffffffffffff021916908373ffffffffffffffffffffffffffffffffffffffff160217905550836003600083815260200190815260200160002090816112b89190612a18565b506112c234611b96565b3373ffffffffffffffffffffffffffffffffffffffff167f8a2b28ab3f563bd1ac17a48f0f701c3b6a857357bec60220992c2608c5f2c70084863460405161130c93929190612c4c565b60405180910390a250505050565b6004818154811061132a57600080fd5b906000526020600020016000915054906101000a900473ffffffffffffffffffffffffffffffffffffffff1681565b60016020528060005260406000206000915090508060000154908060010154905082565b600760009054906101000a900473ffffffffffffffffffffffffffffffffffffffff1681565b6113ab611ddf565b600081116113ee576040517f08c379a00000000000000000000000000000000000000000000000000000000081526004016113e590612cdd565b60405180910390fd5b807f000000000000000000000000000000000000000000000000000000000000000073ffffffffffffffffffffffffffffffffffffffff166370a08231306040518263ffffffff1660e01b8152600401611448919061207b565b602060405180830381865afa158015611465573d6000803e3d6000fd5b505050506040513d601f19601f820116820180604052508101906114899190612d12565b10156114ca576040517f08c379a00000000000000000000000000000000000000000000000000000000081526004016114c190612d8b565b60405180910390fd5b42600881905550630784ce00426114e19190612b49565b60098190555080600a819055506000600b8190555042600c819055507f349af7112230411a2b6b2c1b8f05338d2a29f6b5256f3157af0551e048625ec86008546009548360405161153493929190612dab565b60405180910390a150565b6000600480549050905090565b611554611ddf565b8060058190555050565b600c5481565b61156c610f81565b73ffffffffffffffffffffffffffffffffffffffff163373ffffffffffffffffffffffffffffffffffffffff1614806115f25750600760009054906101000a900473ffffffffffffffffffffffffffffffffffffffff1673ffffffffffffffffffffffffffffffffffffffff163373ffffffffffffffffffffffffffffffffffffffff16145b611631576040517f08c379a000000000000000000000000000000000000000000000000000000000815260040161162890612e2e565b60405180910390fd5b600047905060008111611679576040517f08c379a000000000000000000000000000000000000000000000000000000000815260040161167090612e9a565b60405180910390fd5b600760009054906101000a900473ffffffffffffffffffffffffffffffffffffffff1673ffffffffffffffffffffffffffffffffffffffff167f78473f3f373f7673597f4f0fa5873cb4d375fea6d4339ad6b56dbd411513cb3f826040516116e19190611fa8565b60405180910390a26000600760009054906101000a900473ffffffffffffffffffffffffffffffffffffffff1673ffffffffffffffffffffffffffffffffffffffff168260405161173190612eeb565b60006040518083038185875af1925050503d806000811461176e576040519150601f19603f3d011682016040523d82523d6000602084013e611773565b606091505b50509050806117b7576040517f08c379a00000000000000000000000000000000000000000000000000000000081526004016117ae90612f4c565b60405180910390fd5b5050565b60606000600160008473ffffffffffffffffffffffffffffffffffffffff1673ffffffffffffffffffffffffffffffffffffffff1681526020019081526020016000206000015490506000801b81146118af5760036000828152602001908152602001600020805461182c90612845565b80601f016020809104026020016040519081016040528092919081815260200182805461185890612845565b80156118a55780601f1061187a576101008083540402835291602001916118a5565b820191906000526020600020905b81548152906001019060200180831161188857829003601f168201915b50505050506118c0565b604051806020016040528060008152505b915050919050565b6118d0611ddf565b600073ffffffffffffffffffffffffffffffffffffffff168173ffffffffffffffffffffffffffffffffffffffff160361193f576040517f08c379a000000000000000000000000000000000000000000000000000000000815260040161193690612fb8565b60405180910390fd5b8073ffffffffffffffffffffffffffffffffffffffff16600760009054906101000a900473ffffffffffffffffffffffffffffffffffffffff1673ffffffffffffffffffffffffffffffffffffffff167fa4b009cc442411b602eaf94bc0579b6abdb8fd90b4ef5b9426e270038906bd0360405160405180910390a380600760006101000a81548173ffffffffffffffffffffffffffffffffffffffff021916908373ffffffffffffffffffffffffffffffffffffffff16021790555050565b611a07611ddf565b600073ffffffffffffffffffffffffffffffffffffffff168173ffffffffffffffffffffffffffffffffffffffff1603611a795760006040517f1e4fbdf7000000000000000000000000000000000000000000000000000000008152600401611a70919061207b565b60405180910390fd5b611a8281611e66565b50565b6000808290506003815110158015611a9f57506020815111155b611ade576040517f08c379a0000000000000000000000000000000000000000000000000000000008152600401611ad590613024565b60405180910390fd5b600081805190602001209050600073ffffffffffffffffffffffffffffffffffffffff166002600083815260200190815260200160002060009054906101000a900473ffffffffffffffffffffffffffffffffffffffff1673ffffffffffffffffffffffffffffffffffffffff1614611b8c576040517f08c379a0000000000000000000000000000000000000000000000000000000008152600401611b8390613090565b60405180910390fd5b8092505050919050565b60095442101580611ba957506000600a54145b611ddc576000600c5442611bbd9190612b7d565b905060008103611bcd5750611ddc565b6000630784ce00600a5483611be291906130b0565b611bec9190613121565b90506000600b54600a54611c009190612b7d565b905080821115611c0e578091505b60008203611c1e57505050611ddc565b60007f000000000000000000000000000000000000000000000000000000000000000073ffffffffffffffffffffffffffffffffffffffff166370a08231306040518263ffffffff1660e01b8152600401611c79919061207b565b602060405180830381865afa158015611c96573d6000803e3d6000fd5b505050506040513d601f19601f82011682018060405250810190611cba9190612d12565b905080831115611cc8578092505b7f000000000000000000000000000000000000000000000000000000000000000073ffffffffffffffffffffffffffffffffffffffff1663a9059cbb33856040518363ffffffff1660e01b8152600401611d23929190613152565b6020604051808303816000875af1158015611d42573d6000803e3d6000fd5b505050506040513d601f19601f82011682018060405250810190611d6691906131b3565b5082600b6000828254611d799190612b49565b9250508190555042600c819055503373ffffffffffffffffffffffffffffffffffffffff167f171b2f9dc7a4c7eaa8ca718bcac62fbec15d147f033f38e42971b7ccabe9a4698685604051611dcf9291906131e0565b60405180910390a2505050505b50565b611de7611f2a565b73ffffffffffffffffffffffffffffffffffffffff16611e05610f81565b73ffffffffffffffffffffffffffffffffffffffff1614611e6457611e28611f2a565b6040517f118cdaa7000000000000000000000000000000000000000000000000000000008152600401611e5b919061207b565b60405180910390fd5b565b60008060009054906101000a900473ffffffffffffffffffffffffffffffffffffffff169050816000806101000a81548173ffffffffffffffffffffffffffffffffffffffff021916908373ffffffffffffffffffffffffffffffffffffffff1602179055508173ffffffffffffffffffffffffffffffffffffffff168173ffffffffffffffffffffffffffffffffffffffff167f8be0079c531659141344cd1fd0a4f28419497f9722a3daafe3b4186f6b6457e060405160405180910390a35050565b600033905090565b508054611f3e90612845565b6000825580601f10611f505750611f6f565b601f016020900490600052602060002090810190611f6e9190611f72565b5b50565b5b80821115611f8b576000816000905550600101611f73565b5090565b6000819050919050565b611fa281611f8f565b82525050565b6000602082019050611fbd6000830184611f99565b92915050565b6000604051905090565b600080fd5b600080fd5b6000819050919050565b611fea81611fd7565b8114611ff557600080fd5b50565b60008135905061200781611fe1565b92915050565b60006020828403121561202357612022611fcd565b5b600061203184828501611ff8565b91505092915050565b600073ffffffffffffffffffffffffffffffffffffffff82169050919050565b60006120658261203a565b9050919050565b6120758161205a565b82525050565b6000602082019050612090600083018461206c565b92915050565b600080fd5b600080fd5b6000601f19601f8301169050919050565b7f4e487b7100000000000000000000000000000000000000000000000000000000600052604160045260246000fd5b6120e9826120a0565b810181811067ffffffffffffffff82111715612108576121076120b1565b5b80604052505050565b600061211b611fc3565b905061212782826120e0565b919050565b600067ffffffffffffffff821115612147576121466120b1565b5b612150826120a0565b9050602081019050919050565b82818337600083830152505050565b600061217f61217a8461212c565b612111565b90508281526020810184848401111561219b5761219a61209b565b5b6121a684828561215d565b509392505050565b600082601f8301126121c3576121c2612096565b5b81356121d384826020860161216c565b91505092915050565b6000602082840312156121f2576121f1611fcd565b5b600082013567ffffffffffffffff8111156122105761220f611fd2565b5b61221c848285016121ae565b91505092915050565b6000819050919050565b600061224a6122456122408461203a565b612225565b61203a565b9050919050565b600061225c8261222f565b9050919050565b600061226e82612251565b9050919050565b61227e81612263565b82525050565b60006020820190506122996000830184612275565b92915050565b6122a881611f8f565b81146122b357600080fd5b50565b6000813590506122c58161229f565b92915050565b600080604083850312156122e2576122e1611fcd565b5b60006122f0858286016122b6565b9250506020612301858286016122b6565b9150509250929050565b600081519050919050565b600082825260208201905092915050565b6000819050602082019050919050565b6123408161205a565b82525050565b60006123528383612337565b60208301905092915050565b6000602082019050919050565b60006123768261230b565b6123808185612316565b935061238b83612327565b8060005b838110156123bc5781516123a38882612346565b97506123ae8361235e565b92505060018101905061238f565b5085935050505092915050565b600081519050919050565b600082825260208201905092915050565b6000819050602082019050919050565b600081519050919050565b600082825260208201905092915050565b60005b8381101561242f578082015181840152602081019050612414565b60008484015250505050565b6000612446826123f5565b6124508185612400565b9350612460818560208601612411565b612469816120a0565b840191505092915050565b6000612480838361243b565b905092915050565b6000602082019050919050565b60006124a0826123c9565b6124aa81856123d4565b9350836020820285016124bc856123e5565b8060005b858110156124f857848403895281516124d98582612474565b94506124e483612488565b925060208a019950506001810190506124c0565b50829750879550505050505092915050565b600081519050919050565b600082825260208201905092915050565b6000819050602082019050919050565b61253f81611f8f565b82525050565b60006125518383612536565b60208301905092915050565b6000602082019050919050565b60006125758261250a565b61257f8185612515565b935061258a83612526565b8060005b838110156125bb5781516125a28882612545565b97506125ad8361255d565b92505060018101905061258e565b5085935050505092915050565b600060608201905081810360008301526125e2818661236b565b905081810360208301526125f68185612495565b9050818103604083015261260a818461256a565b9050949350505050565b600082825260208201905092915050565b6000612630826123f5565b61263a8185612614565b935061264a818560208601612411565b612653816120a0565b840191505092915050565b600060208201905081810360008301526126788184612625565b905092915050565b60006020828403121561269657612695611fcd565b5b60006126a4848285016122b6565b91505092915050565b6126b68161205a565b81146126c157600080fd5b50565b6000813590506126d3816126ad565b92915050565b6000602082840312156126ef576126ee611fcd565b5b60006126fd848285016126c4565b91505092915050565b61270f81611fd7565b82525050565b600060408201905061272a6000830185612706565b6127376020830184611f99565b9392505050565b7f666565206c6f7700000000000000000000000000000000000000000000000000600082015250565b6000612774600783612614565b915061277f8261273e565b602082019050919050565b600060208201905081810360008301526127a381612767565b9050919050565b7f616c726561647920726567000000000000000000000000000000000000000000600082015250565b60006127e0600b83612614565b91506127eb826127aa565b602082019050919050565b6000602082019050818103600083015261280f816127d3565b9050919050565b7f4e487b7100000000000000000000000000000000000000000000000000000000600052602260045260246000fd5b6000600282049050600182168061285d57607f821691505b6020821081036128705761286f612816565b5b50919050565b60008190508160005260206000209050919050565b60006020601f8301049050919050565b600082821b905092915050565b6000600883026128d87fffffffffffffffffffffffffffffffffffffffffffffffffffffffffffffffff8261289b565b6128e2868361289b565b95508019841693508086168417925050509392505050565b600061291561291061290b84611f8f565b612225565b611f8f565b9050919050565b6000819050919050565b61292f836128fa565b61294361293b8261291c565b8484546128a8565b825550505050565b600090565b61295861294b565b612963818484612926565b505050565b5b818110156129875761297c600082612950565b600181019050612969565b5050565b601f8211156129cc5761299d81612876565b6129a68461288b565b810160208510156129b5578190505b6129c96129c18561288b565b830182612968565b50505b505050565b600082821c905092915050565b60006129ef600019846008026129d1565b1980831691505092915050565b6000612a0883836129de565b9150826002028217905092915050565b612a21826123f5565b67ffffffffffffffff811115612a3a57612a396120b1565b5b612a448254612845565b612a4f82828561298b565b600060209050601f831160018114612a825760008415612a70578287015190505b612a7a85826129fc565b865550612ae2565b601f198416612a9086612876565b60005b82811015612ab857848901518255600182019150602085019450602081019050612a93565b86831015612ad55784890151612ad1601f8916826129de565b8355505b6001600288020188555050505b505050505050565b60006040820190508181036000830152612b048185612625565b9050612b136020830184611f99565b9392505050565b7f4e487b7100000000000000000000000000000000000000000000000000000000600052601160045260246000fd5b6000612b5482611f8f565b9150612b5f83611f8f565b9250828201905080821115612b7757612b76612b1a565b5b92915050565b6000612b8882611f8f565b9150612b9383611f8f565b9250828203905081811115612bab57612baa612b1a565b5b92915050565b7f4e487b7100000000000000000000000000000000000000000000000000000000600052603260045260246000fd5b7f6e6f742072656700000000000000000000000000000000000000000000000000600082015250565b6000612c16600783612614565b9150612c2182612be0565b602082019050919050565b60006020820190508181036000830152612c4581612c09565b9050919050565b60006060820190508181036000830152612c668186612625565b90508181036020830152612c7a8185612625565b9050612c896040830184611f99565b949350505050565b7f7a65726f20616d6f756e74000000000000000000000000000000000000000000600082015250565b6000612cc7600b83612614565b9150612cd282612c91565b602082019050919050565b60006020820190508181036000830152612cf681612cba565b9050919050565b600081519050612d0c8161229f565b92915050565b600060208284031215612d2857612d27611fcd565b5b6000612d3684828501612cfd565b91505092915050565b7f696e73756666696369656e742043540000000000000000000000000000000000600082015250565b6000612d75600f83612614565b9150612d8082612d3f565b602082019050919050565b60006020820190508181036000830152612da481612d68565b9050919050565b6000606082019050612dc06000830186611f99565b612dcd6020830185611f99565b612dda6040830184611f99565b949350505050565b7f6e6f74206f776e6572206f722072656365697665720000000000000000000000600082015250565b6000612e18601583612614565b9150612e2382612de2565b602082019050919050565b60006020820190508181036000830152612e4781612e0b565b9050919050565b7f6e6f206665650000000000000000000000000000000000000000000000000000600082015250565b6000612e84600683612614565b9150612e8f82612e4e565b602082019050919050565b60006020820190508181036000830152612eb381612e77565b9050919050565b600081905092915050565b50565b6000612ed5600083612eba565b9150612ee082612ec5565b600082019050919050565b6000612ef682612ec8565b9150819050919050565b7f7472616e73666572206661696c65640000000000000000000000000000000000600082015250565b6000612f36600f83612614565b9150612f4182612f00565b602082019050919050565b60006020820190508181036000830152612f6581612f29565b9050919050565b7f7a65726f20616464720000000000000000000000000000000000000000000000600082015250565b6000612fa2600983612614565b9150612fad82612f6c565b602082019050919050565b60006020820190508181036000830152612fd181612f95565b9050919050565b7f6c656e0000000000000000000000000000000000000000000000000000000000600082015250565b600061300e600383612614565b915061301982612fd8565b602082019050919050565b6000602082019050818103600083015261303d81613001565b9050919050565b7f74616b656e000000000000000000000000000000000000000000000000000000600082015250565b600061307a600583612614565b915061308582613044565b602082019050919050565b600060208201905081810360008301526130a98161306d565b9050919050565b60006130bb82611f8f565b91506130c683611f8f565b92508282026130d481611f8f565b915082820484148315176130eb576130ea612b1a565b5b5092915050565b7f4e487b7100000000000000000000000000000000000000000000000000000000600052601260045260246000fd5b600061312c82611f8f565b915061313783611f8f565b925082613147576131466130f2565b5b828204905092915050565b6000604082019050613167600083018561206c565b6131746020830184611f99565b9392505050565b60008115159050919050565b6131908161317b565b811461319b57600080fd5b50565b6000815190506131ad81613187565b92915050565b6000602082840312156131c9576131c8611fcd565b5b60006131d78482850161319e565b91505092915050565b60006040820190506131f56000830185611f99565b6132026020830184611f99565b939250505056fea26469706673582212205d8bae8215fee385838c726518c1d814217467c369f63ac3388763fac7d4f59564736f6c634300081c0033",
  "linkReferences": {},
  "deployedLinkReferences": {}
}