{
  "_format": "hh-sol-artifact-1",
  "contractName": "ConnectionUserRegistry",
  "sourceName": "contracts/ConnectionUserRegistry.sol",
  "abi": [
    {
      "inputs": [
        {
          "internalType": "address",
          "name": "_ctToken",
          "type": "address"
        },
        {
          "internalType": "uint256",
          "name": "_regFee",
          "type": "uint256"
        },
        {
          "internalType": "uint256",
          "name": "_modFee",
          "type": "uint256"
        }
      ],
      "stateMutability": "nonpayable",
      "type": "constructor"
    },
    {
      "inputs": [
        {
          "internalType": "address",
          "name": "owner",
          "type": "address"
        }
      ],
      "name": "OwnableInvalidOwner",
      "type": "error"
    },
    {
      "inputs": [
        {
          "internalType": "address",
          "name": "account",
          "type": "address"
        }
      ],
      "name": "OwnableUnauthorizedAccount",
      "type": "error"
    },
    {
      "anonymous": false,
      "inputs": [
        {
          "indexed": false,
          "internalType": "uint256",
          "name": "start",
          "type": "uint256"
        },
        {
          "indexed": false,
          "internalType": "uint256",
          "name": "end",
          "type": "uint256"
        },
        {
          "indexed": false,
          "internalType": "uint256",
          "name": "totalCT",
          "type": "uint256"
        }
      ],
      "name": "AirdropCycleStarted",
      "type": "event"
    },
    {
      "anonymous": false,
      "inputs": [
        {
          "indexed": true,
          "internalType": "address",
          "name": "user",
          "type": "address"
        },
        {
          "indexed": false,
          "internalType": "uint256",
          "name": "ai3Paid",
          "type": "uint256"
        },
        {
          "indexed": false,
          "internalType": "uint256",
          "name": "ctAmount",
          "type": "uint256"
        }
      ],
      "name": "AirdropExecuted",
      "type": "event"
    },
    {
      "anonymous": false,
      "inputs": [
        {
          "indexed": true,
          "internalType": "address",
          "name": "oldAddr",
          "type": "address"
        },
        {
          "indexed": true,
          "internalType": "address",
          "name": "newAddr",
          "type": "address"
        }
      ],
      "name": "FeeReceiverChanged",
      "type": "event"
    },
    {
      "anonymous": false,
      "inputs": [
        {
          "indexed": true,
          "internalType": "address",
          "name": "receiver",
          "type": "address"
        },
        {
          "indexed": false,
          "internalType": "uint256",
          "name": "amount",
          "type": "uint256"
        }
      ],
      "name": "FeeWithdrawn",
      "type": "event"
    },
    {
      "anonymous": false,
      "inputs": [
        {
          "indexed": true,
          "internalType": "uint256",
          "name": "id",
          "type": "uint256"
        },
        {
          "indexed": true,
          "internalType": "address",
          "name": "user",
          "type": "address"
        },
        {
          "indexed": false,
          "internalType": "uint256",
          "name": "newLikes",
          "type": "uint256"
        }
      ],
      "name": "MessageLiked",
      "type": "event"
    },
    {
      "anonymous": false,
      "inputs": [
        {
          "indexed": true,
          "internalType": "uint256",
          "name": "id",
          "type": "uint256"
        },
        {
          "indexed": true,
          "internalType": "address",
          "name": "author",
          "type": "address"
        },
        {
          "indexed": false,
          "internalType": "string",
          "name": "content",
          "type": "string"
        }
      ],
      "name": "MessagePosted",
      "type": "event"
    },
    {
      "anonymous": false,
      "inputs": [
        {
          "indexed": true,
          "internalType": "address",
          "name": "previousOwner",
          "type": "address"
        },
        {
          "indexed": true,
          "internalType": "address",
          "name": "newOwner",
          "type": "address"
        }
      ],
      "name": "OwnershipTransferred",
      "type": "event"
    },
    {
      "anonymous": false,
      "inputs": [
        {
          "indexed": true,
          "internalType": "address",
          "name": "user",
          "type": "address"
        },
        {
          "indexed": false,
          "internalType": "string",
          "name": "oldName",
          "type": "string"
        },
        {
          "indexed": false,
          "internalType": "string",
          "name": "newName",
          "type": "string"
        },
        {
          "indexed": false,
          "internalType": "uint256",
          "name": "fee",
          "type": "uint256"
        }
      ],
      "name": "UsernameModified",
      "type": "event"
    },
    {
      "anonymous": false,
      "inputs": [
        {
          "indexed": true,
          "internalType": "address",
          "name": "user",
          "type": "address"
        },
        {
          "indexed": false,
          "internalType": "string",
          "name": "username",
          "type": "string"
        },
        {
          "indexed": false,
          "internalType": "uint256",
          "name": "fee",
          "type": "uint256"
        }
      ],
      "name": "UsernameRegistered",
      "type": "event"
    },
    {
      "inputs": [],
      "name": "AIRDROP_CYCLE_DURATION",
      "outputs": [
        {
          "internalType": "uint256",
          "name": "",
          "type": "uint256"
        }
      ],
      "stateMutability": "view",
      "type": "function"
    },
    {
      "inputs": [],
      "name": "MAX_USERNAME_LENGTH",
      "outputs": [
        {
          "internalType": "uint256",
          "name": "",
          "type": "uint256"
        }
      ],
      "stateMutability": "view",
      "type": "function"
    },
    {
      "inputs": [],
      "name": "MIN_USERNAME_LENGTH",
      "outputs": [
        {
          "internalType": "uint256",
          "name": "",
          "type": "uint256"
        }
      ],
      "stateMutability": "view",
      "type": "function"
    },
    {
      "inputs": [
        {
          "internalType": "uint256",
          "name": "",
          "type": "uint256"
        }
      ],
      "name": "allMessages",
      "outputs": [
        {
          "internalType": "uint256",
          "name": "id",
          "type": "uint256"
        },
        {
          "internalType": "address",
          "name": "author",
          "type": "address"
        },
        {
          "internalType": "string",
          "name": "content",
          "type": "string"
        },
        {
          "internalType": "uint256",
          "name": "timestamp",
          "type": "uint256"
        },
        {
          "internalType": "uint256",
          "name": "likes",
          "type": "uint256"
        }
      ],
      "stateMutability": "view",
      "type": "function"
    },
    {
      "inputs": [
        {
          "internalType": "uint256",
          "name": "",
          "type": "uint256"
        }
      ],
      "name": "allUsers",
      "outputs": [
        {
          "internalType": "address",
          "name": "",
          "type": "address"
        }
      ],
      "stateMutability": "view",
      "type": "function"
    },
    {
      "inputs": [],
      "name": "ctToken",
      "outputs": [
        {
          "internalType": "contract ConnectionToken",
          "name": "",
          "type": "address"
        }
      ],
      "stateMutability": "view",
      "type": "function"
    },
    {
      "inputs": [],
      "name": "cycleEndTime",
      "outputs": [
        {
          "internalType": "uint256",
          "name": "",
          "type": "uint256"
        }
      ],
      "stateMutability": "view",
      "type": "function"
    },
    {
      "inputs": [],
      "name": "cycleStartTime",
      "outputs": [
        {
          "internalType": "uint256",
          "name": "",
          "type": "uint256"
        }
      ],
      "stateMutability": "view",
      "type": "function"
    },
    {
      "inputs": [],
      "name": "cycleTotalCT",
      "outputs": [
        {
          "internalType": "uint256",
          "name": "",
          "type": "uint256"
        }
      ],
      "stateMutability": "view",
      "type": "function"
    },
    {
      "inputs": [],
      "name": "distributedCT",
      "outputs": [
        {
          "internalType": "uint256",
          "name": "",
          "type": "uint256"
        }
      ],
      "stateMutability": "view",
      "type": "function"
    },
    {
      "inputs": [],
      "name": "feeReceiver",
      "outputs": [
        {
          "internalType": "address",
          "name": "",
          "type": "address"
        }
      ],
      "stateMutability": "view",
      "type": "function"
    },
    {
      "inputs": [
        {
          "internalType": "string",
          "name": "name",
          "type": "string"
        }
      ],
      "name": "getAddressByUsername",
      "outputs": [
        {
          "internalType": "address",
          "name": "",
          "type": "address"
        }
      ],
      "stateMutability": "view",
      "type": "function"
    },
    {
      "inputs": [],
      "name": "getAllMessageIds",
      "outputs": [
        {
          "internalType": "uint256",
          "name": "",
          "type": "uint256"
        }
      ],
      "stateMutability": "view",
      "type": "function"
    },
    {
      "inputs": [
        {
          "internalType": "uint256",
          "name": "count",
          "type": "uint256"
        }
      ],
      "name": "getLatestMessages",
      "outputs": [
        {
          "components": [
            {
              "internalType": "uint256",
              "name": "id",
              "type": "uint256"
            },
            {
              "internalType": "address",
              "name": "author",
              "type": "address"
            },
            {
              "internalType": "string",
              "name": "content",
              "type": "string"
            },
            {
              "internalType": "uint256",
              "name": "timestamp",
              "type": "uint256"
            },
            {
              "internalType": "uint256",
              "name": "likes",
              "type": "uint256"
            }
          ],
          "internalType": "struct ConnectionUserRegistry.Message[]",
          "name": "",
          "type": "tuple[]"
        }
      ],
      "stateMutability": "view",
      "type": "function"
    },
    {
      "inputs": [
        {
          "internalType": "uint256",
          "name": "messageId",
          "type": "uint256"
        }
      ],
      "name": "getMessage",
      "outputs": [
        {
          "components": [
            {
              "internalType": "uint256",
              "name": "id",
              "type": "uint256"
            },
            {
              "internalType": "address",
              "name": "author",
              "type": "address"
            },
            {
              "internalType": "string",
              "name": "content",
              "type": "string"
            },
            {
              "internalType": "uint256",
              "name": "timestamp",
              "type": "uint256"
            },
            {
              "internalType": "uint256",
              "name": "likes",
              "type": "uint256"
            }
          ],
          "internalType": "struct ConnectionUserRegistry.Message",
          "name": "",
          "type": "tuple"
        }
      ],
      "stateMutability": "view",
      "type": "function"
    },
    {
      "inputs": [
        {
          "internalType": "address",
          "name": "user",
          "type": "address"
        }
      ],
      "name": "getUserMessageIds",
      "outputs": [
        {
          "internalType": "uint256[]",
          "name": "",
          "type": "uint256[]"
        }
      ],
      "stateMutability": "view",
      "type": "function"
    },
    {
      "inputs": [
        {
          "internalType": "address",
          "name": "user",
          "type": "address"
        }
      ],
      "name": "getUsernameByAddress",
      "outputs": [
        {
          "internalType": "string",
          "name": "",
          "type": "string"
        }
      ],
      "stateMutability": "view",
      "type": "function"
    },
    {
      "inputs": [
        {
          "internalType": "uint256",
          "name": "start",
          "type": "uint256"
        },
        {
          "internalType": "uint256",
          "name": "limit",
          "type": "uint256"
        }
      ],
      "name": "getUsersPaginated",
      "outputs": [
        {
          "internalType": "address[]",
          "name": "addrs",
          "type": "address[]"
        },
        {
          "internalType": "string[]",
          "name": "names",
          "type": "string[]"
        },
        {
          "internalType": "uint256[]",
          "name": "times",
          "type": "uint256[]"
        }
      ],
      "stateMutability": "view",
      "type": "function"
    },
    {
      "inputs": [
        {
          "internalType": "uint256",
          "name": "messageId",
          "type": "uint256"
        },
        {
          "internalType": "address",
          "name": "user",
          "type": "address"
        }
      ],
      "name": "hasLiked",
      "outputs": [
        {
          "internalType": "bool",
          "name": "",
          "type": "bool"
        }
      ],
      "stateMutability": "view",
      "type": "function"
    },
    {
      "inputs": [],
      "name": "lastAirdropTS",
      "outputs": [
        {
          "internalType": "uint256",
          "name": "",
          "type": "uint256"
        }
      ],
      "stateMutability": "view",
      "type": "function"
    },
    {
      "inputs": [
        {
          "internalType": "uint256",
          "name": "messageId",
          "type": "uint256"
        }
      ],
      "name": "likeMessage",
      "outputs": [],
      "stateMutability": "nonpayable",
      "type": "function"
    },
    {
      "inputs": [],
      "name": "messageCount",
      "outputs": [
        {
          "internalType": "uint256",
          "name": "",
          "type": "uint256"
        }
      ],
      "stateMutability": "view",
      "type": "function"
    },
    {
      "inputs": [],
      "name": "modificationFee",
      "outputs": [
        {
          "internalType": "uint256",
          "name": "",
          "type": "uint256"
        }
      ],
      "stateMutability": "view",
      "type": "function"
    },
    {
      "inputs": [
        {
          "internalType": "string",
          "name": "newUsername",
          "type": "string"
        }
      ],
      "name": "modifyUsername",
      "outputs": [],
      "stateMutability": "payable",
      "type": "function"
    },
    {
      "inputs": [],
      "name": "owner",
      "outputs": [
        {
          "internalType": "address",
          "name": "",
          "type": "address"
        }
      ],
      "stateMutability": "view",
      "type": "function"
    },
    {
      "inputs": [
        {
          "internalType": "string",
          "name": "content",
          "type": "string"
        }
      ],
      "name": "postMessage",
      "outputs": [],
      "stateMutability": "nonpayable",
      "type": "function"
    },
    {
      "inputs": [
        {
          "internalType": "string",
          "name": "username",
          "type": "string"
        }
      ],
      "name": "registerUsername",
      "outputs": [],
      "stateMutability": "payable",
      "type": "function"
    },
    {
      "inputs": [],
      "name": "registrationFee",
      "outputs": [
        {
          "internalType": "uint256",
          "name": "",
          "type": "uint256"
        }
      ],
      "stateMutability": "view",
      "type": "function"
    },
    {
      "inputs": [],
      "name": "renounceOwnership",
      "outputs": [],
      "stateMutability": "nonpayable",
      "type": "function"
    },
    {
      "inputs": [
        {
          "internalType": "address",
          "name": "newReceiver",
          "type": "address"
        }
      ],
      "name": "setFeeReceiver",
      "outputs": [],
      "stateMutability": "nonpayable",
      "type": "function"
    },
    {
      "inputs": [
        {
          "internalType": "uint256",
          "name": "fee",
          "type": "uint256"
        }
      ],
      "name": "setModificationFee",
      "outputs": [],
      "stateMutability": "nonpayable",
      "type": "function"
    },
    {
      "inputs": [
        {
          "internalType": "uint256",
          "name": "fee",
          "type": "uint256"
        }
      ],
      "name": "setRegistrationFee",
      "outputs": [],
      "stateMutability": "nonpayable",
      "type": "function"
    },
    {
      "inputs": [
        {
          "internalType": "uint256",
          "name": "totalCT",
          "type": "uint256"
        }
      ],
      "name": "startNewAirdropCycle",
      "outputs": [],
      "stateMutability": "nonpayable",
      "type": "function"
    },
    {
      "inputs": [],
      "name": "totalUsers",
      "outputs": [
        {
          "internalType": "uint256",
          "name": "",
          "type": "uint256"
        }
      ],
      "stateMutability": "view",
      "type": "function"
    },
    {
      "inputs": [
        {
          "internalType": "address",
          "name": "newOwner",
          "type": "address"
        }
      ],
      "name": "transferOwnership",
      "outputs": [],
      "stateMutability": "nonpayable",
      "type": "function"
    },
    {
      "inputs": [
        {
          "internalType": "uint256",
          "name": "",
          "type": "uint256"
        },
        {
          "internalType": "address",
          "name": "",
          "type": "address"
        }
      ],
      "name": "userLikes",
      "outputs": [
        {
          "internalType": "bool",
          "name": "",
          "type": "bool"
        }
      ],
      "stateMutability": "view",
      "type": "function"
    },
    {
      "inputs": [
        {
          "internalType": "address",
          "name": "",
          "type": "address"
        },
        {
          "internalType": "uint256",
          "name": "",
          "type": "uint256"
        }
      ],
      "name": "userMessages",
      "outputs": [
        {
          "internalType": "uint256",
          "name": "",
          "type": "uint256"
        }
      ],
      "stateMutability": "view",
      "type": "function"
    },
    {
      "inputs": [
        {
          "internalType": "bytes32",
          "name": "",
          "type": "bytes32"
        }
      ],
      "name": "usernameHashToAddress",
      "outputs": [
        {
          "internalType": "address",
          "name": "",
          "type": "address"
        }
      ],
      "stateMutability": "view",
      "type": "function"
    },
    {
      "inputs": [
        {
          "internalType": "bytes32",
          "name": "",
          "type": "bytes32"
        }
      ],
      "name": "usernameHashToString",
      "outputs": [
        {
          "internalType": "string",
          "name": "",
          "type": "string"
        }
      ],
      "stateMutability": "view",
      "type": "function"
    },
    {
      "inputs": [
        {
          "internalType": "address",
          "name": "",
          "type": "address"
        }
      ],
      "name": "users",
      "outputs": [
        {
          "internalType": "bytes32",
          "name": "usernameHash",
          "type": "bytes32"
        },
        {
          "internalType": "uint256",
          "name": "registrationTime",
          "type": "uint256"
        }
      ],
      "stateMutability": "view",
      "type": "function"
    },
    {
      "inputs": [],
      "name": "withdrawFee",
      "outputs": [],
      "stateMutability": "nonpayable",
      "type": "function"
    }
  ],
  "bytecode": "0x60a060405234801561001057600080fd5b506040516149cd3803806149cd8339818101604052810190610032919061029d565b33600073ffffffffffffffffffffffffffffffffffffffff168173ffffffffffffffffffffffffffffffffffffffff16036100a55760006040517f1e4fbdf700000000000000000000000000000000000000000000000000000000815260040161009c91906102ff565b60405180910390fd5b6100b48161014060201b60201c565b508273ffffffffffffffffffffffffffffffffffffffff1660808173ffffffffffffffffffffffffffffffffffffffff1681525050816005819055508060068190555033600760006101000a81548173ffffffffffffffffffffffffffffffffffffffff021916908373ffffffffffffffffffffffffffffffffffffffff16021790555050505061031a565b60008060009054906101000a900473ffffffffffffffffffffffffffffffffffffffff169050816000806101000a81548173ffffffffffffffffffffffffffffffffffffffff021916908373ffffffffffffffffffffffffffffffffffffffff1602179055508173ffffffffffffffffffffffffffffffffffffffff168173ffffffffffffffffffffffffffffffffffffffff167f8be0079c531659141344cd1fd0a4f28419497f9722a3daafe3b4186f6b6457e060405160405180910390a35050565b600080fd5b600073ffffffffffffffffffffffffffffffffffffffff82169050919050565b600061023482610209565b9050919050565b61024481610229565b811461024f57600080fd5b50565b6000815190506102618161023b565b92915050565b6000819050919050565b61027a81610267565b811461028557600080fd5b50565b60008151905061029781610271565b92915050565b6000806000606084860312156102b6576102b5610204565b5b60006102c486828701610252565b93505060206102d586828701610288565b92505060406102e686828701610288565b9150509250925092565b6102f981610229565b82525050565b600060208201905061031460008301846102f0565b92915050565b60805161468361034a60003960008181610f88015281816121dd01528181612aa50152612b4d01526146836000f3fe6080604052600436106102465760003560e01c806381e6b76d11610139578063a87430ba116100b6578063e552e7181161007a578063e552e718146108cf578063e941fa78146108fa578063ed1a998d14610911578063ee442c2a1461094e578063efdcd9741461098b578063f2fde38b146109b457610246565b8063a87430ba146107e9578063b3f0067414610827578063be721acb14610852578063bff1f9e11461087b578063c320c727146108a657610246565b80639428cda3116100fd5780639428cda3146106d557806399a0cf65146107125780639b88c8061461072e5780639e19a1ca1461076f578063a2bdedf4146107ac57610246565b806381e6b76d146105dc578063844c42641461060557806386f79edb146106305780638da5cb5b1461066d5780638fb7092c1461069857610246565b80633dbcc8d1116101c75780636322961d1161018b5780636322961d146104f75780636630f88f146105345780636cb84f701461055d578063715018a614610588578063775dbe551461059f57610246565b80633dbcc8d1146103fc5780634baeb4db146104275780634d6fad0914610450578063505163c81461047b57806359be72ac146104ba57610246565b80631858e6781161020e5780631858e678146103225780631cd896c11461034d578063228114af14610378578063335e536c146103b557806336a94134146103e057610246565b80630bbec4ff1461024b5780630e45b00b1461027657806312c3f754146102a157806314c44e09146102cc578063155b1d98146102f7575b600080fd5b34801561025757600080fd5b506102606109dd565b60405161026d9190612e70565b60405180910390f35b34801561028257600080fd5b5061028b6109e3565b6040516102989190612e70565b60405180910390f35b3480156102ad57600080fd5b506102b66109eb565b6040516102c39190612e70565b60405180910390f35b3480156102d857600080fd5b506102e16109f1565b6040516102ee9190612e70565b60405180910390f35b34801561030357600080fd5b5061030c6109f7565b6040516103199190612e70565b60405180910390f35b34801561032e57600080fd5b506103376109fc565b6040516103449190612e70565b60405180910390f35b34801561035957600080fd5b50610362610a09565b60405161036f9190612e70565b60405180910390f35b34801561038457600080fd5b5061039f600480360381019061039a9190612ed5565b610a0e565b6040516103ac9190612f43565b60405180910390f35b3480156103c157600080fd5b506103ca610a41565b6040516103d79190612e70565b60405180910390f35b6103fa60048036038101906103f591906130a4565b610a47565b005b34801561040857600080fd5b50610411610cbc565b60405161041e9190612e70565b60405180910390f35b34801561043357600080fd5b5061044e60048036038101906104499190613119565b610cc9565b005b34801561045c57600080fd5b50610465610f86565b60405161047291906131a5565b60405180910390f35b34801561048757600080fd5b506104a2600480360381019061049d91906131c0565b610faa565b6040516104b1939291906134bd565b60405180910390f35b3480156104c657600080fd5b506104e160048036038101906104dc9190613535565b611412565b6040516104ee9190613590565b60405180910390f35b34801561050357600080fd5b5061051e600480360381019061051991906130a4565b611441565b60405161052b9190612f43565b60405180910390f35b34801561054057600080fd5b5061055b600480360381019061055691906130a4565b611485565b005b34801561056957600080fd5b50610572611716565b60405161057f9190612e70565b60405180910390f35b34801561059457600080fd5b5061059d61171c565b005b3480156105ab57600080fd5b506105c660048036038101906105c19190612ed5565b611730565b6040516105d391906135f5565b60405180910390f35b3480156105e857600080fd5b5061060360048036038101906105fe9190613119565b6117d0565b005b34801561061157600080fd5b5061061a6117e2565b6040516106279190612e70565b60405180910390f35b34801561063c57600080fd5b5061065760048036038101906106529190613119565b6117e8565b604051610664919061368d565b60405180910390f35b34801561067957600080fd5b50610682611971565b60405161068f9190612f43565b60405180910390f35b3480156106a457600080fd5b506106bf60048036038101906106ba9190613535565b61199a565b6040516106cc9190613590565b60405180910390f35b3480156106e157600080fd5b506106fc60048036038101906106f791906136af565b611a02565b6040516107099190612e70565b60405180910390f35b61072c600480360381019061072791906130a4565b611a33565b005b34801561073a57600080fd5b5061075560048036038101906107509190613119565b611da3565b6040516107669594939291906136ef565b60405180910390f35b34801561077b57600080fd5b5061079660048036038101906107919190613119565b611e91565b6040516107a39190613881565b60405180910390f35b3480156107b857600080fd5b506107d360048036038101906107ce9190613119565b612106565b6040516107e09190612f43565b60405180910390f35b3480156107f557600080fd5b50610810600480360381019061080b91906138a3565b612145565b60405161081e9291906138df565b60405180910390f35b34801561083357600080fd5b5061083c612169565b6040516108499190612f43565b60405180910390f35b34801561085e57600080fd5b5061087960048036038101906108749190613119565b61218f565b005b34801561088757600080fd5b5061089061232b565b60405161089d9190612e70565b60405180910390f35b3480156108b257600080fd5b506108cd60048036038101906108c89190613119565b612338565b005b3480156108db57600080fd5b506108e461234a565b6040516108f19190612e70565b60405180910390f35b34801561090657600080fd5b5061090f612350565b005b34801561091d57600080fd5b50610938600480360381019061093391906138a3565b6125a7565b60405161094591906135f5565b60405180910390f35b34801561095a57600080fd5b50610975600480360381019061097091906138a3565b6126b4565b6040516109829190613908565b60405180910390f35b34801561099757600080fd5b506109b260048036038101906109ad91906138a3565b61274b565b005b3480156109c057600080fd5b506109db60048036038101906109d691906138a3565b612882565b005b600b5481565b630784ce0081565b60065481565b60055481565b600381565b6000600d80549050905090565b602081565b60026020528060005260406000206000915054906101000a900473ffffffffffffffffffffffffffffffffffffffff1681565b60085481565b600554341015610a8c576040517f08c379a0000000000000000000000000000000000000000000000000000000008152600401610a8390613976565b60405180910390fd5b6000600160003373ffffffffffffffffffffffffffffffffffffffff1673ffffffffffffffffffffffffffffffffffffffff1681526020019081526020016000206001015414610b11576040517f08c379a0000000000000000000000000000000000000000000000000000000008152600401610b08906139e2565b60405180910390fd5b6000610b1c82612908565b9050604051806040016040528082815260200142815250600160003373ffffffffffffffffffffffffffffffffffffffff1673ffffffffffffffffffffffffffffffffffffffff1681526020019081526020016000206000820151816000015560208201518160010155905050336002600083815260200190815260200160002060006101000a81548173ffffffffffffffffffffffffffffffffffffffff021916908373ffffffffffffffffffffffffffffffffffffffff16021790555081600360008381526020019081526020016000209081610bfb9190613c04565b506004339080600181540180825580915050600190039060005260206000200160009091909190916101000a81548173ffffffffffffffffffffffffffffffffffffffff021916908373ffffffffffffffffffffffffffffffffffffffff160217905550610c6834612a19565b3373ffffffffffffffffffffffffffffffffffffffff167f0a09fa67e91ea818e53d712f63caf32f685bed0c54acdb1cebf8f63a36b454aa8334604051610cb0929190613cd6565b60405180910390a25050565b6000600d80549050905090565b600d805490508110610d10576040517f08c379a0000000000000000000000000000000000000000000000000000000008152600401610d0790613d52565b60405180910390fd5b3373ffffffffffffffffffffffffffffffffffffffff16600d8281548110610d3b57610d3a613d72565b5b906000526020600020906005020160010160009054906101000a900473ffffffffffffffffffffffffffffffffffffffff1673ffffffffffffffffffffffffffffffffffffffff1603610dc3576040517f08c379a0000000000000000000000000000000000000000000000000000000008152600401610dba90613ded565b60405180910390fd5b600f600082815260200190815260200160002060003373ffffffffffffffffffffffffffffffffffffffff1673ffffffffffffffffffffffffffffffffffffffff16815260200190815260200160002060009054906101000a900460ff1615610e61576040517f08c379a0000000000000000000000000000000000000000000000000000000008152600401610e5890613e59565b60405180910390fd5b6001600f600083815260200190815260200160002060003373ffffffffffffffffffffffffffffffffffffffff1673ffffffffffffffffffffffffffffffffffffffff16815260200190815260200160002060006101000a81548160ff021916908315150217905550600d8181548110610ede57610edd613d72565b5b90600052602060002090600502016004016000815480929190610f0090613ea8565b9190505550610f0f6000612a19565b3373ffffffffffffffffffffffffffffffffffffffff16817f38a8c1d205b30e16645d10e3aff49c1332976048452980d8f1e295151d318983600d8481548110610f5c57610f5b613d72565b5b906000526020600020906005020160040154604051610f7b9190612e70565b60405180910390a350565b7f000000000000000000000000000000000000000000000000000000000000000081565b606080606060048054905085106110a957600067ffffffffffffffff811115610fd657610fd5612f79565b5b6040519080825280602002602001820160405280156110045781602001602082028036833780820191505090505b50600067ffffffffffffffff8111156110205761101f612f79565b5b60405190808252806020026020018201604052801561105357816020015b606081526020019060019003908161103e5790505b50600067ffffffffffffffff81111561106f5761106e612f79565b5b60405190808252806020026020018201604052801561109d5781602001602082028036833780820191505090505b5092509250925061140b565b600084866110b79190613ef0565b90506004805490508111156110cf5760048054905090505b85816110db9190613f24565b67ffffffffffffffff8111156110f4576110f3612f79565b5b6040519080825280602002602001820160405280156111225781602001602082028036833780820191505090505b50935085816111319190613f24565b67ffffffffffffffff81111561114a57611149612f79565b5b60405190808252806020026020018201604052801561117d57816020015b60608152602001906001900390816111685790505b509250858161118c9190613f24565b67ffffffffffffffff8111156111a5576111a4612f79565b5b6040519080825280602002602001820160405280156111d35781602001602082028036833780820191505090505b50915060008690505b81811015611408576000600482815481106111fa576111f9613d72565b5b9060005260206000200160009054906101000a900473ffffffffffffffffffffffffffffffffffffffff1690506000600160008373ffffffffffffffffffffffffffffffffffffffff1673ffffffffffffffffffffffffffffffffffffffff16815260200190815260200160002060000154905081878a8561127c9190613f24565b8151811061128d5761128c613d72565b5b602002602001019073ffffffffffffffffffffffffffffffffffffffff16908173ffffffffffffffffffffffffffffffffffffffff16815250506003600082815260200190815260200160002080546112e590613a31565b80601f016020809104026020016040519081016040528092919081815260200182805461131190613a31565b801561135e5780601f106113335761010080835404028352916020019161135e565b820191906000526020600020905b81548152906001019060200180831161134157829003601f168201915b5050505050868a856113709190613f24565b8151811061138157611380613d72565b5b6020026020010181905250600160008373ffffffffffffffffffffffffffffffffffffffff1673ffffffffffffffffffffffffffffffffffffffff16815260200190815260200160002060010154858a856113dc9190613f24565b815181106113ed576113ec613d72565b5b602002602001018181525050505080806001019150506111dc565b50505b9250925092565b600f6020528160005260406000206020528060005260406000206000915091509054906101000a900460ff1681565b6000600260008380519060200120815260200190815260200160002060009054906101000a900473ffffffffffffffffffffffffffffffffffffffff169050919050565b6000600160003373ffffffffffffffffffffffffffffffffffffffff1673ffffffffffffffffffffffffffffffffffffffff168152602001908152602001600020600101540361150a576040517f08c379a000000000000000000000000000000000000000000000000000000000815260040161150190613fa4565b60405180910390fd5b6000815111801561151e5750610118815111155b61155d576040517f08c379a000000000000000000000000000000000000000000000000000000000815260040161155490614010565b60405180910390fd5b6000600d80549050905060006040518060a001604052808381526020013373ffffffffffffffffffffffffffffffffffffffff16815260200184815260200142815260200160008152509050600d8190806001815401808255809150506001900390600052602060002090600502016000909190919091506000820151816000015560208201518160010160006101000a81548173ffffffffffffffffffffffffffffffffffffffff021916908373ffffffffffffffffffffffffffffffffffffffff160217905550604082015181600201908161163b9190613c04565b5060608201518160030155608082015181600401555050600e60003373ffffffffffffffffffffffffffffffffffffffff1673ffffffffffffffffffffffffffffffffffffffff1681526020019081526020016000208290806001815401808255809150506001900390600052602060002001600090919091909150556116c26000612a19565b3373ffffffffffffffffffffffffffffffffffffffff16827f16effde6b8c5f78279aca5974057ff6b6fd8c9ab5e96994c7f1b62cbfcbbd78b8560405161170991906135f5565b60405180910390a3505050565b600a5481565b611724612c62565b61172e6000612ce9565b565b6003602052806000526040600020600091509050805461174f90613a31565b80601f016020809104026020016040519081016040528092919081815260200182805461177b90613a31565b80156117c85780601f1061179d576101008083540402835291602001916117c8565b820191906000526020600020905b8154815290600101906020018083116117ab57829003601f168201915b505050505081565b6117d8612c62565b8060068190555050565b60095481565b6117f0612db5565b600d805490508210611837576040517f08c379a000000000000000000000000000000000000000000000000000000000815260040161182e90613d52565b60405180910390fd5b600d828154811061184b5761184a613d72565b5b90600052602060002090600502016040518060a0016040529081600082015481526020016001820160009054906101000a900473ffffffffffffffffffffffffffffffffffffffff1673ffffffffffffffffffffffffffffffffffffffff1673ffffffffffffffffffffffffffffffffffffffff1681526020016002820180546118d490613a31565b80601f016020809104026020016040519081016040528092919081815260200182805461190090613a31565b801561194d5780601f106119225761010080835404028352916020019161194d565b820191906000526020600020905b81548152906001019060200180831161193057829003601f168201915b50505050508152602001600382015481526020016004820154815250509050919050565b60008060009054906101000a900473ffffffffffffffffffffffffffffffffffffffff16905090565b6000600f600084815260200190815260200160002060008373ffffffffffffffffffffffffffffffffffffffff1673ffffffffffffffffffffffffffffffffffffffff16815260200190815260200160002060009054906101000a900460ff16905092915050565b600e6020528160005260406000208181548110611a1e57600080fd5b90600052602060002001600091509150505481565b6000600160003373ffffffffffffffffffffffffffffffffffffffff1673ffffffffffffffffffffffffffffffffffffffff1681526020019081526020016000206001015403611ab8576040517f08c379a0000000000000000000000000000000000000000000000000000000008152600401611aaf9061407c565b60405180910390fd5b600654341015611afd576040517f08c379a0000000000000000000000000000000000000000000000000000000008152600401611af490613976565b60405180910390fd5b600060036000600160003373ffffffffffffffffffffffffffffffffffffffff1673ffffffffffffffffffffffffffffffffffffffff1681526020019081526020016000206000015481526020019081526020016000208054611b5f90613a31565b80601f0160208091040260200160405190810160405280929190818152602001828054611b8b90613a31565b8015611bd85780601f10611bad57610100808354040283529160200191611bd8565b820191906000526020600020905b815481529060010190602001808311611bbb57829003601f168201915b505050505090506000600160003373ffffffffffffffffffffffffffffffffffffffff1673ffffffffffffffffffffffffffffffffffffffff1681526020019081526020016000206000015490506000611c3184612908565b90506002600083815260200190815260200160002060006101000a81549073ffffffffffffffffffffffffffffffffffffffff0219169055600360008381526020019081526020016000206000611c889190612dfa565b80600160003373ffffffffffffffffffffffffffffffffffffffff1673ffffffffffffffffffffffffffffffffffffffff16815260200190815260200160002060000181905550336002600083815260200190815260200160002060006101000a81548173ffffffffffffffffffffffffffffffffffffffff021916908373ffffffffffffffffffffffffffffffffffffffff16021790555083600360008381526020019081526020016000209081611d419190613c04565b50611d4b34612a19565b3373ffffffffffffffffffffffffffffffffffffffff167f8a2b28ab3f563bd1ac17a48f0f701c3b6a857357bec60220992c2608c5f2c700848634604051611d959392919061409c565b60405180910390a250505050565b600d8181548110611db357600080fd5b90600052602060002090600502016000915090508060000154908060010160009054906101000a900473ffffffffffffffffffffffffffffffffffffffff1690806002018054611e0290613a31565b80601f0160208091040260200160405190810160405280929190818152602001828054611e2e90613a31565b8015611e7b5780601f10611e5057610100808354040283529160200191611e7b565b820191906000526020600020905b815481529060010190602001808311611e5e57829003601f168201915b5050505050908060030154908060040154905085565b60606000600d80549050905060008103611f0257600067ffffffffffffffff811115611ec057611ebf612f79565b5b604051908082528060200260200182016040528015611ef957816020015b611ee6612db5565b815260200190600190039081611ede5790505b50915050612101565b6000839050600082851115611f1d5782915060009050611f2c565b8483611f299190613f24565b90505b60008267ffffffffffffffff811115611f4857611f47612f79565b5b604051908082528060200260200182016040528015611f8157816020015b611f6e612db5565b815260200190600190039081611f665790505b50905060005b838110156120f857600d8184611f9d9190613ef0565b81548110611fae57611fad613d72565b5b90600052602060002090600502016040518060a0016040529081600082015481526020016001820160009054906101000a900473ffffffffffffffffffffffffffffffffffffffff1673ffffffffffffffffffffffffffffffffffffffff1673ffffffffffffffffffffffffffffffffffffffff16815260200160028201805461203790613a31565b80601f016020809104026020016040519081016040528092919081815260200182805461206390613a31565b80156120b05780601f10612085576101008083540402835291602001916120b0565b820191906000526020600020905b81548152906001019060200180831161209357829003601f168201915b50505050508152602001600382015481526020016004820154815250508282815181106120e0576120df613d72565b5b60200260200101819052508080600101915050611f87565b50809450505050505b919050565b6004818154811061211657600080fd5b906000526020600020016000915054906101000a900473ffffffffffffffffffffffffffffffffffffffff1681565b60016020528060005260406000206000915090508060000154908060010154905082565b600760009054906101000a900473ffffffffffffffffffffffffffffffffffffffff1681565b612197612c62565b600081116121da576040517f08c379a00000000000000000000000000000000000000000000000000000000081526004016121d19061412d565b60405180910390fd5b807f000000000000000000000000000000000000000000000000000000000000000073ffffffffffffffffffffffffffffffffffffffff166370a08231306040518263ffffffff1660e01b81526004016122349190612f43565b602060405180830381865afa158015612251573d6000803e3d6000fd5b505050506040513d601f19601f820116820180604052508101906122759190614162565b10156122b6576040517f08c379a00000000000000000000000000000000000000000000000000000000081526004016122ad906141db565b60405180910390fd5b42600881905550630784ce00426122cd9190613ef0565b60098190555080600a819055506000600b8190555042600c819055507f349af7112230411a2b6b2c1b8f05338d2a29f6b5256f3157af0551e048625ec860085460095483604051612320939291906141fb565b60405180910390a150565b6000600480549050905090565b612340612c62565b8060058190555050565b600c5481565b612358611971565b73ffffffffffffffffffffffffffffffffffffffff163373ffffffffffffffffffffffffffffffffffffffff1614806123de5750600760009054906101000a900473ffffffffffffffffffffffffffffffffffffffff1673ffffffffffffffffffffffffffffffffffffffff163373ffffffffffffffffffffffffffffffffffffffff16145b61241d576040517f08c379a00000000000000000000000000000000000000000000000000000000081526004016124149061427e565b60405180910390fd5b600047905060008111612465576040517f08c379a000000000000000000000000000000000000000000000000000000000815260040161245c906142ea565b60405180910390fd5b600760009054906101000a900473ffffffffffffffffffffffffffffffffffffffff1673ffffffffffffffffffffffffffffffffffffffff167f78473f3f373f7673597f4f0fa5873cb4d375fea6d4339ad6b56dbd411513cb3f826040516124cd9190612e70565b60405180910390a26000600760009054906101000a900473ffffffffffffffffffffffffffffffffffffffff1673ffffffffffffffffffffffffffffffffffffffff168260405161251d9061433b565b60006040518083038185875af1925050503d806000811461255a576040519150601f19603f3d011682016040523d82523d6000602084013e61255f565b606091505b50509050806125a3576040517f08c379a000000000000000000000000000000000000000000000000000000000815260040161259a9061439c565b60405180910390fd5b5050565b60606000600160008473ffffffffffffffffffffffffffffffffffffffff1673ffffffffffffffffffffffffffffffffffffffff1681526020019081526020016000206000015490506000801b811461269b5760036000828152602001908152602001600020805461261890613a31565b80601f016020809104026020016040519081016040528092919081815260200182805461264490613a31565b80156126915780601f1061266657610100808354040283529160200191612691565b820191906000526020600020905b81548152906001019060200180831161267457829003601f168201915b50505050506126ac565b604051806020016040528060008152505b915050919050565b6060600e60008373ffffffffffffffffffffffffffffffffffffffff1673ffffffffffffffffffffffffffffffffffffffff16815260200190815260200160002080548060200260200160405190810160405280929190818152602001828054801561273f57602002820191906000526020600020905b81548152602001906001019080831161272b575b50505050509050919050565b612753612c62565b600073ffffffffffffffffffffffffffffffffffffffff168173ffffffffffffffffffffffffffffffffffffffff16036127c2576040517f08c379a00000000000000000000000000000000000000000000000000000000081526004016127b990614408565b60405180910390fd5b8073ffffffffffffffffffffffffffffffffffffffff16600760009054906101000a900473ffffffffffffffffffffffffffffffffffffffff1673ffffffffffffffffffffffffffffffffffffffff167fa4b009cc442411b602eaf94bc0579b6abdb8fd90b4ef5b9426e270038906bd0360405160405180910390a380600760006101000a81548173ffffffffffffffffffffffffffffffffffffffff021916908373ffffffffffffffffffffffffffffffffffffffff16021790555050565b61288a612c62565b600073ffffffffffffffffffffffffffffffffffffffff168173ffffffffffffffffffffffffffffffffffffffff16036128fc5760006040517f1e4fbdf70000000000000000000000000000000000000000000000000000000081526004016128f39190612f43565b60405180910390fd5b61290581612ce9565b50565b600080829050600381511015801561292257506020815111155b612961576040517f08c379a000000000000000000000000000000000000000000000000000000000815260040161295890614474565b60405180910390fd5b600081805190602001209050600073ffffffffffffffffffffffffffffffffffffffff166002600083815260200190815260200160002060009054906101000a900473ffffffffffffffffffffffffffffffffffffffff1673ffffffffffffffffffffffffffffffffffffffff1614612a0f576040517f08c379a0000000000000000000000000000000000000000000000000000000008152600401612a06906144e0565b60405180910390fd5b8092505050919050565b60095442101580612a2c57506000600a54145b612c5f576000600c5442612a409190613f24565b905060008103612a505750612c5f565b6000630784ce00600a5483612a659190614500565b612a6f9190614571565b90506000600b54600a54612a839190613f24565b905080821115612a91578091505b60008203612aa157505050612c5f565b60007f000000000000000000000000000000000000000000000000000000000000000073ffffffffffffffffffffffffffffffffffffffff166370a08231306040518263ffffffff1660e01b8152600401612afc9190612f43565b602060405180830381865afa158015612b19573d6000803e3d6000fd5b505050506040513d601f19601f82011682018060405250810190612b3d9190614162565b905080831115612b4b578092505b7f000000000000000000000000000000000000000000000000000000000000000073ffffffffffffffffffffffffffffffffffffffff1663a9059cbb33856040518363ffffffff1660e01b8152600401612ba69291906145a2565b6020604051808303816000875af1158015612bc5573d6000803e3d6000fd5b505050506040513d601f19601f82011682018060405250810190612be991906145f7565b5082600b6000828254612bfc9190613ef0565b9250508190555042600c819055503373ffffffffffffffffffffffffffffffffffffffff167f171b2f9dc7a4c7eaa8ca718bcac62fbec15d147f033f38e42971b7ccabe9a4698685604051612c52929190614624565b60405180910390a2505050505b50565b612c6a612dad565b73ffffffffffffffffffffffffffffffffffffffff16612c88611971565b73ffffffffffffffffffffffffffffffffffffffff1614612ce757612cab612dad565b6040517f118cdaa7000000000000000000000000000000000000000000000000000000008152600401612cde9190612f43565b60405180910390fd5b565b60008060009054906101000a900473ffffffffffffffffffffffffffffffffffffffff169050816000806101000a81548173ffffffffffffffffffffffffffffffffffffffff021916908373ffffffffffffffffffffffffffffffffffffffff1602179055508173ffffffffffffffffffffffffffffffffffffffff168173ffffffffffffffffffffffffffffffffffffffff167f8be0079c531659141344cd1fd0a4f28419497f9722a3daafe3b4186f6b6457e060405160405180910390a35050565b600033905090565b6040518060a0016040528060008152602001600073ffffffffffffffffffffffffffffffffffffffff1681526020016060815260200160008152602001600081525090565b508054612e0690613a31565b6000825580601f10612e185750612e37565b601f016020900490600052602060002090810190612e369190612e3a565b5b50565b5b80821115612e53576000816000905550600101612e3b565b5090565b6000819050919050565b612e6a81612e57565b82525050565b6000602082019050612e856000830184612e61565b92915050565b6000604051905090565b600080fd5b600080fd5b6000819050919050565b612eb281612e9f565b8114612ebd57600080fd5b50565b600081359050612ecf81612ea9565b92915050565b600060208284031215612eeb57612eea612e95565b5b6000612ef984828501612ec0565b91505092915050565b600073ffffffffffffffffffffffffffffffffffffffff82169050919050565b6000612f2d82612f02565b9050919050565b612f3d81612f22565b82525050565b6000602082019050612f586000830184612f34565b92915050565b600080fd5b600080fd5b6000601f19601f8301169050919050565b7f4e487b7100000000000000000000000000000000000000000000000000000000600052604160045260246000fd5b612fb182612f68565b810181811067ffffffffffffffff82111715612fd057612fcf612f79565b5b80604052505050565b6000612fe3612e8b565b9050612fef8282612fa8565b919050565b600067ffffffffffffffff82111561300f5761300e612f79565b5b61301882612f68565b9050602081019050919050565b82818337600083830152505050565b600061304761304284612ff4565b612fd9565b90508281526020810184848401111561306357613062612f63565b5b61306e848285613025565b509392505050565b600082601f83011261308b5761308a612f5e565b5b813561309b848260208601613034565b91505092915050565b6000602082840312156130ba576130b9612e95565b5b600082013567ffffffffffffffff8111156130d8576130d7612e9a565b5b6130e484828501613076565b91505092915050565b6130f681612e57565b811461310157600080fd5b50565b600081359050613113816130ed565b92915050565b60006020828403121561312f5761312e612e95565b5b600061313d84828501613104565b91505092915050565b6000819050919050565b600061316b61316661316184612f02565b613146565b612f02565b9050919050565b600061317d82613150565b9050919050565b600061318f82613172565b9050919050565b61319f81613184565b82525050565b60006020820190506131ba6000830184613196565b92915050565b600080604083850312156131d7576131d6612e95565b5b60006131e585828601613104565b92505060206131f685828601613104565b9150509250929050565b600081519050919050565b600082825260208201905092915050565b6000819050602082019050919050565b61323581612f22565b82525050565b6000613247838361322c565b60208301905092915050565b6000602082019050919050565b600061326b82613200565b613275818561320b565b93506132808361321c565b8060005b838110156132b1578151613298888261323b565b97506132a383613253565b925050600181019050613284565b5085935050505092915050565b600081519050919050565b600082825260208201905092915050565b6000819050602082019050919050565b600081519050919050565b600082825260208201905092915050565b60005b83811015613324578082015181840152602081019050613309565b60008484015250505050565b600061333b826132ea565b61334581856132f5565b9350613355818560208601613306565b61335e81612f68565b840191505092915050565b60006133758383613330565b905092915050565b6000602082019050919050565b6000613395826132be565b61339f81856132c9565b9350836020820285016133b1856132da565b8060005b858110156133ed57848403895281516133ce8582613369565b94506133d98361337d565b925060208a019950506001810190506133b5565b50829750879550505050505092915050565b600081519050919050565b600082825260208201905092915050565b6000819050602082019050919050565b61343481612e57565b82525050565b6000613446838361342b565b60208301905092915050565b6000602082019050919050565b600061346a826133ff565b613474818561340a565b935061347f8361341b565b8060005b838110156134b0578151613497888261343a565b97506134a283613452565b925050600181019050613483565b5085935050505092915050565b600060608201905081810360008301526134d78186613260565b905081810360208301526134eb818561338a565b905081810360408301526134ff818461345f565b9050949350505050565b61351281612f22565b811461351d57600080fd5b50565b60008135905061352f81613509565b92915050565b6000806040838503121561354c5761354b612e95565b5b600061355a85828601613104565b925050602061356b85828601613520565b9150509250929050565b60008115159050919050565b61358a81613575565b82525050565b60006020820190506135a56000830184613581565b92915050565b600082825260208201905092915050565b60006135c7826132ea565b6135d181856135ab565b93506135e1818560208601613306565b6135ea81612f68565b840191505092915050565b6000602082019050818103600083015261360f81846135bc565b905092915050565b600060a08301600083015161362f600086018261342b565b506020830151613642602086018261322c565b506040830151848203604086015261365a8282613330565b915050606083015161366f606086018261342b565b506080830151613682608086018261342b565b508091505092915050565b600060208201905081810360008301526136a78184613617565b905092915050565b600080604083850312156136c6576136c5612e95565b5b60006136d485828601613520565b92505060206136e585828601613104565b9150509250929050565b600060a0820190506137046000830188612e61565b6137116020830187612f34565b818103604083015261372381866135bc565b90506137326060830185612e61565b61373f6080830184612e61565b9695505050505050565b600081519050919050565b600082825260208201905092915050565b6000819050602082019050919050565b600060a08301600083015161378d600086018261342b565b5060208301516137a0602086018261322c565b50604083015184820360408601526137b88282613330565b91505060608301516137cd606086018261342b565b5060808301516137e0608086018261342b565b508091505092915050565b60006137f78383613775565b905092915050565b6000602082019050919050565b600061381782613749565b6138218185613754565b93508360208202850161383385613765565b8060005b8581101561386f578484038952815161385085826137eb565b945061385b836137ff565b925060208a01995050600181019050613837565b50829750879550505050505092915050565b6000602082019050818103600083015261389b818461380c565b905092915050565b6000602082840312156138b9576138b8612e95565b5b60006138c784828501613520565b91505092915050565b6138d981612e9f565b82525050565b60006040820190506138f460008301856138d0565b6139016020830184612e61565b9392505050565b60006020820190508181036000830152613922818461345f565b905092915050565b7f666565206c6f7700000000000000000000000000000000000000000000000000600082015250565b60006139606007836135ab565b915061396b8261392a565b602082019050919050565b6000602082019050818103600083015261398f81613953565b9050919050565b7f616c726561647920726567000000000000000000000000000000000000000000600082015250565b60006139cc600b836135ab565b91506139d782613996565b602082019050919050565b600060208201905081810360008301526139fb816139bf565b9050919050565b7f4e487b7100000000000000000000000000000000000000000000000000000000600052602260045260246000fd5b60006002820490506001821680613a4957607f821691505b602082108103613a5c57613a5b613a02565b5b50919050565b60008190508160005260206000209050919050565b60006020601f8301049050919050565b600082821b905092915050565b600060088302613ac47fffffffffffffffffffffffffffffffffffffffffffffffffffffffffffffffff82613a87565b613ace8683613a87565b95508019841693508086168417925050509392505050565b6000613b01613afc613af784612e57565b613146565b612e57565b9050919050565b6000819050919050565b613b1b83613ae6565b613b2f613b2782613b08565b848454613a94565b825550505050565b600090565b613b44613b37565b613b4f818484613b12565b505050565b5b81811015613b7357613b68600082613b3c565b600181019050613b55565b5050565b601f821115613bb857613b8981613a62565b613b9284613a77565b81016020851015613ba1578190505b613bb5613bad85613a77565b830182613b54565b50505b505050565b600082821c905092915050565b6000613bdb60001984600802613bbd565b1980831691505092915050565b6000613bf48383613bca565b9150826002028217905092915050565b613c0d826132ea565b67ffffffffffffffff811115613c2657613c25612f79565b5b613c308254613a31565b613c3b828285613b77565b600060209050601f831160018114613c6e5760008415613c5c578287015190505b613c668582613be8565b865550613cce565b601f198416613c7c86613a62565b60005b82811015613ca457848901518255600182019150602085019450602081019050613c7f565b86831015613cc15784890151613cbd601f891682613bca565b8355505b6001600288020188555050505b505050505050565b60006040820190508181036000830152613cf081856135bc565b9050613cff6020830184612e61565b9392505050565b7f6d657373616765206e6f7420666f756e64000000000000000000000000000000600082015250565b6000613d3c6011836135ab565b9150613d4782613d06565b602082019050919050565b60006020820190508181036000830152613d6b81613d2f565b9050919050565b7f4e487b7100000000000000000000000000000000000000000000000000000000600052603260045260246000fd5b7f63616e6e6f74206c696b65206f776e206d657373616765000000000000000000600082015250565b6000613dd76017836135ab565b9150613de282613da1565b602082019050919050565b60006020820190508181036000830152613e0681613dca565b9050919050565b7f616c7265616479206c696b656400000000000000000000000000000000000000600082015250565b6000613e43600d836135ab565b9150613e4e82613e0d565b602082019050919050565b60006020820190508181036000830152613e7281613e36565b9050919050565b7f4e487b7100000000000000000000000000000000000000000000000000000000600052601160045260246000fd5b6000613eb382612e57565b91507fffffffffffffffffffffffffffffffffffffffffffffffffffffffffffffffff8203613ee557613ee4613e79565b5b600182019050919050565b6000613efb82612e57565b9150613f0683612e57565b9250828201905080821115613f1e57613f1d613e79565b5b92915050565b6000613f2f82612e57565b9150613f3a83612e57565b9250828203905081811115613f5257613f51613e79565b5b92915050565b7f6e6f742072656769737465726564000000000000000000000000000000000000600082015250565b6000613f8e600e836135ab565b9150613f9982613f58565b602082019050919050565b60006020820190508181036000830152613fbd81613f81565b9050919050565b7f636f6e74656e74206c656e67746820696e76616c696400000000000000000000600082015250565b6000613ffa6016836135ab565b915061400582613fc4565b602082019050919050565b6000602082019050818103600083015261402981613fed565b9050919050565b7f6e6f742072656700000000000000000000000000000000000000000000000000600082015250565b60006140666007836135ab565b915061407182614030565b602082019050919050565b6000602082019050818103600083015261409581614059565b9050919050565b600060608201905081810360008301526140b681866135bc565b905081810360208301526140ca81856135bc565b90506140d96040830184612e61565b949350505050565b7f7a65726f20616d6f756e74000000000000000000000000000000000000000000600082015250565b6000614117600b836135ab565b9150614122826140e1565b602082019050919050565b600060208201905081810360008301526141468161410a565b9050919050565b60008151905061415c816130ed565b92915050565b60006020828403121561417857614177612e95565b5b60006141868482850161414d565b91505092915050565b7f696e73756666696369656e742043540000000000000000000000000000000000600082015250565b60006141c5600f836135ab565b91506141d08261418f565b602082019050919050565b600060208201905081810360008301526141f4816141b8565b9050919050565b60006060820190506142106000830186612e61565b61421d6020830185612e61565b61422a6040830184612e61565b949350505050565b7f6e6f74206f776e6572206f722072656365697665720000000000000000000000600082015250565b60006142686015836135ab565b915061427382614232565b602082019050919050565b600060208201905081810360008301526142978161425b565b9050919050565b7f6e6f206665650000000000000000000000000000000000000000000000000000600082015250565b60006142d46006836135ab565b91506142df8261429e565b602082019050919050565b60006020820190508181036000830152614303816142c7565b9050919050565b600081905092915050565b50565b600061432560008361430a565b915061433082614315565b600082019050919050565b600061434682614318565b9150819050919050565b7f7472616e73666572206661696c65640000000000000000000000000000000000600082015250565b6000614386600f836135ab565b915061439182614350565b602082019050919050565b600060208201905081810360008301526143b581614379565b9050919050565b7f7a65726f20616464720000000000000000000000000000000000000000000000600082015250565b60006143f26009836135ab565b91506143fd826143bc565b602082019050919050565b60006020820190508181036000830152614421816143e5565b9050919050565b7f6c656e0000000000000000000000000000000000000000000000000000000000600082015250565b600061445e6003836135ab565b915061446982614428565b602082019050919050565b6000602082019050818103600083015261448d81614451565b9050919050565b7f74616b656e000000000000000000000000000000000000000000000000000000600082015250565b60006144ca6005836135ab565b91506144d582614494565b602082019050919050565b600060208201905081810360008301526144f9816144bd565b9050919050565b600061450b82612e57565b915061451683612e57565b925082820261452481612e57565b9150828204841483151761453b5761453a613e79565b5b5092915050565b7f4e487b7100000000000000000000000000000000000000000000000000000000600052601260045260246000fd5b600061457c82612e57565b915061458783612e57565b92508261459757614596614542565b5b828204905092915050565b60006040820190506145b76000830185612f34565b6145c46020830184612e61565b9392505050565b6145d481613575565b81146145df57600080fd5b50565b6000815190506145f1816145cb565b92915050565b60006020828403121561460d5761460c612e95565b5b600061461b848285016145e2565b91505092915050565b60006040820190506146396000830185612e61565b6146466020830184612e61565b939250505056fea2646970667358221220dc613fde1a81cbfdb0e848bb9b8ae5add41094561430bf4653e33d1991093e7864736f6c634300081c0033",
  "linkReferences": {},
  "deployedLinkReferences": {}
}