{
  "_format": "hh-sol-artifact-1",
  "contractName": "ConnectionUserRegistry",
  "sourceName": "contracts/ConnectionUserRegistry.sol",
  "abi": [
    {
      "inputs": [
        {
          "internalType": "address",
          "name": "_ctToken",
          "type": "address"
        },
        {
          "internalType": "uint256",
          "name": "_regFee",
          "type": "uint256"
        },
        {
          "internalType": "uint256",
          "name": "_modFee",
          "type": "uint256"
        },
        {
          "internalType": "uint256",
          "name": "_defaultCommentFee",
          "type": "uint256"
        },
        {
          "internalType": "uint256",
          "name": "_defaultTip",
          "type": "uint256"
        }
      ],
      "stateMutability": "nonpayable",
      "type": "constructor"
    },
    {
      "inputs": [
        {
          "internalType": "address",
          "name": "owner",
          "type": "address"
        }
      ],
      "name": "OwnableInvalidOwner",
      "type": "error"
    },
    {
      "inputs": [
        {
          "internalType": "address",
          "name": "account",
          "type": "address"
        }
      ],
      "name": "OwnableUnauthorizedAccount",
      "type": "error"
    },
    {
      "anonymous": false,
      "inputs": [
        {
          "indexed": false,
          "internalType": "enum ConnectionUserRegistry.AirdropPool",
          "name": "pool",
          "type": "uint8"
        },
        {
          "indexed": false,
          "internalType": "uint256",
          "name": "start",
          "type": "uint256"
        },
        {
          "indexed": false,
          "internalType": "uint256",
          "name": "end",
          "type": "uint256"
        },
        {
          "indexed": false,
          "internalType": "uint256",
          "name": "totalCT",
          "type": "uint256"
        }
      ],
      "name": "AirdropCycleStarted",
      "type": "event"
    },
    {
      "anonymous": false,
      "inputs": [
        {
          "indexed": true,
          "internalType": "address",
          "name": "user",
          "type": "address"
        },
        {
          "indexed": false,
          "internalType": "uint256",
          "name": "ai3Paid",
          "type": "uint256"
        },
        {
          "indexed": false,
          "internalType": "uint256",
          "name": "ctAmount",
          "type": "uint256"
        }
      ],
      "name": "AirdropExecuted",
      "type": "event"
    },
    {
      "anonymous": false,
      "inputs": [
        {
          "indexed": true,
          "internalType": "uint256",
          "name": "id",
          "type": "uint256"
        },
        {
          "indexed": true,
          "internalType": "address",
          "name": "author",
          "type": "address"
        },
        {
          "indexed": true,
          "internalType": "uint256",
          "name": "messageId",
          "type": "uint256"
        },
        {
          "indexed": false,
          "internalType": "uint256",
          "name": "parentId",
          "type": "uint256"
        },
        {
          "indexed": false,
          "internalType": "string",
          "name": "content",
          "type": "string"
        }
      ],
      "name": "CommentPosted",
      "type": "event"
    },
    {
      "anonymous": false,
      "inputs": [
        {
          "indexed": true,
          "internalType": "address",
          "name": "oldAddr",
          "type": "address"
        },
        {
          "indexed": true,
          "internalType": "address",
          "name": "newAddr",
          "type": "address"
        }
      ],
      "name": "FeeReceiverChanged",
      "type": "event"
    },
    {
      "anonymous": false,
      "inputs": [
        {
          "indexed": true,
          "internalType": "address",
          "name": "receiver",
          "type": "address"
        },
        {
          "indexed": false,
          "internalType": "uint256",
          "name": "amount",
          "type": "uint256"
        }
      ],
      "name": "FeeWithdrawn",
      "type": "event"
    },
    {
      "anonymous": false,
      "inputs": [
        {
          "indexed": true,
          "internalType": "uint256",
          "name": "id",
          "type": "uint256"
        },
        {
          "indexed": true,
          "internalType": "address",
          "name": "user",
          "type": "address"
        },
        {
          "indexed": false,
          "internalType": "uint256",
          "name": "newLikes",
          "type": "uint256"
        },
        {
          "indexed": false,
          "internalType": "uint256",
          "name": "tipAmount",
          "type": "uint256"
        }
      ],
      "name": "MessageLiked",
      "type": "event"
    },
    {
      "anonymous": false,
      "inputs": [
        {
          "indexed": true,
          "internalType": "uint256",
          "name": "id",
          "type": "uint256"
        },
        {
          "indexed": true,
          "internalType": "address",
          "name": "author",
          "type": "address"
        },
        {
          "indexed": false,
          "internalType": "string",
          "name": "content",
          "type": "string"
        }
      ],
      "name": "MessagePosted",
      "type": "event"
    },
    {
      "anonymous": false,
      "inputs": [
        {
          "indexed": true,
          "internalType": "address",
          "name": "previousOwner",
          "type": "address"
        },
        {
          "indexed": true,
          "internalType": "address",
          "name": "newOwner",
          "type": "address"
        }
      ],
      "name": "OwnershipTransferred",
      "type": "event"
    },
    {
      "anonymous": false,
      "inputs": [
        {
          "indexed": true,
          "internalType": "address",
          "name": "user",
          "type": "address"
        },
        {
          "indexed": false,
          "internalType": "uint256",
          "name": "newFee",
          "type": "uint256"
        }
      ],
      "name": "UserCommentFeeSet",
      "type": "event"
    },
    {
      "anonymous": false,
      "inputs": [
        {
          "indexed": true,
          "internalType": "address",
          "name": "user",
          "type": "address"
        },
        {
          "indexed": false,
          "internalType": "string",
          "name": "oldName",
          "type": "string"
        },
        {
          "indexed": false,
          "internalType": "string",
          "name": "newName",
          "type": "string"
        },
        {
          "indexed": false,
          "internalType": "uint256",
          "name": "fee",
          "type": "uint256"
        }
      ],
      "name": "UsernameModified",
      "type": "event"
    },
    {
      "anonymous": false,
      "inputs": [
        {
          "indexed": true,
          "internalType": "address",
          "name": "user",
          "type": "address"
        },
        {
          "indexed": false,
          "internalType": "string",
          "name": "username",
          "type": "string"
        },
        {
          "indexed": false,
          "internalType": "uint256",
          "name": "fee",
          "type": "uint256"
        }
      ],
      "name": "UsernameRegistered",
      "type": "event"
    },
    {
      "inputs": [],
      "name": "AIRDROP_CYCLE_DURATION",
      "outputs": [
        {
          "internalType": "uint256",
          "name": "",
          "type": "uint256"
        }
      ],
      "stateMutability": "view",
      "type": "function"
    },
    {
      "inputs": [],
      "name": "MAX_USERNAME_LENGTH",
      "outputs": [
        {
          "internalType": "uint256",
          "name": "",
          "type": "uint256"
        }
      ],
      "stateMutability": "view",
      "type": "function"
    },
    {
      "inputs": [],
      "name": "MIN_USERNAME_LENGTH",
      "outputs": [
        {
          "internalType": "uint256",
          "name": "",
          "type": "uint256"
        }
      ],
      "stateMutability": "view",
      "type": "function"
    },
    {
      "inputs": [
        {
          "internalType": "enum ConnectionUserRegistry.AirdropPool",
          "name": "",
          "type": "uint8"
        }
      ],
      "name": "airdropCycles",
      "outputs": [
        {
          "internalType": "uint256",
          "name": "cycleStartTime",
          "type": "uint256"
        },
        {
          "internalType": "uint256",
          "name": "cycleEndTime",
          "type": "uint256"
        },
        {
          "internalType": "uint256",
          "name": "cycleTotalCT",
          "type": "uint256"
        },
        {
          "internalType": "uint256",
          "name": "distributedCT",
          "type": "uint256"
        },
        {
          "internalType": "uint256",
          "name": "lastAirdropTS",
          "type": "uint256"
        }
      ],
      "stateMutability": "view",
      "type": "function"
    },
    {
      "inputs": [
        {
          "internalType": "uint256",
          "name": "",
          "type": "uint256"
        }
      ],
      "name": "allComments",
      "outputs": [
        {
          "internalType": "uint256",
          "name": "id",
          "type": "uint256"
        },
        {
          "internalType": "address",
          "name": "author",
          "type": "address"
        },
        {
          "internalType": "string",
          "name": "content",
          "type": "string"
        },
        {
          "internalType": "uint256",
          "name": "timestamp",
          "type": "uint256"
        },
        {
          "internalType": "uint256",
          "name": "likes",
          "type": "uint256"
        },
        {
          "internalType": "uint256",
          "name": "messageId",
          "type": "uint256"
        },
        {
          "internalType": "uint256",
          "name": "parentCommentId",
          "type": "uint256"
        }
      ],
      "stateMutability": "view",
      "type": "function"
    },
    {
      "inputs": [
        {
          "internalType": "uint256",
          "name": "",
          "type": "uint256"
        }
      ],
      "name": "allMessages",
      "outputs": [
        {
          "internalType": "uint256",
          "name": "id",
          "type": "uint256"
        },
        {
          "internalType": "address",
          "name": "author",
          "type": "address"
        },
        {
          "internalType": "string",
          "name": "content",
          "type": "string"
        },
        {
          "internalType": "uint256",
          "name": "timestamp",
          "type": "uint256"
        },
        {
          "internalType": "uint256",
          "name": "likes",
          "type": "uint256"
        }
      ],
      "stateMutability": "view",
      "type": "function"
    },
    {
      "inputs": [
        {
          "internalType": "uint256",
          "name": "",
          "type": "uint256"
        }
      ],
      "name": "allUsers",
      "outputs": [
        {
          "internalType": "address",
          "name": "",
          "type": "address"
        }
      ],
      "stateMutability": "view",
      "type": "function"
    },
    {
      "inputs": [
        {
          "internalType": "uint256",
          "name": "messageId",
          "type": "uint256"
        },
        {
          "internalType": "uint256",
          "name": "parentCommentId",
          "type": "uint256"
        },
        {
          "internalType": "string",
          "name": "content",
          "type": "string"
        }
      ],
      "name": "commentOnMessage",
      "outputs": [],
      "stateMutability": "payable",
      "type": "function"
    },
    {
      "inputs": [
        {
          "internalType": "uint256",
          "name": "",
          "type": "uint256"
        },
        {
          "internalType": "uint256",
          "name": "",
          "type": "uint256"
        }
      ],
      "name": "commentReplies",
      "outputs": [
        {
          "internalType": "uint256",
          "name": "",
          "type": "uint256"
        }
      ],
      "stateMutability": "view",
      "type": "function"
    },
    {
      "inputs": [],
      "name": "ctToken",
      "outputs": [
        {
          "internalType": "contract ConnectionToken",
          "name": "",
          "type": "address"
        }
      ],
      "stateMutability": "view",
      "type": "function"
    },
    {
      "inputs": [],
      "name": "defaultCommentFee",
      "outputs": [
        {
          "internalType": "uint256",
          "name": "",
          "type": "uint256"
        }
      ],
      "stateMutability": "view",
      "type": "function"
    },
    {
      "inputs": [],
      "name": "defaultTipAmount",
      "outputs": [
        {
          "internalType": "uint256",
          "name": "",
          "type": "uint256"
        }
      ],
      "stateMutability": "view",
      "type": "function"
    },
    {
      "inputs": [],
      "name": "feeReceiver",
      "outputs": [
        {
          "internalType": "address",
          "name": "",
          "type": "address"
        }
      ],
      "stateMutability": "view",
      "type": "function"
    },
    {
      "inputs": [
        {
          "internalType": "string",
          "name": "name",
          "type": "string"
        }
      ],
      "name": "getAddressByUsername",
      "outputs": [
        {
          "internalType": "address",
          "name": "",
          "type": "address"
        }
      ],
      "stateMutability": "view",
      "type": "function"
    },
    {
      "inputs": [],
      "name": "getAllMessageIds",
      "outputs": [
        {
          "internalType": "uint256",
          "name": "",
          "type": "uint256"
        }
      ],
      "stateMutability": "view",
      "type": "function"
    },
    {
      "inputs": [
        {
          "internalType": "uint256",
          "name": "commentId",
          "type": "uint256"
        }
      ],
      "name": "getComment",
      "outputs": [
        {
          "components": [
            {
              "internalType": "uint256",
              "name": "id",
              "type": "uint256"
            },
            {
              "internalType": "address",
              "name": "author",
              "type": "address"
            },
            {
              "internalType": "string",
              "name": "content",
              "type": "string"
            },
            {
              "internalType": "uint256",
              "name": "timestamp",
              "type": "uint256"
            },
            {
              "internalType": "uint256",
              "name": "likes",
              "type": "uint256"
            },
            {
              "internalType": "uint256",
              "name": "messageId",
              "type": "uint256"
            },
            {
              "internalType": "uint256",
              "name": "parentCommentId",
              "type": "uint256"
            }
          ],
          "internalType": "struct ConnectionUserRegistry.Comment",
          "name": "",
          "type": "tuple"
        }
      ],
      "stateMutability": "view",
      "type": "function"
    },
    {
      "inputs": [
        {
          "internalType": "enum ConnectionUserRegistry.AirdropPool",
          "name": "pool",
          "type": "uint8"
        }
      ],
      "name": "getEstimatedAirdrop",
      "outputs": [
        {
          "internalType": "uint256",
          "name": "amount",
          "type": "uint256"
        }
      ],
      "stateMutability": "view",
      "type": "function"
    },
    {
      "inputs": [
        {
          "internalType": "uint256",
          "name": "count",
          "type": "uint256"
        }
      ],
      "name": "getLatestMessages",
      "outputs": [
        {
          "components": [
            {
              "internalType": "uint256",
              "name": "id",
              "type": "uint256"
            },
            {
              "internalType": "address",
              "name": "author",
              "type": "address"
            },
            {
              "internalType": "string",
              "name": "content",
              "type": "string"
            },
            {
              "internalType": "uint256",
              "name": "timestamp",
              "type": "uint256"
            },
            {
              "internalType": "uint256",
              "name": "likes",
              "type": "uint256"
            }
          ],
          "internalType": "struct ConnectionUserRegistry.Message[]",
          "name": "",
          "type": "tuple[]"
        }
      ],
      "stateMutability": "view",
      "type": "function"
    },
    {
      "inputs": [
        {
          "internalType": "uint256",
          "name": "messageId",
          "type": "uint256"
        }
      ],
      "name": "getMessage",
      "outputs": [
        {
          "components": [
            {
              "internalType": "uint256",
              "name": "id",
              "type": "uint256"
            },
            {
              "internalType": "address",
              "name": "author",
              "type": "address"
            },
            {
              "internalType": "string",
              "name": "content",
              "type": "string"
            },
            {
              "internalType": "uint256",
              "name": "timestamp",
              "type": "uint256"
            },
            {
              "internalType": "uint256",
              "name": "likes",
              "type": "uint256"
            }
          ],
          "internalType": "struct ConnectionUserRegistry.Message",
          "name": "",
          "type": "tuple"
        }
      ],
      "stateMutability": "view",
      "type": "function"
    },
    {
      "inputs": [
        {
          "internalType": "address",
          "name": "user",
          "type": "address"
        }
      ],
      "name": "getUserMessageIds",
      "outputs": [
        {
          "internalType": "uint256[]",
          "name": "",
          "type": "uint256[]"
        }
      ],
      "stateMutability": "view",
      "type": "function"
    },
    {
      "inputs": [
        {
          "internalType": "address",
          "name": "user",
          "type": "address"
        }
      ],
      "name": "getUsernameByAddress",
      "outputs": [
        {
          "internalType": "string",
          "name": "",
          "type": "string"
        }
      ],
      "stateMutability": "view",
      "type": "function"
    },
    {
      "inputs": [
        {
          "internalType": "uint256",
          "name": "start",
          "type": "uint256"
        },
        {
          "internalType": "uint256",
          "name": "limit",
          "type": "uint256"
        }
      ],
      "name": "getUsersPaginated",
      "outputs": [
        {
          "internalType": "address[]",
          "name": "addrs",
          "type": "address[]"
        },
        {
          "internalType": "string[]",
          "name": "names",
          "type": "string[]"
        },
        {
          "internalType": "uint256[]",
          "name": "times",
          "type": "uint256[]"
        }
      ],
      "stateMutability": "view",
      "type": "function"
    },
    {
      "inputs": [
        {
          "internalType": "uint256",
          "name": "messageId",
          "type": "uint256"
        },
        {
          "internalType": "address",
          "name": "user",
          "type": "address"
        }
      ],
      "name": "hasLiked",
      "outputs": [
        {
          "internalType": "bool",
          "name": "",
          "type": "bool"
        }
      ],
      "stateMutability": "view",
      "type": "function"
    },
    {
      "inputs": [
        {
          "internalType": "uint256",
          "name": "messageId",
          "type": "uint256"
        }
      ],
      "name": "likeMessage",
      "outputs": [],
      "stateMutability": "payable",
      "type": "function"
    },
    {
      "inputs": [
        {
          "internalType": "uint256",
          "name": "",
          "type": "uint256"
        },
        {
          "internalType": "uint256",
          "name": "",
          "type": "uint256"
        }
      ],
      "name": "messageComments",
      "outputs": [
        {
          "internalType": "uint256",
          "name": "",
          "type": "uint256"
        }
      ],
      "stateMutability": "view",
      "type": "function"
    },
    {
      "inputs": [],
      "name": "messageCount",
      "outputs": [
        {
          "internalType": "uint256",
          "name": "",
          "type": "uint256"
        }
      ],
      "stateMutability": "view",
      "type": "function"
    },
    {
      "inputs": [],
      "name": "modificationFee",
      "outputs": [
        {
          "internalType": "uint256",
          "name": "",
          "type": "uint256"
        }
      ],
      "stateMutability": "view",
      "type": "function"
    },
    {
      "inputs": [
        {
          "internalType": "string",
          "name": "newUsername",
          "type": "string"
        }
      ],
      "name": "modifyUsername",
      "outputs": [],
      "stateMutability": "payable",
      "type": "function"
    },
    {
      "inputs": [],
      "name": "owner",
      "outputs": [
        {
          "internalType": "address",
          "name": "",
          "type": "address"
        }
      ],
      "stateMutability": "view",
      "type": "function"
    },
    {
      "inputs": [
        {
          "internalType": "string",
          "name": "content",
          "type": "string"
        }
      ],
      "name": "postMessage",
      "outputs": [],
      "stateMutability": "nonpayable",
      "type": "function"
    },
    {
      "inputs": [
        {
          "internalType": "string",
          "name": "username",
          "type": "string"
        }
      ],
      "name": "registerUsername",
      "outputs": [],
      "stateMutability": "payable",
      "type": "function"
    },
    {
      "inputs": [],
      "name": "registrationFee",
      "outputs": [
        {
          "internalType": "uint256",
          "name": "",
          "type": "uint256"
        }
      ],
      "stateMutability": "view",
      "type": "function"
    },
    {
      "inputs": [],
      "name": "renounceOwnership",
      "outputs": [],
      "stateMutability": "nonpayable",
      "type": "function"
    },
    {
      "inputs": [
        {
          "internalType": "uint256",
          "name": "_fee",
          "type": "uint256"
        }
      ],
      "name": "setDefaultCommentFee",
      "outputs": [],
      "stateMutability": "nonpayable",
      "type": "function"
    },
    {
      "inputs": [
        {
          "internalType": "uint256",
          "name": "_tip",
          "type": "uint256"
        }
      ],
      "name": "setDefaultTipAmount",
      "outputs": [],
      "stateMutability": "nonpayable",
      "type": "function"
    },
    {
      "inputs": [
        {
          "internalType": "address",
          "name": "newReceiver",
          "type": "address"
        }
      ],
      "name": "setFeeReceiver",
      "outputs": [],
      "stateMutability": "nonpayable",
      "type": "function"
    },
    {
      "inputs": [
        {
          "internalType": "uint256",
          "name": "fee",
          "type": "uint256"
        }
      ],
      "name": "setModificationFee",
      "outputs": [],
      "stateMutability": "nonpayable",
      "type": "function"
    },
    {
      "inputs": [
        {
          "internalType": "uint256",
          "name": "fee",
          "type": "uint256"
        }
      ],
      "name": "setRegistrationFee",
      "outputs": [],
      "stateMutability": "nonpayable",
      "type": "function"
    },
    {
      "inputs": [
        {
          "internalType": "uint256",
          "name": "_commentFee",
          "type": "uint256"
        }
      ],
      "name": "setUserCommentFee",
      "outputs": [],
      "stateMutability": "nonpayable",
      "type": "function"
    },
    {
      "inputs": [
        {
          "internalType": "enum ConnectionUserRegistry.AirdropPool",
          "name": "pool",
          "type": "uint8"
        },
        {
          "internalType": "uint256",
          "name": "totalCT",
          "type": "uint256"
        }
      ],
      "name": "startNewAirdropCycle",
      "outputs": [],
      "stateMutability": "nonpayable",
      "type": "function"
    },
    {
      "inputs": [],
      "name": "totalUsers",
      "outputs": [
        {
          "internalType": "uint256",
          "name": "",
          "type": "uint256"
        }
      ],
      "stateMutability": "view",
      "type": "function"
    },
    {
      "inputs": [
        {
          "internalType": "address",
          "name": "newOwner",
          "type": "address"
        }
      ],
      "name": "transferOwnership",
      "outputs": [],
      "stateMutability": "nonpayable",
      "type": "function"
    },
    {
      "inputs": [
        {
          "internalType": "uint256",
          "name": "",
          "type": "uint256"
        },
        {
          "internalType": "address",
          "name": "",
          "type": "address"
        }
      ],
      "name": "userCommentLikes",
      "outputs": [
        {
          "internalType": "bool",
          "name": "",
          "type": "bool"
        }
      ],
      "stateMutability": "view",
      "type": "function"
    },
    {
      "inputs": [
        {
          "internalType": "uint256",
          "name": "",
          "type": "uint256"
        },
        {
          "internalType": "address",
          "name": "",
          "type": "address"
        }
      ],
      "name": "userLikes",
      "outputs": [
        {
          "internalType": "bool",
          "name": "",
          "type": "bool"
        }
      ],
      "stateMutability": "view",
      "type": "function"
    },
    {
      "inputs": [
        {
          "internalType": "address",
          "name": "",
          "type": "address"
        },
        {
          "internalType": "uint256",
          "name": "",
          "type": "uint256"
        }
      ],
      "name": "userMessages",
      "outputs": [
        {
          "internalType": "uint256",
          "name": "",
          "type": "uint256"
        }
      ],
      "stateMutability": "view",
      "type": "function"
    },
    {
      "inputs": [
        {
          "internalType": "bytes32",
          "name": "",
          "type": "bytes32"
        }
      ],
      "name": "usernameHashToAddress",
      "outputs": [
        {
          "internalType": "address",
          "name": "",
          "type": "address"
        }
      ],
      "stateMutability": "view",
      "type": "function"
    },
    {
      "inputs": [
        {
          "internalType": "bytes32",
          "name": "",
          "type": "bytes32"
        }
      ],
      "name": "usernameHashToString",
      "outputs": [
        {
          "internalType": "string",
          "name": "",
          "type": "string"
        }
      ],
      "stateMutability": "view",
      "type": "function"
    },
    {
      "inputs": [
        {
          "internalType": "address",
          "name": "",
          "type": "address"
        }
      ],
      "name": "users",
      "outputs": [
        {
          "internalType": "bytes32",
          "name": "usernameHash",
          "type": "bytes32"
        },
        {
          "internalType": "uint256",
          "name": "registrationTime",
          "type": "uint256"
        },
        {
          "internalType": "uint256",
          "name": "commentFee",
          "type": "uint256"
        }
      ],
      "stateMutability": "view",
      "type": "function"
    },
    {
      "inputs": [],
      "name": "withdrawFee",
      "outputs": [],
      "stateMutability": "nonpayable",
      "type": "function"
    }
  ],
  "bytecode": "0x60a060405234801561001057600080fd5b50604051615fc8380380615fc8833981810160405281019061003291906102ad565b33600073ffffffffffffffffffffffffffffffffffffffff168173ffffffffffffffffffffffffffffffffffffffff16036100a55760006040517f1e4fbdf700000000000000000000000000000000000000000000000000000000815260040161009c9190610337565b60405180910390fd5b6100b48161015060201b60201c565b508473ffffffffffffffffffffffffffffffffffffffff1660808173ffffffffffffffffffffffffffffffffffffffff16815250508360058190555082600681905550816007819055508060088190555033600960006101000a81548173ffffffffffffffffffffffffffffffffffffffff021916908373ffffffffffffffffffffffffffffffffffffffff1602179055505050505050610352565b60008060009054906101000a900473ffffffffffffffffffffffffffffffffffffffff169050816000806101000a81548173ffffffffffffffffffffffffffffffffffffffff021916908373ffffffffffffffffffffffffffffffffffffffff1602179055508173ffffffffffffffffffffffffffffffffffffffff168173ffffffffffffffffffffffffffffffffffffffff167f8be0079c531659141344cd1fd0a4f28419497f9722a3daafe3b4186f6b6457e060405160405180910390a35050565b600080fd5b600073ffffffffffffffffffffffffffffffffffffffff82169050919050565b600061024482610219565b9050919050565b61025481610239565b811461025f57600080fd5b50565b6000815190506102718161024b565b92915050565b6000819050919050565b61028a81610277565b811461029557600080fd5b50565b6000815190506102a781610281565b92915050565b600080600080600060a086880312156102c9576102c8610214565b5b60006102d788828901610262565b95505060206102e888828901610298565b94505060406102f988828901610298565b935050606061030a88828901610298565b925050608061031b88828901610298565b9150509295509295909350565b61033181610239565b82525050565b600060208201905061034c6000830184610328565b92915050565b608051615c4661038260003960008181611ae10152818161270d015281816137e20152613c2a0152615c466000f3fe6080604052600436106102ae5760003560e01c806381e6b76d11610175578063b3f00674116100dc578063d9a0873111610095578063ee442c2a1161006f578063ee442c2a14610b4a578063efdcd97414610b87578063f2fde38b14610bb0578063ffe3185714610bd9576102ae565b8063d9a0873114610ab9578063e941fa7814610af6578063ed1a998d14610b0d576102ae565b8063b3f00674146109a7578063bff1f9e1146109d2578063c320c727146109fd578063c7a61a1114610a26578063d26aa5de14610a67578063d5a3bbca14610a90576102ae565b806399a0cf651161012e57806399a0cf65146108545780639b88c806146108705780639ca654be146108b15780639e19a1ca146108ee578063a2bdedf41461092b578063a87430ba14610968576102ae565b806381e6b76d1461072057806386f79edb146107495780638da5cb5b146107865780638fb7092c146107b15780639428cda3146107ee57806397d687b21461082b576102ae565b80633dbcc8d1116102195780636322961d116101d25780636322961d146105e657806363dc0bb3146106235780636630f88f14610666578063715018a61461068f578063742d9fcc146106a6578063775dbe55146106e3576102ae565b80633dbcc8d1146104cf5780634baeb4db146104fa5780634d6fad09146105165780634dd8f0c214610541578063505163c81461056a57806359be72ac146105a9576102ae565b80631cd896c11161026b5780631cd896c1146103c757806320b52ee4146103f2578063228114af1461040e5780633388bf341461044b57806336a941341461047657806338a0684c14610492576102ae565b80630800e300146102b35780630e45b00b146102f057806312c3f7541461031b57806314c44e0914610346578063155b1d98146103715780631858e6781461039c575b600080fd5b3480156102bf57600080fd5b506102da60048036038101906102d59190613e25565b610c04565b6040516102e79190613fce565b60405180910390f35b3480156102fc57600080fd5b50610305610da1565b6040516103129190613fff565b60405180910390f35b34801561032757600080fd5b50610330610da9565b60405161033d9190613fff565b60405180910390f35b34801561035257600080fd5b5061035b610daf565b6040516103689190613fff565b60405180910390f35b34801561037d57600080fd5b50610386610db5565b6040516103939190613fff565b60405180910390f35b3480156103a857600080fd5b506103b1610dba565b6040516103be9190613fff565b60405180910390f35b3480156103d357600080fd5b506103dc610dc7565b6040516103e99190613fff565b60405180910390f35b61040c6004803603810190610407919061414f565b610dcc565b005b34801561041a57600080fd5b50610435600480360381019061043091906141f4565b61144f565b6040516104429190614230565b60405180910390f35b34801561045757600080fd5b50610460611482565b60405161046d9190613fff565b60405180910390f35b610490600480360381019061048b919061424b565b611488565b005b34801561049e57600080fd5b506104b960048036038101906104b49190614294565b611710565b6040516104c69190613fff565b60405180910390f35b3480156104db57600080fd5b506104e4611741565b6040516104f19190613fff565b60405180910390f35b610514600480360381019061050f9190613e25565b61174e565b005b34801561052257600080fd5b5061052b611adf565b6040516105389190614333565b60405180910390f35b34801561054d57600080fd5b5061056860048036038101906105639190613e25565b611b03565b005b34801561057657600080fd5b50610591600480360381019061058c9190614294565b611b15565b6040516105a09392919061456e565b60405180910390f35b3480156105b557600080fd5b506105d060048036038101906105cb91906145e6565b611f7d565b6040516105dd9190614641565b60405180910390f35b3480156105f257600080fd5b5061060d6004803603810190610608919061424b565b611fac565b60405161061a9190614230565b60405180910390f35b34801561062f57600080fd5b5061064a60048036038101906106459190613e25565b611ff0565b60405161065d97969594939291906146a6565b60405180910390f35b34801561067257600080fd5b5061068d6004803603810190610688919061424b565b6120ea565b005b34801561069b57600080fd5b506106a461237d565b005b3480156106b257600080fd5b506106cd60048036038101906106c89190614294565b612391565b6040516106da9190613fff565b60405180910390f35b3480156106ef57600080fd5b5061070a600480360381019061070591906141f4565b6123c2565b604051610717919061471c565b60405180910390f35b34801561072c57600080fd5b5061074760048036038101906107429190613e25565b612462565b005b34801561075557600080fd5b50610770600480360381019061076b9190613e25565b612474565b60405161077d91906147b4565b60405180910390f35b34801561079257600080fd5b5061079b6125fd565b6040516107a89190614230565b60405180910390f35b3480156107bd57600080fd5b506107d860048036038101906107d391906145e6565b612626565b6040516107e59190614641565b60405180910390f35b3480156107fa57600080fd5b50610815600480360381019061081091906147d6565b61268e565b6040516108229190613fff565b60405180910390f35b34801561083757600080fd5b50610852600480360381019061084d919061483b565b6126bf565b005b61086e6004803603810190610869919061424b565b6128a8565b005b34801561087c57600080fd5b5061089760048036038101906108929190613e25565b612c1a565b6040516108a895949392919061487b565b60405180910390f35b3480156108bd57600080fd5b506108d860048036038101906108d391906148d5565b612d08565b6040516108e59190613fff565b60405180910390f35b3480156108fa57600080fd5b5061091560048036038101906109109190613e25565b612d1a565b6040516109229190614a3a565b60405180910390f35b34801561093757600080fd5b50610952600480360381019061094d9190613e25565b612f8f565b60405161095f9190614230565b60405180910390f35b34801561097457600080fd5b5061098f600480360381019061098a9190614a5c565b612fce565b60405161099e93929190614a98565b60405180910390f35b3480156109b357600080fd5b506109bc612ff8565b6040516109c99190614230565b60405180910390f35b3480156109de57600080fd5b506109e761301e565b6040516109f49190613fff565b60405180910390f35b348015610a0957600080fd5b50610a246004803603810190610a1f9190613e25565b61302b565b005b348015610a3257600080fd5b50610a4d6004803603810190610a4891906148d5565b61303d565b604051610a5e959493929190614acf565b60405180910390f35b348015610a7357600080fd5b50610a8e6004803603810190610a899190613e25565b613073565b005b348015610a9c57600080fd5b50610ab76004803603810190610ab29190613e25565b613085565b005b348015610ac557600080fd5b50610ae06004803603810190610adb91906145e6565b6131a2565b604051610aed9190614641565b60405180910390f35b348015610b0257600080fd5b50610b0b6131d1565b005b348015610b1957600080fd5b50610b346004803603810190610b2f9190614a5c565b613428565b604051610b41919061471c565b60405180910390f35b348015610b5657600080fd5b50610b716004803603810190610b6c9190614a5c565b613535565b604051610b7e9190614b22565b60405180910390f35b348015610b9357600080fd5b50610bae6004803603810190610ba99190614a5c565b6135cc565b005b348015610bbc57600080fd5b50610bd76004803603810190610bd29190614a5c565b613703565b005b348015610be557600080fd5b50610bee613789565b604051610bfb9190613fff565b60405180910390f35b610c0c613ce6565b600c805490508210610c53576040517f08c379a0000000000000000000000000000000000000000000000000000000008152600401610c4a90614b90565b60405180910390fd5b600c8281548110610c6757610c66614bb0565b5b90600052602060002090600702016040518060e0016040529081600082015481526020016001820160009054906101000a900473ffffffffffffffffffffffffffffffffffffffff1673ffffffffffffffffffffffffffffffffffffffff1673ffffffffffffffffffffffffffffffffffffffff168152602001600282018054610cf090614c0e565b80601f0160208091040260200160405190810160405280929190818152602001828054610d1c90614c0e565b8015610d695780601f10610d3e57610100808354040283529160200191610d69565b820191906000526020600020905b815481529060010190602001808311610d4c57829003601f168201915b505050505081526020016003820154815260200160048201548152602001600582015481526020016006820154815250509050919050565b630784ce0081565b60065481565b60055481565b600381565b6000600b80549050905090565b602081565b6000600160003373ffffffffffffffffffffffffffffffffffffffff1673ffffffffffffffffffffffffffffffffffffffff1681526020019081526020016000206001015403610e51576040517f08c379a0000000000000000000000000000000000000000000000000000000008152600401610e4890614c8b565b60405180910390fd5b600b805490508310610e98576040517f08c379a0000000000000000000000000000000000000000000000000000000008152600401610e8f90614cf7565b60405180910390fd5b60008151118015610eac5750610118815111155b610eeb576040517f08c379a0000000000000000000000000000000000000000000000000000000008152600401610ee290614d63565b60405180910390fd5b6000600b8481548110610f0157610f00614bb0565b5b906000526020600020906005020190506000600160008360010160009054906101000a900473ffffffffffffffffffffffffffffffffffffffff1673ffffffffffffffffffffffffffffffffffffffff1673ffffffffffffffffffffffffffffffffffffffff1681526020019081526020016000206002015490506000808211610f8d57600754610f8f565b815b90506000600e600088815260200190815260200160002080549050148061100657508260010160009054906101000a900473ffffffffffffffffffffffffffffffffffffffff1673ffffffffffffffffffffffffffffffffffffffff163373ffffffffffffffffffffffffffffffffffffffff1614155b1561114c578034101561104e576040517f08c379a000000000000000000000000000000000000000000000000000000000815260040161104590614dcf565b60405180910390fd5b600081111561114757600060646050346110689190614e1e565b6110729190614e8f565b905060008460010160009054906101000a900473ffffffffffffffffffffffffffffffffffffffff1673ffffffffffffffffffffffffffffffffffffffff16826040516110be90614ef1565b60006040518083038185875af1925050503d80600081146110fb576040519150601f19603f3d011682016040523d82523d6000602084013e611100565b606091505b5050905080611144576040517f08c379a000000000000000000000000000000000000000000000000000000000815260040161113b90614f52565b60405180910390fd5b50505b611190565b6000341461118f576040517f08c379a000000000000000000000000000000000000000000000000000000000815260040161118690614fbe565b60405180910390fd5b5b6000851461124757600c8054905085106111df576040517f08c379a00000000000000000000000000000000000000000000000000000000081526004016111d69061502a565b60405180910390fd5b85600c86815481106111f4576111f3614bb0565b5b90600052602060002090600702016005015414611246576040517f08c379a000000000000000000000000000000000000000000000000000000000815260040161123d90615096565b60405180910390fd5b5b6000600c80549050905060006040518060e001604052808381526020013373ffffffffffffffffffffffffffffffffffffffff16815260200187815260200142815260200160008152602001898152602001888152509050600c8190806001815401808255809150506001900390600052602060002090600702016000909190919091506000820151816000015560208201518160010160006101000a81548173ffffffffffffffffffffffffffffffffffffffff021916908373ffffffffffffffffffffffffffffffffffffffff16021790555060408201518160020190816113319190615258565b50606082015181600301556080820151816004015560a0820151816005015560c082015181600601555050600087036113a357600e60008981526020019081526020016000208290806001815401808255809150506001900390600052602060002001600090919091909150556113de565b600f60008881526020019081526020016000208290806001815401808255809150506001900390600052602060002001600090919091909150555b60075434106113f3576113f260013461378f565b5b873373ffffffffffffffffffffffffffffffffffffffff16837f0787f7b14358375cd4ea69957646c8c250627f2f80733ea30c22af16c4c43e018a8a60405161143d92919061532a565b60405180910390a45050505050505050565b60026020528060005260406000206000915054906101000a900473ffffffffffffffffffffffffffffffffffffffff1681565b60085481565b6005543410156114cd576040517f08c379a00000000000000000000000000000000000000000000000000000000081526004016114c4906153a6565b60405180910390fd5b6000600160003373ffffffffffffffffffffffffffffffffffffffff1673ffffffffffffffffffffffffffffffffffffffff1681526020019081526020016000206001015414611552576040517f08c379a000000000000000000000000000000000000000000000000000000000815260040161154990615412565b60405180910390fd5b600061155d826138fa565b905060405180606001604052808281526020014281526020016000815250600160003373ffffffffffffffffffffffffffffffffffffffff1673ffffffffffffffffffffffffffffffffffffffff168152602001908152602001600020600082015181600001556020820151816001015560408201518160020155905050336002600083815260200190815260200160002060006101000a81548173ffffffffffffffffffffffffffffffffffffffff021916908373ffffffffffffffffffffffffffffffffffffffff1602179055508160036000838152602001908152602001600020908161164d9190615258565b506004339080600181540180825580915050600190039060005260206000200160009091909190916101000a81548173ffffffffffffffffffffffffffffffffffffffff021916908373ffffffffffffffffffffffffffffffffffffffff1602179055506116bc60003461378f565b3373ffffffffffffffffffffffffffffffffffffffff167f0a09fa67e91ea818e53d712f63caf32f685bed0c54acdb1cebf8f63a36b454aa8334604051611704929190615432565b60405180910390a25050565b600e602052816000526040600020818154811061172c57600080fd5b90600052602060002001600091509150505481565b6000600b80549050905090565b600b805490508110611795576040517f08c379a000000000000000000000000000000000000000000000000000000000815260040161178c90614cf7565b60405180910390fd5b6000600b82815481106117ab576117aa614bb0565b5b906000526020600020906005020190503373ffffffffffffffffffffffffffffffffffffffff168160010160009054906101000a900473ffffffffffffffffffffffffffffffffffffffff1673ffffffffffffffffffffffffffffffffffffffff160361184d576040517f08c379a0000000000000000000000000000000000000000000000000000000008152600401611844906154ae565b60405180910390fd5b6010600083815260200190815260200160002060003373ffffffffffffffffffffffffffffffffffffffff1673ffffffffffffffffffffffffffffffffffffffff16815260200190815260200160002060009054906101000a900460ff16156118eb576040517f08c379a00000000000000000000000000000000000000000000000000000000081526004016118e29061551a565b60405180910390fd5b60016010600084815260200190815260200160002060003373ffffffffffffffffffffffffffffffffffffffff1673ffffffffffffffffffffffffffffffffffffffff16815260200190815260200160002060006101000a81548160ff0219169083151502179055508060040160008154809291906119699061553a565b91905055506000341115611a7157600060646050346119889190614e1e565b6119929190614e8f565b90506000811115611a6f5760008260010160009054906101000a900473ffffffffffffffffffffffffffffffffffffffff1673ffffffffffffffffffffffffffffffffffffffff16826040516119e790614ef1565b60006040518083038185875af1925050503d8060008114611a24576040519150601f19603f3d011682016040523d82523d6000602084013e611a29565b606091505b5050905080611a6d576040517f08c379a0000000000000000000000000000000000000000000000000000000008152600401611a64906155ce565b60405180910390fd5b505b505b6008543410611a8657611a8560023461378f565b5b3373ffffffffffffffffffffffffffffffffffffffff16827f8de3d220d23c0fd374137c3269a35b2b1a3f836cba9d13975471ac57f551ca7e836004015434604051611ad39291906155ee565b60405180910390a35050565b7f000000000000000000000000000000000000000000000000000000000000000081565b611b0b613a0b565b8060088190555050565b60608060606004805490508510611c1457600067ffffffffffffffff811115611b4157611b40614024565b5b604051908082528060200260200182016040528015611b6f5781602001602082028036833780820191505090505b50600067ffffffffffffffff811115611b8b57611b8a614024565b5b604051908082528060200260200182016040528015611bbe57816020015b6060815260200190600190039081611ba95790505b50600067ffffffffffffffff811115611bda57611bd9614024565b5b604051908082528060200260200182016040528015611c085781602001602082028036833780820191505090505b50925092509250611f76565b60008486611c229190615617565b9050600480549050811115611c3a5760048054905090505b8581611c46919061564b565b67ffffffffffffffff811115611c5f57611c5e614024565b5b604051908082528060200260200182016040528015611c8d5781602001602082028036833780820191505090505b5093508581611c9c919061564b565b67ffffffffffffffff811115611cb557611cb4614024565b5b604051908082528060200260200182016040528015611ce857816020015b6060815260200190600190039081611cd35790505b5092508581611cf7919061564b565b67ffffffffffffffff811115611d1057611d0f614024565b5b604051908082528060200260200182016040528015611d3e5781602001602082028036833780820191505090505b50915060008690505b81811015611f7357600060048281548110611d6557611d64614bb0565b5b9060005260206000200160009054906101000a900473ffffffffffffffffffffffffffffffffffffffff1690506000600160008373ffffffffffffffffffffffffffffffffffffffff1673ffffffffffffffffffffffffffffffffffffffff16815260200190815260200160002060000154905081878a85611de7919061564b565b81518110611df857611df7614bb0565b5b602002602001019073ffffffffffffffffffffffffffffffffffffffff16908173ffffffffffffffffffffffffffffffffffffffff1681525050600360008281526020019081526020016000208054611e5090614c0e565b80601f0160208091040260200160405190810160405280929190818152602001828054611e7c90614c0e565b8015611ec95780601f10611e9e57610100808354040283529160200191611ec9565b820191906000526020600020905b815481529060010190602001808311611eac57829003601f168201915b5050505050868a85611edb919061564b565b81518110611eec57611eeb614bb0565b5b6020026020010181905250600160008373ffffffffffffffffffffffffffffffffffffffff1673ffffffffffffffffffffffffffffffffffffffff16815260200190815260200160002060010154858a85611f47919061564b565b81518110611f5857611f57614bb0565b5b60200260200101818152505050508080600101915050611d47565b50505b9250925092565b60106020528160005260406000206020528060005260406000206000915091509054906101000a900460ff1681565b6000600260008380519060200120815260200190815260200160002060009054906101000a900473ffffffffffffffffffffffffffffffffffffffff169050919050565b600c818154811061200057600080fd5b90600052602060002090600702016000915090508060000154908060010160009054906101000a900473ffffffffffffffffffffffffffffffffffffffff169080600201805461204f90614c0e565b80601f016020809104026020016040519081016040528092919081815260200182805461207b90614c0e565b80156120c85780601f1061209d576101008083540402835291602001916120c8565b820191906000526020600020905b8154815290600101906020018083116120ab57829003601f168201915b5050505050908060030154908060040154908060050154908060060154905087565b6000600160003373ffffffffffffffffffffffffffffffffffffffff1673ffffffffffffffffffffffffffffffffffffffff168152602001908152602001600020600101540361216f576040517f08c379a000000000000000000000000000000000000000000000000000000000815260040161216690614c8b565b60405180910390fd5b600081511180156121835750610118815111155b6121c2576040517f08c379a00000000000000000000000000000000000000000000000000000000081526004016121b990614d63565b60405180910390fd5b6000600b80549050905060006040518060a001604052808381526020013373ffffffffffffffffffffffffffffffffffffffff16815260200184815260200142815260200160008152509050600b8190806001815401808255809150506001900390600052602060002090600502016000909190919091506000820151816000015560208201518160010160006101000a81548173ffffffffffffffffffffffffffffffffffffffff021916908373ffffffffffffffffffffffffffffffffffffffff16021790555060408201518160020190816122a09190615258565b5060608201518160030155608082015181600401555050600d60003373ffffffffffffffffffffffffffffffffffffffff1673ffffffffffffffffffffffffffffffffffffffff1681526020019081526020016000208290806001815401808255809150506001900390600052602060002001600090919091909150556123296001600061378f565b3373ffffffffffffffffffffffffffffffffffffffff16827f16effde6b8c5f78279aca5974057ff6b6fd8c9ab5e96994c7f1b62cbfcbbd78b85604051612370919061471c565b60405180910390a3505050565b612385613a0b565b61238f6000613a92565b565b600f60205281600052604060002081815481106123ad57600080fd5b90600052602060002001600091509150505481565b600360205280600052604060002060009150905080546123e190614c0e565b80601f016020809104026020016040519081016040528092919081815260200182805461240d90614c0e565b801561245a5780601f1061242f5761010080835404028352916020019161245a565b820191906000526020600020905b81548152906001019060200180831161243d57829003601f168201915b505050505081565b61246a613a0b565b8060068190555050565b61247c613d39565b600b8054905082106124c3576040517f08c379a00000000000000000000000000000000000000000000000000000000081526004016124ba90614cf7565b60405180910390fd5b600b82815481106124d7576124d6614bb0565b5b90600052602060002090600502016040518060a0016040529081600082015481526020016001820160009054906101000a900473ffffffffffffffffffffffffffffffffffffffff1673ffffffffffffffffffffffffffffffffffffffff1673ffffffffffffffffffffffffffffffffffffffff16815260200160028201805461256090614c0e565b80601f016020809104026020016040519081016040528092919081815260200182805461258c90614c0e565b80156125d95780601f106125ae576101008083540402835291602001916125d9565b820191906000526020600020905b8154815290600101906020018083116125bc57829003601f168201915b50505050508152602001600382015481526020016004820154815250509050919050565b60008060009054906101000a900473ffffffffffffffffffffffffffffffffffffffff16905090565b60006010600084815260200190815260200160002060008373ffffffffffffffffffffffffffffffffffffffff1673ffffffffffffffffffffffffffffffffffffffff16815260200190815260200160002060009054906101000a900460ff16905092915050565b600d60205281600052604060002081815481106126aa57600080fd5b90600052602060002001600091509150505481565b6126c7613a0b565b6000811161270a576040517f08c379a0000000000000000000000000000000000000000000000000000000008152600401612701906156cb565b60405180910390fd5b807f000000000000000000000000000000000000000000000000000000000000000073ffffffffffffffffffffffffffffffffffffffff166370a08231306040518263ffffffff1660e01b81526004016127649190614230565b602060405180830381865afa158015612781573d6000803e3d6000fd5b505050506040513d601f19601f820116820180604052508101906127a59190615700565b10156127e6576040517f08c379a00000000000000000000000000000000000000000000000000000000081526004016127dd90615779565b60405180910390fd5b6000600a60008460028111156127ff576127fe615799565b5b600281111561281157612810615799565b5b81526020019081526020016000209050428160000181905550630784ce004261283a9190615617565b8160010181905550818160020181905550600081600301819055504281600401819055507fb7c06c7611916bf804d0480569de0a33ebe958a0712ac33a5ad897085d94fc8e83826000015483600101548560405161289b9493929190615810565b60405180910390a1505050565b6000600160003373ffffffffffffffffffffffffffffffffffffffff1673ffffffffffffffffffffffffffffffffffffffff168152602001908152602001600020600101540361292d576040517f08c379a0000000000000000000000000000000000000000000000000000000008152600401612924906158a1565b60405180910390fd5b600654341015612972576040517f08c379a0000000000000000000000000000000000000000000000000000000008152600401612969906153a6565b60405180910390fd5b600060036000600160003373ffffffffffffffffffffffffffffffffffffffff1673ffffffffffffffffffffffffffffffffffffffff16815260200190815260200160002060000154815260200190815260200160002080546129d490614c0e565b80601f0160208091040260200160405190810160405280929190818152602001828054612a0090614c0e565b8015612a4d5780601f10612a2257610100808354040283529160200191612a4d565b820191906000526020600020905b815481529060010190602001808311612a3057829003601f168201915b505050505090506000600160003373ffffffffffffffffffffffffffffffffffffffff1673ffffffffffffffffffffffffffffffffffffffff1681526020019081526020016000206000015490506000612aa6846138fa565b90506002600083815260200190815260200160002060006101000a81549073ffffffffffffffffffffffffffffffffffffffff0219169055600360008381526020019081526020016000206000612afd9190613d7e565b80600160003373ffffffffffffffffffffffffffffffffffffffff1673ffffffffffffffffffffffffffffffffffffffff16815260200190815260200160002060000181905550336002600083815260200190815260200160002060006101000a81548173ffffffffffffffffffffffffffffffffffffffff021916908373ffffffffffffffffffffffffffffffffffffffff16021790555083600360008381526020019081526020016000209081612bb69190615258565b50612bc260003461378f565b3373ffffffffffffffffffffffffffffffffffffffff167f8a2b28ab3f563bd1ac17a48f0f701c3b6a857357bec60220992c2608c5f2c700848634604051612c0c939291906158c1565b60405180910390a250505050565b600b8181548110612c2a57600080fd5b90600052602060002090600502016000915090508060000154908060010160009054906101000a900473ffffffffffffffffffffffffffffffffffffffff1690806002018054612c7990614c0e565b80601f0160208091040260200160405190810160405280929190818152602001828054612ca590614c0e565b8015612cf25780601f10612cc757610100808354040283529160200191612cf2565b820191906000526020600020905b815481529060010190602001808311612cd557829003601f168201915b5050505050908060030154908060040154905085565b6000612d1382613b56565b9050919050565b60606000600b80549050905060008103612d8b57600067ffffffffffffffff811115612d4957612d48614024565b5b604051908082528060200260200182016040528015612d8257816020015b612d6f613d39565b815260200190600190039081612d675790505b50915050612f8a565b6000839050600082851115612da65782915060009050612db5565b8483612db2919061564b565b90505b60008267ffffffffffffffff811115612dd157612dd0614024565b5b604051908082528060200260200182016040528015612e0a57816020015b612df7613d39565b815260200190600190039081612def5790505b50905060005b83811015612f8157600b8184612e269190615617565b81548110612e3757612e36614bb0565b5b90600052602060002090600502016040518060a0016040529081600082015481526020016001820160009054906101000a900473ffffffffffffffffffffffffffffffffffffffff1673ffffffffffffffffffffffffffffffffffffffff1673ffffffffffffffffffffffffffffffffffffffff168152602001600282018054612ec090614c0e565b80601f0160208091040260200160405190810160405280929190818152602001828054612eec90614c0e565b8015612f395780601f10612f0e57610100808354040283529160200191612f39565b820191906000526020600020905b815481529060010190602001808311612f1c57829003601f168201915b5050505050815260200160038201548152602001600482015481525050828281518110612f6957612f68614bb0565b5b60200260200101819052508080600101915050612e10565b50809450505050505b919050565b60048181548110612f9f57600080fd5b906000526020600020016000915054906101000a900473ffffffffffffffffffffffffffffffffffffffff1681565b60016020528060005260406000206000915090508060000154908060010154908060020154905083565b600960009054906101000a900473ffffffffffffffffffffffffffffffffffffffff1681565b6000600480549050905090565b613033613a0b565b8060058190555050565b600a6020528060005260406000206000915090508060000154908060010154908060020154908060030154908060040154905085565b61307b613a0b565b8060078190555050565b6000600160003373ffffffffffffffffffffffffffffffffffffffff1673ffffffffffffffffffffffffffffffffffffffff168152602001908152602001600020600101540361310a576040517f08c379a000000000000000000000000000000000000000000000000000000000815260040161310190614c8b565b60405180910390fd5b80600160003373ffffffffffffffffffffffffffffffffffffffff1673ffffffffffffffffffffffffffffffffffffffff168152602001908152602001600020600201819055503373ffffffffffffffffffffffffffffffffffffffff167f49b65d436fe4069bb1946f0ab3b1f78259ccdb660e1f18734a917b039cf20b04826040516131979190613fff565b60405180910390a250565b60116020528160005260406000206020528060005260406000206000915091509054906101000a900460ff1681565b6131d96125fd565b73ffffffffffffffffffffffffffffffffffffffff163373ffffffffffffffffffffffffffffffffffffffff16148061325f5750600960009054906101000a900473ffffffffffffffffffffffffffffffffffffffff1673ffffffffffffffffffffffffffffffffffffffff163373ffffffffffffffffffffffffffffffffffffffff16145b61329e576040517f08c379a000000000000000000000000000000000000000000000000000000000815260040161329590615952565b60405180910390fd5b6000479050600081116132e6576040517f08c379a00000000000000000000000000000000000000000000000000000000081526004016132dd906159be565b60405180910390fd5b600960009054906101000a900473ffffffffffffffffffffffffffffffffffffffff1673ffffffffffffffffffffffffffffffffffffffff167f78473f3f373f7673597f4f0fa5873cb4d375fea6d4339ad6b56dbd411513cb3f8260405161334e9190613fff565b60405180910390a26000600960009054906101000a900473ffffffffffffffffffffffffffffffffffffffff1673ffffffffffffffffffffffffffffffffffffffff168260405161339e90614ef1565b60006040518083038185875af1925050503d80600081146133db576040519150601f19603f3d011682016040523d82523d6000602084013e6133e0565b606091505b5050905080613424576040517f08c379a000000000000000000000000000000000000000000000000000000000815260040161341b90615a2a565b60405180910390fd5b5050565b60606000600160008473ffffffffffffffffffffffffffffffffffffffff1673ffffffffffffffffffffffffffffffffffffffff1681526020019081526020016000206000015490506000801b811461351c5760036000828152602001908152602001600020805461349990614c0e565b80601f01602080910402602001604051908101604052809291908181526020018280546134c590614c0e565b80156135125780601f106134e757610100808354040283529160200191613512565b820191906000526020600020905b8154815290600101906020018083116134f557829003601f168201915b505050505061352d565b604051806020016040528060008152505b915050919050565b6060600d60008373ffffffffffffffffffffffffffffffffffffffff1673ffffffffffffffffffffffffffffffffffffffff1681526020019081526020016000208054806020026020016040519081016040528092919081815260200182805480156135c057602002820191906000526020600020905b8154815260200190600101908083116135ac575b50505050509050919050565b6135d4613a0b565b600073ffffffffffffffffffffffffffffffffffffffff168173ffffffffffffffffffffffffffffffffffffffff1603613643576040517f08c379a000000000000000000000000000000000000000000000000000000000815260040161363a90615a96565b60405180910390fd5b8073ffffffffffffffffffffffffffffffffffffffff16600960009054906101000a900473ffffffffffffffffffffffffffffffffffffffff1673ffffffffffffffffffffffffffffffffffffffff167fa4b009cc442411b602eaf94bc0579b6abdb8fd90b4ef5b9426e270038906bd0360405160405180910390a380600960006101000a81548173ffffffffffffffffffffffffffffffffffffffff021916908373ffffffffffffffffffffffffffffffffffffffff16021790555050565b61370b613a0b565b600073ffffffffffffffffffffffffffffffffffffffff168173ffffffffffffffffffffffffffffffffffffffff160361377d5760006040517f1e4fbdf70000000000000000000000000000000000000000000000000000000081526004016137749190614230565b60405180910390fd5b61378681613a92565b50565b60075481565b6000600a60008460028111156137a8576137a7615799565b5b60028111156137ba576137b9615799565b5b8152602001908152602001600020905060006137d584613b56565b905060008111156138f4577f000000000000000000000000000000000000000000000000000000000000000073ffffffffffffffffffffffffffffffffffffffff1663a9059cbb33836040518363ffffffff1660e01b815260040161383b929190615ab6565b6020604051808303816000875af115801561385a573d6000803e3d6000fd5b505050506040513d601f19601f8201168201806040525081019061387e9190615b0b565b50808260030160008282546138939190615617565b925050819055504282600401819055503373ffffffffffffffffffffffffffffffffffffffff167f171b2f9dc7a4c7eaa8ca718bcac62fbec15d147f033f38e42971b7ccabe9a46984836040516138eb9291906155ee565b60405180910390a25b50505050565b600080829050600381511015801561391457506020815111155b613953576040517f08c379a000000000000000000000000000000000000000000000000000000000815260040161394a90615b84565b60405180910390fd5b600081805190602001209050600073ffffffffffffffffffffffffffffffffffffffff166002600083815260200190815260200160002060009054906101000a900473ffffffffffffffffffffffffffffffffffffffff1673ffffffffffffffffffffffffffffffffffffffff1614613a01576040517f08c379a00000000000000000000000000000000000000000000000000000000081526004016139f890615bf0565b60405180910390fd5b8092505050919050565b613a13613cde565b73ffffffffffffffffffffffffffffffffffffffff16613a316125fd565b73ffffffffffffffffffffffffffffffffffffffff1614613a9057613a54613cde565b6040517f118cdaa7000000000000000000000000000000000000000000000000000000008152600401613a879190614230565b60405180910390fd5b565b60008060009054906101000a900473ffffffffffffffffffffffffffffffffffffffff169050816000806101000a81548173ffffffffffffffffffffffffffffffffffffffff021916908373ffffffffffffffffffffffffffffffffffffffff1602179055508173ffffffffffffffffffffffffffffffffffffffff168173ffffffffffffffffffffffffffffffffffffffff167f8be0079c531659141344cd1fd0a4f28419497f9722a3daafe3b4186f6b6457e060405160405180910390a35050565b600080600a6000846002811115613b7057613b6f615799565b5b6002811115613b8257613b81615799565b5b81526020019081526020016000209050806001015442101580613ba9575060008160020154145b15613bb8576000915050613cd9565b6000816004015442613bca919061564b565b905060008103613bdf57600092505050613cd9565b6000630784ce00836002015483613bf69190614e1e565b613c009190614e8f565b9050600083600301548460020154613c18919061564b565b905080821115613c26578091505b60007f000000000000000000000000000000000000000000000000000000000000000073ffffffffffffffffffffffffffffffffffffffff166370a08231306040518263ffffffff1660e01b8152600401613c819190614230565b602060405180830381865afa158015613c9e573d6000803e3d6000fd5b505050506040513d601f19601f82011682018060405250810190613cc29190615700565b905080831115613cd0578092505b82955050505050505b919050565b600033905090565b6040518060e0016040528060008152602001600073ffffffffffffffffffffffffffffffffffffffff16815260200160608152602001600081526020016000815260200160008152602001600081525090565b6040518060a0016040528060008152602001600073ffffffffffffffffffffffffffffffffffffffff1681526020016060815260200160008152602001600081525090565b508054613d8a90614c0e565b6000825580601f10613d9c5750613dbb565b601f016020900490600052602060002090810190613dba9190613dbe565b5b50565b5b80821115613dd7576000816000905550600101613dbf565b5090565b6000604051905090565b600080fd5b600080fd5b6000819050919050565b613e0281613def565b8114613e0d57600080fd5b50565b600081359050613e1f81613df9565b92915050565b600060208284031215613e3b57613e3a613de5565b5b6000613e4984828501613e10565b91505092915050565b613e5b81613def565b82525050565b600073ffffffffffffffffffffffffffffffffffffffff82169050919050565b6000613e8c82613e61565b9050919050565b613e9c81613e81565b82525050565b600081519050919050565b600082825260208201905092915050565b60005b83811015613edc578082015181840152602081019050613ec1565b60008484015250505050565b6000601f19601f8301169050919050565b6000613f0482613ea2565b613f0e8185613ead565b9350613f1e818560208601613ebe565b613f2781613ee8565b840191505092915050565b600060e083016000830151613f4a6000860182613e52565b506020830151613f5d6020860182613e93565b5060408301518482036040860152613f758282613ef9565b9150506060830151613f8a6060860182613e52565b506080830151613f9d6080860182613e52565b5060a0830151613fb060a0860182613e52565b5060c0830151613fc360c0860182613e52565b508091505092915050565b60006020820190508181036000830152613fe88184613f32565b905092915050565b613ff981613def565b82525050565b60006020820190506140146000830184613ff0565b92915050565b600080fd5b600080fd5b7f4e487b7100000000000000000000000000000000000000000000000000000000600052604160045260246000fd5b61405c82613ee8565b810181811067ffffffffffffffff8211171561407b5761407a614024565b5b80604052505050565b600061408e613ddb565b905061409a8282614053565b919050565b600067ffffffffffffffff8211156140ba576140b9614024565b5b6140c382613ee8565b9050602081019050919050565b82818337600083830152505050565b60006140f26140ed8461409f565b614084565b90508281526020810184848401111561410e5761410d61401f565b5b6141198482856140d0565b509392505050565b600082601f8301126141365761413561401a565b5b81356141468482602086016140df565b91505092915050565b60008060006060848603121561416857614167613de5565b5b600061417686828701613e10565b935050602061418786828701613e10565b925050604084013567ffffffffffffffff8111156141a8576141a7613dea565b5b6141b486828701614121565b9150509250925092565b6000819050919050565b6141d1816141be565b81146141dc57600080fd5b50565b6000813590506141ee816141c8565b92915050565b60006020828403121561420a57614209613de5565b5b6000614218848285016141df565b91505092915050565b61422a81613e81565b82525050565b60006020820190506142456000830184614221565b92915050565b60006020828403121561426157614260613de5565b5b600082013567ffffffffffffffff81111561427f5761427e613dea565b5b61428b84828501614121565b91505092915050565b600080604083850312156142ab576142aa613de5565b5b60006142b985828601613e10565b92505060206142ca85828601613e10565b9150509250929050565b6000819050919050565b60006142f96142f46142ef84613e61565b6142d4565b613e61565b9050919050565b600061430b826142de565b9050919050565b600061431d82614300565b9050919050565b61432d81614312565b82525050565b60006020820190506143486000830184614324565b92915050565b600081519050919050565b600082825260208201905092915050565b6000819050602082019050919050565b60006143868383613e93565b60208301905092915050565b6000602082019050919050565b60006143aa8261434e565b6143b48185614359565b93506143bf8361436a565b8060005b838110156143f05781516143d7888261437a565b97506143e283614392565b9250506001810190506143c3565b5085935050505092915050565b600081519050919050565b600082825260208201905092915050565b6000819050602082019050919050565b60006144358383613ef9565b905092915050565b6000602082019050919050565b6000614455826143fd565b61445f8185614408565b93508360208202850161447185614419565b8060005b858110156144ad578484038952815161448e8582614429565b94506144998361443d565b925060208a01995050600181019050614475565b50829750879550505050505092915050565b600081519050919050565b600082825260208201905092915050565b6000819050602082019050919050565b60006144f78383613e52565b60208301905092915050565b6000602082019050919050565b600061451b826144bf565b61452581856144ca565b9350614530836144db565b8060005b8381101561456157815161454888826144eb565b975061455383614503565b925050600181019050614534565b5085935050505092915050565b60006060820190508181036000830152614588818661439f565b9050818103602083015261459c818561444a565b905081810360408301526145b08184614510565b9050949350505050565b6145c381613e81565b81146145ce57600080fd5b50565b6000813590506145e0816145ba565b92915050565b600080604083850312156145fd576145fc613de5565b5b600061460b85828601613e10565b925050602061461c858286016145d1565b9150509250929050565b60008115159050919050565b61463b81614626565b82525050565b60006020820190506146566000830184614632565b92915050565b600082825260208201905092915050565b600061467882613ea2565b614682818561465c565b9350614692818560208601613ebe565b61469b81613ee8565b840191505092915050565b600060e0820190506146bb600083018a613ff0565b6146c86020830189614221565b81810360408301526146da818861466d565b90506146e96060830187613ff0565b6146f66080830186613ff0565b61470360a0830185613ff0565b61471060c0830184613ff0565b98975050505050505050565b60006020820190508181036000830152614736818461466d565b905092915050565b600060a0830160008301516147566000860182613e52565b5060208301516147696020860182613e93565b50604083015184820360408601526147818282613ef9565b91505060608301516147966060860182613e52565b5060808301516147a96080860182613e52565b508091505092915050565b600060208201905081810360008301526147ce818461473e565b905092915050565b600080604083850312156147ed576147ec613de5565b5b60006147fb858286016145d1565b925050602061480c85828601613e10565b9150509250929050565b6003811061482357600080fd5b50565b60008135905061483581614816565b92915050565b6000806040838503121561485257614851613de5565b5b600061486085828601614826565b925050602061487185828601613e10565b9150509250929050565b600060a0820190506148906000830188613ff0565b61489d6020830187614221565b81810360408301526148af818661466d565b90506148be6060830185613ff0565b6148cb6080830184613ff0565b9695505050505050565b6000602082840312156148eb576148ea613de5565b5b60006148f984828501614826565b91505092915050565b600081519050919050565b600082825260208201905092915050565b6000819050602082019050919050565b600060a0830160008301516149466000860182613e52565b5060208301516149596020860182613e93565b50604083015184820360408601526149718282613ef9565b91505060608301516149866060860182613e52565b5060808301516149996080860182613e52565b508091505092915050565b60006149b0838361492e565b905092915050565b6000602082019050919050565b60006149d082614902565b6149da818561490d565b9350836020820285016149ec8561491e565b8060005b85811015614a285784840389528151614a0985826149a4565b9450614a14836149b8565b925060208a019950506001810190506149f0565b50829750879550505050505092915050565b60006020820190508181036000830152614a5481846149c5565b905092915050565b600060208284031215614a7257614a71613de5565b5b6000614a80848285016145d1565b91505092915050565b614a92816141be565b82525050565b6000606082019050614aad6000830186614a89565b614aba6020830185613ff0565b614ac76040830184613ff0565b949350505050565b600060a082019050614ae46000830188613ff0565b614af16020830187613ff0565b614afe6040830186613ff0565b614b0b6060830185613ff0565b614b186080830184613ff0565b9695505050505050565b60006020820190508181036000830152614b3c8184614510565b905092915050565b7f636f6d6d656e74206e6f7420666f756e64000000000000000000000000000000600082015250565b6000614b7a60118361465c565b9150614b8582614b44565b602082019050919050565b60006020820190508181036000830152614ba981614b6d565b9050919050565b7f4e487b7100000000000000000000000000000000000000000000000000000000600052603260045260246000fd5b7f4e487b7100000000000000000000000000000000000000000000000000000000600052602260045260246000fd5b60006002820490506001821680614c2657607f821691505b602082108103614c3957614c38614bdf565b5b50919050565b7f6e6f742072656769737465726564000000000000000000000000000000000000600082015250565b6000614c75600e8361465c565b9150614c8082614c3f565b602082019050919050565b60006020820190508181036000830152614ca481614c68565b9050919050565b7f6d657373616765206e6f7420666f756e64000000000000000000000000000000600082015250565b6000614ce160118361465c565b9150614cec82614cab565b602082019050919050565b60006020820190508181036000830152614d1081614cd4565b9050919050565b7f636f6e74656e74206c656e67746820696e76616c696400000000000000000000600082015250565b6000614d4d60168361465c565b9150614d5882614d17565b602082019050919050565b60006020820190508181036000830152614d7c81614d40565b9050919050565b7f636f6d6d656e7420666565206c6f770000000000000000000000000000000000600082015250565b6000614db9600f8361465c565b9150614dc482614d83565b602082019050919050565b60006020820190508181036000830152614de881614dac565b9050919050565b7f4e487b7100000000000000000000000000000000000000000000000000000000600052601160045260246000fd5b6000614e2982613def565b9150614e3483613def565b9250828202614e4281613def565b91508282048414831517614e5957614e58614def565b5b5092915050565b7f4e487b7100000000000000000000000000000000000000000000000000000000600052601260045260246000fd5b6000614e9a82613def565b9150614ea583613def565b925082614eb557614eb4614e60565b5b828204905092915050565b600081905092915050565b50565b6000614edb600083614ec0565b9150614ee682614ecb565b600082019050919050565b6000614efc82614ece565b9150819050919050565b7f617574686f72207368617265207472616e73666572206661696c656400000000600082015250565b6000614f3c601c8361465c565b9150614f4782614f06565b602082019050919050565b60006020820190508181036000830152614f6b81614f2f565b9050919050565b7f636f6d6d656e7420697320667265650000000000000000000000000000000000600082015250565b6000614fa8600f8361465c565b9150614fb382614f72565b602082019050919050565b60006020820190508181036000830152614fd781614f9b565b9050919050565b7f706172656e7420636f6d6d656e74206e6f7420666f756e640000000000000000600082015250565b600061501460188361465c565b915061501f82614fde565b602082019050919050565b6000602082019050818103600083015261504381615007565b9050919050565b7f706172656e7420636f6d6d656e74206d69736d61746368000000000000000000600082015250565b600061508060178361465c565b915061508b8261504a565b602082019050919050565b600060208201905081810360008301526150af81615073565b9050919050565b60008190508160005260206000209050919050565b60006020601f8301049050919050565b600082821b905092915050565b6000600883026151187fffffffffffffffffffffffffffffffffffffffffffffffffffffffffffffffff826150db565b61512286836150db565b95508019841693508086168417925050509392505050565b600061515561515061514b84613def565b6142d4565b613def565b9050919050565b6000819050919050565b61516f8361513a565b61518361517b8261515c565b8484546150e8565b825550505050565b600090565b61519861518b565b6151a3818484615166565b505050565b5b818110156151c7576151bc600082615190565b6001810190506151a9565b5050565b601f82111561520c576151dd816150b6565b6151e6846150cb565b810160208510156151f5578190505b615209615201856150cb565b8301826151a8565b50505b505050565b600082821c905092915050565b600061522f60001984600802615211565b1980831691505092915050565b6000615248838361521e565b9150826002028217905092915050565b61526182613ea2565b67ffffffffffffffff81111561527a57615279614024565b5b6152848254614c0e565b61528f8282856151cb565b600060209050601f8311600181146152c257600084156152b0578287015190505b6152ba858261523c565b865550615322565b601f1984166152d0866150b6565b60005b828110156152f8578489015182556001820191506020850194506020810190506152d3565b868310156153155784890151615311601f89168261521e565b8355505b6001600288020188555050505b505050505050565b600060408201905061533f6000830185613ff0565b8181036020830152615351818461466d565b90509392505050565b7f666565206c6f7700000000000000000000000000000000000000000000000000600082015250565b600061539060078361465c565b915061539b8261535a565b602082019050919050565b600060208201905081810360008301526153bf81615383565b9050919050565b7f616c726561647920726567000000000000000000000000000000000000000000600082015250565b60006153fc600b8361465c565b9150615407826153c6565b602082019050919050565b6000602082019050818103600083015261542b816153ef565b9050919050565b6000604082019050818103600083015261544c818561466d565b905061545b6020830184613ff0565b9392505050565b7f63616e6e6f74206c696b65206f776e206d657373616765000000000000000000600082015250565b600061549860178361465c565b91506154a382615462565b602082019050919050565b600060208201905081810360008301526154c78161548b565b9050919050565b7f616c7265616479206c696b656400000000000000000000000000000000000000600082015250565b6000615504600d8361465c565b915061550f826154ce565b602082019050919050565b60006020820190508181036000830152615533816154f7565b9050919050565b600061554582613def565b91507fffffffffffffffffffffffffffffffffffffffffffffffffffffffffffffffff820361557757615576614def565b5b600182019050919050565b7f746970207472616e73666572206661696c656400000000000000000000000000600082015250565b60006155b860138361465c565b91506155c382615582565b602082019050919050565b600060208201905081810360008301526155e7816155ab565b9050919050565b60006040820190506156036000830185613ff0565b6156106020830184613ff0565b9392505050565b600061562282613def565b915061562d83613def565b925082820190508082111561564557615644614def565b5b92915050565b600061565682613def565b915061566183613def565b925082820390508181111561567957615678614def565b5b92915050565b7f7a65726f20616d6f756e74000000000000000000000000000000000000000000600082015250565b60006156b5600b8361465c565b91506156c08261567f565b602082019050919050565b600060208201905081810360008301526156e4816156a8565b9050919050565b6000815190506156fa81613df9565b92915050565b60006020828403121561571657615715613de5565b5b6000615724848285016156eb565b91505092915050565b7f696e73756666696369656e742043540000000000000000000000000000000000600082015250565b6000615763600f8361465c565b915061576e8261572d565b602082019050919050565b6000602082019050818103600083015261579281615756565b9050919050565b7f4e487b7100000000000000000000000000000000000000000000000000000000600052602160045260246000fd5b600381106157d9576157d8615799565b5b50565b60008190506157ea826157c8565b919050565b60006157fa826157dc565b9050919050565b61580a816157ef565b82525050565b60006080820190506158256000830187615801565b6158326020830186613ff0565b61583f6040830185613ff0565b61584c6060830184613ff0565b95945050505050565b7f6e6f742072656700000000000000000000000000000000000000000000000000600082015250565b600061588b60078361465c565b915061589682615855565b602082019050919050565b600060208201905081810360008301526158ba8161587e565b9050919050565b600060608201905081810360008301526158db818661466d565b905081810360208301526158ef818561466d565b90506158fe6040830184613ff0565b949350505050565b7f6e6f74206f776e6572206f722072656365697665720000000000000000000000600082015250565b600061593c60158361465c565b915061594782615906565b602082019050919050565b6000602082019050818103600083015261596b8161592f565b9050919050565b7f6e6f206665650000000000000000000000000000000000000000000000000000600082015250565b60006159a860068361465c565b91506159b382615972565b602082019050919050565b600060208201905081810360008301526159d78161599b565b9050919050565b7f7472616e73666572206661696c65640000000000000000000000000000000000600082015250565b6000615a14600f8361465c565b9150615a1f826159de565b602082019050919050565b60006020820190508181036000830152615a4381615a07565b9050919050565b7f7a65726f20616464720000000000000000000000000000000000000000000000600082015250565b6000615a8060098361465c565b9150615a8b82615a4a565b602082019050919050565b60006020820190508181036000830152615aaf81615a73565b9050919050565b6000604082019050615acb6000830185614221565b615ad86020830184613ff0565b9392505050565b615ae881614626565b8114615af357600080fd5b50565b600081519050615b0581615adf565b92915050565b600060208284031215615b2157615b20613de5565b5b6000615b2f84828501615af6565b91505092915050565b7f6c656e0000000000000000000000000000000000000000000000000000000000600082015250565b6000615b6e60038361465c565b9150615b7982615b38565b602082019050919050565b60006020820190508181036000830152615b9d81615b61565b9050919050565b7f74616b656e000000000000000000000000000000000000000000000000000000600082015250565b6000615bda60058361465c565b9150615be582615ba4565b602082019050919050565b60006020820190508181036000830152615c0981615bcd565b905091905056fea2646970667358221220cfa3690349b561da63909c0d3bf47d3f9adc682eb200b9f2ee6b500ed0929e6c64736f6c634300081c0033",
  "linkReferences": {},
  "deployedLinkReferences": {}
}