{
  "_format": "hh-sol-artifact-1",
  "contractName": "ConnectionUserRegistry",
  "sourceName": "contracts/ConnectionUserRegistry.sol",
  "abi": [
    {
      "inputs": [
        {
          "internalType": "address",
          "name": "_ctTokenAddress",
          "type": "address"
        },
        {
          "internalType": "uint256",
          "name": "_initialRegFee",
          "type": "uint256"
        },
        {
          "internalType": "uint256",
          "name": "_initialModFee",
          "type": "uint256"
        },
        {
          "internalType": "uint256",
          "name": "_initialAirdropRatio",
          "type": "uint256"
        }
      ],
      "stateMutability": "nonpayable",
      "type": "constructor"
    },
    {
      "inputs": [
        {
          "internalType": "address",
          "name": "owner",
          "type": "address"
        }
      ],
      "name": "OwnableInvalidOwner",
      "type": "error"
    },
    {
      "inputs": [
        {
          "internalType": "address",
          "name": "account",
          "type": "address"
        }
      ],
      "name": "OwnableUnauthorizedAccount",
      "type": "error"
    },
    {
      "anonymous": false,
      "inputs": [
        {
          "indexed": false,
          "internalType": "uint256",
          "name": "cycleStartTime",
          "type": "uint256"
        },
        {
          "indexed": false,
          "internalType": "uint256",
          "name": "cycleEndTime",
          "type": "uint256"
        },
        {
          "indexed": false,
          "internalType": "uint256",
          "name": "totalAmount",
          "type": "uint256"
        }
      ],
      "name": "AirdropCycleStarted",
      "type": "event"
    },
    {
      "anonymous": false,
      "inputs": [
        {
          "indexed": true,
          "internalType": "address",
          "name": "recipient",
          "type": "address"
        },
        {
          "indexed": false,
          "internalType": "uint256",
          "name": "ai3Paid",
          "type": "uint256"
        },
        {
          "indexed": false,
          "internalType": "uint256",
          "name": "ctAmount",
          "type": "uint256"
        }
      ],
      "name": "AirdropExecuted",
      "type": "event"
    },
    {
      "anonymous": false,
      "inputs": [
        {
          "indexed": true,
          "internalType": "address",
          "name": "previousOwner",
          "type": "address"
        },
        {
          "indexed": true,
          "internalType": "address",
          "name": "newOwner",
          "type": "address"
        }
      ],
      "name": "OwnershipTransferred",
      "type": "event"
    },
    {
      "anonymous": false,
      "inputs": [
        {
          "indexed": true,
          "internalType": "address",
          "name": "user",
          "type": "address"
        },
        {
          "indexed": false,
          "internalType": "bytes32",
          "name": "newUsernameHash",
          "type": "bytes32"
        },
        {
          "indexed": false,
          "internalType": "uint256",
          "name": "feePaid",
          "type": "uint256"
        }
      ],
      "name": "UsernameModified",
      "type": "event"
    },
    {
      "anonymous": false,
      "inputs": [
        {
          "indexed": true,
          "internalType": "address",
          "name": "user",
          "type": "address"
        },
        {
          "indexed": false,
          "internalType": "bytes32",
          "name": "usernameHash",
          "type": "bytes32"
        },
        {
          "indexed": false,
          "internalType": "uint256",
          "name": "feePaid",
          "type": "uint256"
        }
      ],
      "name": "UsernameRegistered",
      "type": "event"
    },
    {
      "inputs": [],
      "name": "AIRDROP_CYCLE_DURATION",
      "outputs": [
        {
          "internalType": "uint256",
          "name": "",
          "type": "uint256"
        }
      ],
      "stateMutability": "view",
      "type": "function"
    },
    {
      "inputs": [],
      "name": "MAX_USERNAME_LENGTH",
      "outputs": [
        {
          "internalType": "uint256",
          "name": "",
          "type": "uint256"
        }
      ],
      "stateMutability": "view",
      "type": "function"
    },
    {
      "inputs": [],
      "name": "MIN_USERNAME_LENGTH",
      "outputs": [
        {
          "internalType": "uint256",
          "name": "",
          "type": "uint256"
        }
      ],
      "stateMutability": "view",
      "type": "function"
    },
    {
      "inputs": [],
      "name": "airdropRatioBasisPoints",
      "outputs": [
        {
          "internalType": "uint256",
          "name": "",
          "type": "uint256"
        }
      ],
      "stateMutability": "view",
      "type": "function"
    },
    {
      "inputs": [],
      "name": "ctToken",
      "outputs": [
        {
          "internalType": "contract ConnectionToken",
          "name": "",
          "type": "address"
        }
      ],
      "stateMutability": "view",
      "type": "function"
    },
    {
      "inputs": [],
      "name": "cumulativeCTDistributed",
      "outputs": [
        {
          "internalType": "uint256",
          "name": "",
          "type": "uint256"
        }
      ],
      "stateMutability": "view",
      "type": "function"
    },
    {
      "inputs": [],
      "name": "currentCycleEndTime",
      "outputs": [
        {
          "internalType": "uint256",
          "name": "",
          "type": "uint256"
        }
      ],
      "stateMutability": "view",
      "type": "function"
    },
    {
      "inputs": [],
      "name": "currentCycleStartTime",
      "outputs": [
        {
          "internalType": "uint256",
          "name": "",
          "type": "uint256"
        }
      ],
      "stateMutability": "view",
      "type": "function"
    },
    {
      "inputs": [],
      "name": "currentCycleTotalAirdropAmount",
      "outputs": [
        {
          "internalType": "uint256",
          "name": "",
          "type": "uint256"
        }
      ],
      "stateMutability": "view",
      "type": "function"
    },
    {
      "inputs": [],
      "name": "lastAirdropTimestamp",
      "outputs": [
        {
          "internalType": "uint256",
          "name": "",
          "type": "uint256"
        }
      ],
      "stateMutability": "view",
      "type": "function"
    },
    {
      "inputs": [],
      "name": "modificationFee",
      "outputs": [
        {
          "internalType": "uint256",
          "name": "",
          "type": "uint256"
        }
      ],
      "stateMutability": "view",
      "type": "function"
    },
    {
      "inputs": [
        {
          "internalType": "string",
          "name": "_newUsername",
          "type": "string"
        }
      ],
      "name": "modifyUsername",
      "outputs": [],
      "stateMutability": "payable",
      "type": "function"
    },
    {
      "inputs": [],
      "name": "owner",
      "outputs": [
        {
          "internalType": "address",
          "name": "",
          "type": "address"
        }
      ],
      "stateMutability": "view",
      "type": "function"
    },
    {
      "inputs": [
        {
          "internalType": "string",
          "name": "_username",
          "type": "string"
        }
      ],
      "name": "registerUsername",
      "outputs": [],
      "stateMutability": "payable",
      "type": "function"
    },
    {
      "inputs": [],
      "name": "registrationFee",
      "outputs": [
        {
          "internalType": "uint256",
          "name": "",
          "type": "uint256"
        }
      ],
      "stateMutability": "view",
      "type": "function"
    },
    {
      "inputs": [],
      "name": "renounceOwnership",
      "outputs": [],
      "stateMutability": "nonpayable",
      "type": "function"
    },
    {
      "inputs": [
        {
          "internalType": "uint256",
          "name": "newRatio",
          "type": "uint256"
        }
      ],
      "name": "setAirdropRatio",
      "outputs": [],
      "stateMutability": "nonpayable",
      "type": "function"
    },
    {
      "inputs": [
        {
          "internalType": "uint256",
          "name": "newFee",
          "type": "uint256"
        }
      ],
      "name": "setModificationFee",
      "outputs": [],
      "stateMutability": "nonpayable",
      "type": "function"
    },
    {
      "inputs": [
        {
          "internalType": "uint256",
          "name": "newFee",
          "type": "uint256"
        }
      ],
      "name": "setRegistrationFee",
      "outputs": [],
      "stateMutability": "nonpayable",
      "type": "function"
    },
    {
      "inputs": [
        {
          "internalType": "uint256",
          "name": "_totalAmount",
          "type": "uint256"
        },
        {
          "internalType": "uint256",
          "name": "_initialAirdropRatio",
          "type": "uint256"
        }
      ],
      "name": "startNewAirdropCycle",
      "outputs": [],
      "stateMutability": "nonpayable",
      "type": "function"
    },
    {
      "inputs": [
        {
          "internalType": "address",
          "name": "newOwner",
          "type": "address"
        }
      ],
      "name": "transferOwnership",
      "outputs": [],
      "stateMutability": "nonpayable",
      "type": "function"
    },
    {
      "inputs": [
        {
          "internalType": "bytes32",
          "name": "",
          "type": "bytes32"
        }
      ],
      "name": "usernameHashToAddress",
      "outputs": [
        {
          "internalType": "address",
          "name": "",
          "type": "address"
        }
      ],
      "stateMutability": "view",
      "type": "function"
    },
    {
      "inputs": [
        {
          "internalType": "address",
          "name": "",
          "type": "address"
        }
      ],
      "name": "users",
      "outputs": [
        {
          "internalType": "bytes32",
          "name": "usernameHash",
          "type": "bytes32"
        },
        {
          "internalType": "uint256",
          "name": "registrationTime",
          "type": "uint256"
        }
      ],
      "stateMutability": "view",
      "type": "function"
    },
    {
      "inputs": [],
      "name": "withdrawAI3",
      "outputs": [],
      "stateMutability": "nonpayable",
      "type": "function"
    }
  ],
  "bytecode": "0x608060405234801561001057600080fd5b5060405161108538038061108583398101604081905261002f916100e1565b338061005557604051631e4fbdf760e01b81526000600482015260240160405180910390fd5b61005e81610091565b50600380546001600160a01b0319166001600160a01b039590951694909417909355600491909155600555600b5561012c565b600080546001600160a01b038381166001600160a01b0319831681178455604051919092169283917f8be0079c531659141344cd1fd0a4f28419497f9722a3daafe3b4186f6b6457e09190a35050565b600080600080608085870312156100f757600080fd5b84516001600160a01b038116811461010e57600080fd5b60208601516040870151606090970151919890975090945092505050565b610f4a8061013b6000396000f3fe60806040526004361061014b5760003560e01c806381e6b76d116100b6578063ba49f1b61161006f578063ba49f1b614610384578063c320c7271461039a578063d72d4c1b146103ba578063da4b6f8b146103d0578063f2fde38b146103e6578063f3c2654a1461040657600080fd5b806381e6b76d146102b45780638d446bba146102d45780638da5cb5b146102ea57806399a0cf6514610308578063a87430ba1461031b578063b45a64111461036457600080fd5b806326c4583d1161010857806326c4583d1461021f57806336a94134146102365780634d6fad0914610249578063715018a614610269578063799fb9651461027e5780637eb1fe731461029457600080fd5b80630e45b00b1461015057806312c3f7541461017b57806314c44e0914610191578063155b1d98146101a75780631cd896c1146101bc578063228114af146101d1575b600080fd5b34801561015c57600080fd5b50610168630784ce0081565b6040519081526020015b60405180910390f35b34801561018757600080fd5b5061016860055481565b34801561019d57600080fd5b5061016860045481565b3480156101b357600080fd5b50610168600381565b3480156101c857600080fd5b50610168602081565b3480156101dd57600080fd5b506102076101ec366004610d2b565b6002602052600090815260409020546001600160a01b031681565b6040516001600160a01b039091168152602001610172565b34801561022b57600080fd5b5061023461041c565b005b610234610244366004610d5a565b6104c5565b34801561025557600080fd5b50600354610207906001600160a01b031681565b34801561027557600080fd5b50610234610619565b34801561028a57600080fd5b5061016860065481565b3480156102a057600080fd5b506102346102af366004610e13565b61062d565b3480156102c057600080fd5b506102346102cf366004610d2b565b610816565b3480156102e057600080fd5b50610168600a5481565b3480156102f657600080fd5b506000546001600160a01b0316610207565b610234610316366004610d5a565b610823565b34801561032757600080fd5b5061034f610336366004610e35565b6001602081905260009182526040909120805491015482565b60408051928352602083019190915201610172565b34801561037057600080fd5b5061023461037f366004610d2b565b610965565b34801561039057600080fd5b5061016860085481565b3480156103a657600080fd5b506102346103b5366004610d2b565b6109bf565b3480156103c657600080fd5b5061016860095481565b3480156103dc57600080fd5b5061016860075481565b3480156103f257600080fd5b50610234610401366004610e35565b6109cc565b34801561041257600080fd5b50610168600b5481565b610424610a07565b600080546040516001600160a01b039091169047908381818185875af1925050503d8060008114610471576040519150601f19603f3d011682016040523d82523d6000602084013e610476565b606091505b50509050806104c25760405162461bcd60e51b815260206004820152601360248201527210524cc81d1c985b9cd9995c8819985a5b1959606a1b60448201526064015b60405180910390fd5b50565b6004543410156105175760405162461bcd60e51b815260206004820152601d60248201527f496e73756666696369656e7420726567697374726174696f6e2066656500000060448201526064016104b9565b3360009081526001602081905260409091200154156105785760405162461bcd60e51b815260206004820152601760248201527f5573657220616c7265616479207265676973746572656400000000000000000060448201526064016104b9565b600061058382610a34565b60408051808201825282815242602080830191825233600081815260018084528682209551865593519490930193909355848252600290529190912080546001600160a01b031916909117905590506105db34610afc565b6040805182815234602082015233917f92c085898d36c54c5a0117da7a4be84d085a32506a194bb55125d72ccd55b4ff910160405180910390a25050565b610621610a07565b61062b6000610cdb565b565b610635610a07565b600082116106855760405162461bcd60e51b815260206004820152601760248201527f416d6f756e74206d75737420626520706f73697469766500000000000000000060448201526064016104b9565b6127108111156106d25760405162461bcd60e51b8152602060048201526018602482015277526174696f2063616e6e6f7420657863656564203130302560401b60448201526064016104b9565b6003546040516370a0823160e01b81523060048201526000916001600160a01b0316906370a0823190602401602060405180830381865afa15801561071b573d6000803e3d6000fd5b505050506040513d601f19601f8201168201806040525081019061073f9190610e5e565b90508083111561079f5760405162461bcd60e51b815260206004820152602560248201527f496e73756666696369656e742043542062616c616e636520666f7220746865206044820152646379636c6560d81b60648201526084016104b9565b4260068190556107b490630784ce0090610e8d565b60078190556008849055600060095542600a55600b8390556006546040805191825260208201929092529081018490527f349af7112230411a2b6b2c1b8f05338d2a29f6b5256f3157af0551e048625ec89060600160405180910390a1505050565b61081e610a07565b600555565b33600090815260016020819052604082200154900361087a5760405162461bcd60e51b8152602060048201526013602482015272155cd95c881b9bdd081c9959da5cdd195c9959606a1b60448201526064016104b9565b6005543410156108cc5760405162461bcd60e51b815260206004820152601d60248201527f496e73756666696369656e74206d6f64696669636174696f6e2066656500000060448201526064016104b9565b60006108d782610a34565b3360008181526001602090815260408083208054808552600290935281842080546001600160a01b03199081169091559086905585845292208054909216909217905590915061092634610afc565b6040805183815234602082015233917f805bd617e4b9f837ddadec273ae8d0b78d19c93d93ae32143a35ab5e07cefcf1910160405180910390a2505050565b61096d610a07565b6127108111156109ba5760405162461bcd60e51b8152602060048201526018602482015277526174696f2063616e6e6f7420657863656564203130302560401b60448201526064016104b9565b600b55565b6109c7610a07565b600455565b6109d4610a07565b6001600160a01b0381166109fe57604051631e4fbdf760e01b8152600060048201526024016104b9565b6104c281610cdb565b6000546001600160a01b0316331461062b5760405163118cdaa760e01b81523360048201526024016104b9565b6000808290506003815110158015610a4e57506020815111155b610a8b5760405162461bcd60e51b815260206004820152600e60248201526d092dcecc2d8d2c840d8cadccee8d60931b60448201526064016104b9565b8051602080830191909120600081815260029092526040909120546001600160a01b031615610af55760405162461bcd60e51b81526020600482015260166024820152752ab9b2b93730b6b29030b63932b0b23c903a30b5b2b760511b60448201526064016104b9565b9392505050565b60075442101580610b0d5750600854155b15610b155750565b6000600a5442610b259190610ea6565b905080600003610b33575050565b6000630784ce0060085483610b489190610eb9565b610b529190610ed0565b90506000600954600854610b669190610ea6565b905080821115610b74578091505b818015610cc4576003546040516370a0823160e01b81523060048201526000916001600160a01b0316906370a0823190602401602060405180830381865afa158015610bc4573d6000803e3d6000fd5b505050506040513d601f19601f82011682018060405250810190610be89190610e5e565b905080821115610bf6578091505b60035460405163a9059cbb60e01b8152336004820152602481018490526001600160a01b039091169063a9059cbb906044016020604051808303816000875af1158015610c47573d6000803e3d6000fd5b505050506040513d601f19601f82011682018060405250810190610c6b9190610ef2565b508160096000828254610c7e9190610e8d565b909155505042600a55604080518781526020810184905233917f171b2f9dc7a4c7eaa8ca718bcac62fbec15d147f033f38e42971b7ccabe9a469910160405180910390a2505b60085460095410610cd45742600a555b5050505050565b600080546001600160a01b038381166001600160a01b0319831681178455604051919092169283917f8be0079c531659141344cd1fd0a4f28419497f9722a3daafe3b4186f6b6457e09190a35050565b600060208284031215610d3d57600080fd5b5035919050565b634e487b7160e01b600052604160045260246000fd5b600060208284031215610d6c57600080fd5b813567ffffffffffffffff811115610d8357600080fd5b8201601f81018413610d9457600080fd5b803567ffffffffffffffff811115610dae57610dae610d44565b604051601f8201601f19908116603f0116810167ffffffffffffffff81118282101715610ddd57610ddd610d44565b604052818152828201602001861015610df557600080fd5b81602084016020830137600091810160200191909152949350505050565b60008060408385031215610e2657600080fd5b50508035926020909101359150565b600060208284031215610e4757600080fd5b81356001600160a01b0381168114610af557600080fd5b600060208284031215610e7057600080fd5b5051919050565b634e487b7160e01b600052601160045260246000fd5b80820180821115610ea057610ea0610e77565b92915050565b81810381811115610ea057610ea0610e77565b8082028115828204841417610ea057610ea0610e77565b600082610eed57634e487b7160e01b600052601260045260246000fd5b500490565b600060208284031215610f0457600080fd5b81518015158114610af557600080fdfea26469706673582212209d64c02b434edc9909d0d3c4ce2f7df02db35e8e961c84f69929cc82be8f8eee64736f6c634300081c0033",
  "linkReferences": {},
  "deployedLinkReferences": {}
}