{
  "_format": "hh-sol-artifact-1",
  "contractName": "ConnectionUserRegistry",
  "sourceName": "contracts/ConnectionUserRegistry.sol",
  "abi": [
    {
      "inputs": [
        {
          "internalType": "address",
          "name": "_ctToken",
          "type": "address"
        },
        {
          "internalType": "uint256",
          "name": "_regFee",
          "type": "uint256"
        },
        {
          "internalType": "uint256",
          "name": "_modFee",
          "type": "uint256"
        },
        {
          "internalType": "uint256",
          "name": "_defaultCommentFee",
          "type": "uint256"
        }
      ],
      "stateMutability": "nonpayable",
      "type": "constructor"
    },
    {
      "inputs": [
        {
          "internalType": "address",
          "name": "owner",
          "type": "address"
        }
      ],
      "name": "OwnableInvalidOwner",
      "type": "error"
    },
    {
      "inputs": [
        {
          "internalType": "address",
          "name": "account",
          "type": "address"
        }
      ],
      "name": "OwnableUnauthorizedAccount",
      "type": "error"
    },
    {
      "anonymous": false,
      "inputs": [
        {
          "indexed": false,
          "internalType": "enum ConnectionUserRegistry.AirdropPool",
          "name": "pool",
          "type": "uint8"
        },
        {
          "indexed": false,
          "internalType": "uint256",
          "name": "start",
          "type": "uint256"
        },
        {
          "indexed": false,
          "internalType": "uint256",
          "name": "end",
          "type": "uint256"
        },
        {
          "indexed": false,
          "internalType": "uint256",
          "name": "totalCT",
          "type": "uint256"
        }
      ],
      "name": "AirdropCycleStarted",
      "type": "event"
    },
    {
      "anonymous": false,
      "inputs": [
        {
          "indexed": true,
          "internalType": "address",
          "name": "user",
          "type": "address"
        },
        {
          "indexed": false,
          "internalType": "uint256",
          "name": "ai3Paid",
          "type": "uint256"
        },
        {
          "indexed": false,
          "internalType": "uint256",
          "name": "ctAmount",
          "type": "uint256"
        }
      ],
      "name": "AirdropExecuted",
      "type": "event"
    },
    {
      "anonymous": false,
      "inputs": [
        {
          "indexed": true,
          "internalType": "uint256",
          "name": "id",
          "type": "uint256"
        },
        {
          "indexed": true,
          "internalType": "address",
          "name": "author",
          "type": "address"
        },
        {
          "indexed": true,
          "internalType": "uint256",
          "name": "messageId",
          "type": "uint256"
        },
        {
          "indexed": false,
          "internalType": "uint256",
          "name": "parentId",
          "type": "uint256"
        },
        {
          "indexed": false,
          "internalType": "string",
          "name": "content",
          "type": "string"
        }
      ],
      "name": "CommentPosted",
      "type": "event"
    },
    {
      "anonymous": false,
      "inputs": [
        {
          "indexed": true,
          "internalType": "address",
          "name": "oldAddr",
          "type": "address"
        },
        {
          "indexed": true,
          "internalType": "address",
          "name": "newAddr",
          "type": "address"
        }
      ],
      "name": "FeeReceiverChanged",
      "type": "event"
    },
    {
      "anonymous": false,
      "inputs": [
        {
          "indexed": true,
          "internalType": "address",
          "name": "receiver",
          "type": "address"
        },
        {
          "indexed": false,
          "internalType": "uint256",
          "name": "amount",
          "type": "uint256"
        }
      ],
      "name": "FeeWithdrawn",
      "type": "event"
    },
    {
      "anonymous": false,
      "inputs": [
        {
          "indexed": true,
          "internalType": "uint256",
          "name": "id",
          "type": "uint256"
        },
        {
          "indexed": true,
          "internalType": "address",
          "name": "user",
          "type": "address"
        },
        {
          "indexed": false,
          "internalType": "uint256",
          "name": "newLikes",
          "type": "uint256"
        }
      ],
      "name": "MessageLiked",
      "type": "event"
    },
    {
      "anonymous": false,
      "inputs": [
        {
          "indexed": true,
          "internalType": "uint256",
          "name": "id",
          "type": "uint256"
        },
        {
          "indexed": true,
          "internalType": "address",
          "name": "author",
          "type": "address"
        },
        {
          "indexed": false,
          "internalType": "string",
          "name": "content",
          "type": "string"
        }
      ],
      "name": "MessagePosted",
      "type": "event"
    },
    {
      "anonymous": false,
      "inputs": [
        {
          "indexed": true,
          "internalType": "address",
          "name": "previousOwner",
          "type": "address"
        },
        {
          "indexed": true,
          "internalType": "address",
          "name": "newOwner",
          "type": "address"
        }
      ],
      "name": "OwnershipTransferred",
      "type": "event"
    },
    {
      "anonymous": false,
      "inputs": [
        {
          "indexed": true,
          "internalType": "address",
          "name": "user",
          "type": "address"
        },
        {
          "indexed": false,
          "internalType": "uint256",
          "name": "newFee",
          "type": "uint256"
        }
      ],
      "name": "UserCommentFeeSet",
      "type": "event"
    },
    {
      "anonymous": false,
      "inputs": [
        {
          "indexed": true,
          "internalType": "address",
          "name": "user",
          "type": "address"
        },
        {
          "indexed": false,
          "internalType": "string",
          "name": "oldName",
          "type": "string"
        },
        {
          "indexed": false,
          "internalType": "string",
          "name": "newName",
          "type": "string"
        },
        {
          "indexed": false,
          "internalType": "uint256",
          "name": "fee",
          "type": "uint256"
        }
      ],
      "name": "UsernameModified",
      "type": "event"
    },
    {
      "anonymous": false,
      "inputs": [
        {
          "indexed": true,
          "internalType": "address",
          "name": "user",
          "type": "address"
        },
        {
          "indexed": false,
          "internalType": "string",
          "name": "username",
          "type": "string"
        },
        {
          "indexed": false,
          "internalType": "uint256",
          "name": "fee",
          "type": "uint256"
        }
      ],
      "name": "UsernameRegistered",
      "type": "event"
    },
    {
      "inputs": [],
      "name": "AIRDROP_CYCLE_DURATION",
      "outputs": [
        {
          "internalType": "uint256",
          "name": "",
          "type": "uint256"
        }
      ],
      "stateMutability": "view",
      "type": "function"
    },
    {
      "inputs": [],
      "name": "MAX_USERNAME_LENGTH",
      "outputs": [
        {
          "internalType": "uint256",
          "name": "",
          "type": "uint256"
        }
      ],
      "stateMutability": "view",
      "type": "function"
    },
    {
      "inputs": [],
      "name": "MIN_USERNAME_LENGTH",
      "outputs": [
        {
          "internalType": "uint256",
          "name": "",
          "type": "uint256"
        }
      ],
      "stateMutability": "view",
      "type": "function"
    },
    {
      "inputs": [
        {
          "internalType": "enum ConnectionUserRegistry.AirdropPool",
          "name": "",
          "type": "uint8"
        }
      ],
      "name": "airdropCycles",
      "outputs": [
        {
          "internalType": "uint256",
          "name": "cycleStartTime",
          "type": "uint256"
        },
        {
          "internalType": "uint256",
          "name": "cycleEndTime",
          "type": "uint256"
        },
        {
          "internalType": "uint256",
          "name": "cycleTotalCT",
          "type": "uint256"
        },
        {
          "internalType": "uint256",
          "name": "distributedCT",
          "type": "uint256"
        },
        {
          "internalType": "uint256",
          "name": "lastAirdropTS",
          "type": "uint256"
        }
      ],
      "stateMutability": "view",
      "type": "function"
    },
    {
      "inputs": [
        {
          "internalType": "uint256",
          "name": "",
          "type": "uint256"
        }
      ],
      "name": "allComments",
      "outputs": [
        {
          "internalType": "uint256",
          "name": "id",
          "type": "uint256"
        },
        {
          "internalType": "address",
          "name": "author",
          "type": "address"
        },
        {
          "internalType": "string",
          "name": "content",
          "type": "string"
        },
        {
          "internalType": "uint256",
          "name": "timestamp",
          "type": "uint256"
        },
        {
          "internalType": "uint256",
          "name": "likes",
          "type": "uint256"
        },
        {
          "internalType": "uint256",
          "name": "messageId",
          "type": "uint256"
        },
        {
          "internalType": "uint256",
          "name": "parentCommentId",
          "type": "uint256"
        }
      ],
      "stateMutability": "view",
      "type": "function"
    },
    {
      "inputs": [
        {
          "internalType": "uint256",
          "name": "",
          "type": "uint256"
        }
      ],
      "name": "allMessages",
      "outputs": [
        {
          "internalType": "uint256",
          "name": "id",
          "type": "uint256"
        },
        {
          "internalType": "address",
          "name": "author",
          "type": "address"
        },
        {
          "internalType": "string",
          "name": "content",
          "type": "string"
        },
        {
          "internalType": "uint256",
          "name": "timestamp",
          "type": "uint256"
        },
        {
          "internalType": "uint256",
          "name": "likes",
          "type": "uint256"
        }
      ],
      "stateMutability": "view",
      "type": "function"
    },
    {
      "inputs": [
        {
          "internalType": "uint256",
          "name": "",
          "type": "uint256"
        }
      ],
      "name": "allUsers",
      "outputs": [
        {
          "internalType": "address",
          "name": "",
          "type": "address"
        }
      ],
      "stateMutability": "view",
      "type": "function"
    },
    {
      "inputs": [
        {
          "internalType": "uint256",
          "name": "messageId",
          "type": "uint256"
        },
        {
          "internalType": "uint256",
          "name": "parentCommentId",
          "type": "uint256"
        },
        {
          "internalType": "string",
          "name": "content",
          "type": "string"
        }
      ],
      "name": "commentOnMessage",
      "outputs": [],
      "stateMutability": "payable",
      "type": "function"
    },
    {
      "inputs": [
        {
          "internalType": "uint256",
          "name": "",
          "type": "uint256"
        },
        {
          "internalType": "uint256",
          "name": "",
          "type": "uint256"
        }
      ],
      "name": "commentReplies",
      "outputs": [
        {
          "internalType": "uint256",
          "name": "",
          "type": "uint256"
        }
      ],
      "stateMutability": "view",
      "type": "function"
    },
    {
      "inputs": [],
      "name": "ctToken",
      "outputs": [
        {
          "internalType": "contract ConnectionToken",
          "name": "",
          "type": "address"
        }
      ],
      "stateMutability": "view",
      "type": "function"
    },
    {
      "inputs": [],
      "name": "defaultCommentFee",
      "outputs": [
        {
          "internalType": "uint256",
          "name": "",
          "type": "uint256"
        }
      ],
      "stateMutability": "view",
      "type": "function"
    },
    {
      "inputs": [],
      "name": "feeReceiver",
      "outputs": [
        {
          "internalType": "address",
          "name": "",
          "type": "address"
        }
      ],
      "stateMutability": "view",
      "type": "function"
    },
    {
      "inputs": [
        {
          "internalType": "string",
          "name": "name",
          "type": "string"
        }
      ],
      "name": "getAddressByUsername",
      "outputs": [
        {
          "internalType": "address",
          "name": "",
          "type": "address"
        }
      ],
      "stateMutability": "view",
      "type": "function"
    },
    {
      "inputs": [],
      "name": "getAllMessageIds",
      "outputs": [
        {
          "internalType": "uint256",
          "name": "",
          "type": "uint256"
        }
      ],
      "stateMutability": "view",
      "type": "function"
    },
    {
      "inputs": [
        {
          "internalType": "uint256",
          "name": "commentId",
          "type": "uint256"
        }
      ],
      "name": "getComment",
      "outputs": [
        {
          "components": [
            {
              "internalType": "uint256",
              "name": "id",
              "type": "uint256"
            },
            {
              "internalType": "address",
              "name": "author",
              "type": "address"
            },
            {
              "internalType": "string",
              "name": "content",
              "type": "string"
            },
            {
              "internalType": "uint256",
              "name": "timestamp",
              "type": "uint256"
            },
            {
              "internalType": "uint256",
              "name": "likes",
              "type": "uint256"
            },
            {
              "internalType": "uint256",
              "name": "messageId",
              "type": "uint256"
            },
            {
              "internalType": "uint256",
              "name": "parentCommentId",
              "type": "uint256"
            }
          ],
          "internalType": "struct ConnectionUserRegistry.Comment",
          "name": "",
          "type": "tuple"
        }
      ],
      "stateMutability": "view",
      "type": "function"
    },
    {
      "inputs": [
        {
          "internalType": "enum ConnectionUserRegistry.AirdropPool",
          "name": "pool",
          "type": "uint8"
        }
      ],
      "name": "getEstimatedAirdrop",
      "outputs": [
        {
          "internalType": "uint256",
          "name": "amount",
          "type": "uint256"
        }
      ],
      "stateMutability": "view",
      "type": "function"
    },
    {
      "inputs": [
        {
          "internalType": "uint256",
          "name": "count",
          "type": "uint256"
        }
      ],
      "name": "getLatestMessages",
      "outputs": [
        {
          "components": [
            {
              "internalType": "uint256",
              "name": "id",
              "type": "uint256"
            },
            {
              "internalType": "address",
              "name": "author",
              "type": "address"
            },
            {
              "internalType": "string",
              "name": "content",
              "type": "string"
            },
            {
              "internalType": "uint256",
              "name": "timestamp",
              "type": "uint256"
            },
            {
              "internalType": "uint256",
              "name": "likes",
              "type": "uint256"
            }
          ],
          "internalType": "struct ConnectionUserRegistry.Message[]",
          "name": "",
          "type": "tuple[]"
        }
      ],
      "stateMutability": "view",
      "type": "function"
    },
    {
      "inputs": [
        {
          "internalType": "uint256",
          "name": "messageId",
          "type": "uint256"
        }
      ],
      "name": "getMessage",
      "outputs": [
        {
          "components": [
            {
              "internalType": "uint256",
              "name": "id",
              "type": "uint256"
            },
            {
              "internalType": "address",
              "name": "author",
              "type": "address"
            },
            {
              "internalType": "string",
              "name": "content",
              "type": "string"
            },
            {
              "internalType": "uint256",
              "name": "timestamp",
              "type": "uint256"
            },
            {
              "internalType": "uint256",
              "name": "likes",
              "type": "uint256"
            }
          ],
          "internalType": "struct ConnectionUserRegistry.Message",
          "name": "",
          "type": "tuple"
        }
      ],
      "stateMutability": "view",
      "type": "function"
    },
    {
      "inputs": [
        {
          "internalType": "address",
          "name": "user",
          "type": "address"
        }
      ],
      "name": "getUserMessageIds",
      "outputs": [
        {
          "internalType": "uint256[]",
          "name": "",
          "type": "uint256[]"
        }
      ],
      "stateMutability": "view",
      "type": "function"
    },
    {
      "inputs": [
        {
          "internalType": "address",
          "name": "user",
          "type": "address"
        }
      ],
      "name": "getUsernameByAddress",
      "outputs": [
        {
          "internalType": "string",
          "name": "",
          "type": "string"
        }
      ],
      "stateMutability": "view",
      "type": "function"
    },
    {
      "inputs": [
        {
          "internalType": "uint256",
          "name": "start",
          "type": "uint256"
        },
        {
          "internalType": "uint256",
          "name": "limit",
          "type": "uint256"
        }
      ],
      "name": "getUsersPaginated",
      "outputs": [
        {
          "internalType": "address[]",
          "name": "addrs",
          "type": "address[]"
        },
        {
          "internalType": "string[]",
          "name": "names",
          "type": "string[]"
        },
        {
          "internalType": "uint256[]",
          "name": "times",
          "type": "uint256[]"
        }
      ],
      "stateMutability": "view",
      "type": "function"
    },
    {
      "inputs": [
        {
          "internalType": "uint256",
          "name": "messageId",
          "type": "uint256"
        },
        {
          "internalType": "address",
          "name": "user",
          "type": "address"
        }
      ],
      "name": "hasLiked",
      "outputs": [
        {
          "internalType": "bool",
          "name": "",
          "type": "bool"
        }
      ],
      "stateMutability": "view",
      "type": "function"
    },
    {
      "inputs": [
        {
          "internalType": "uint256",
          "name": "messageId",
          "type": "uint256"
        }
      ],
      "name": "likeMessage",
      "outputs": [],
      "stateMutability": "nonpayable",
      "type": "function"
    },
    {
      "inputs": [
        {
          "internalType": "uint256",
          "name": "",
          "type": "uint256"
        },
        {
          "internalType": "uint256",
          "name": "",
          "type": "uint256"
        }
      ],
      "name": "messageComments",
      "outputs": [
        {
          "internalType": "uint256",
          "name": "",
          "type": "uint256"
        }
      ],
      "stateMutability": "view",
      "type": "function"
    },
    {
      "inputs": [],
      "name": "messageCount",
      "outputs": [
        {
          "internalType": "uint256",
          "name": "",
          "type": "uint256"
        }
      ],
      "stateMutability": "view",
      "type": "function"
    },
    {
      "inputs": [],
      "name": "modificationFee",
      "outputs": [
        {
          "internalType": "uint256",
          "name": "",
          "type": "uint256"
        }
      ],
      "stateMutability": "view",
      "type": "function"
    },
    {
      "inputs": [
        {
          "internalType": "string",
          "name": "newUsername",
          "type": "string"
        }
      ],
      "name": "modifyUsername",
      "outputs": [],
      "stateMutability": "payable",
      "type": "function"
    },
    {
      "inputs": [],
      "name": "owner",
      "outputs": [
        {
          "internalType": "address",
          "name": "",
          "type": "address"
        }
      ],
      "stateMutability": "view",
      "type": "function"
    },
    {
      "inputs": [
        {
          "internalType": "string",
          "name": "content",
          "type": "string"
        }
      ],
      "name": "postMessage",
      "outputs": [],
      "stateMutability": "nonpayable",
      "type": "function"
    },
    {
      "inputs": [
        {
          "internalType": "string",
          "name": "username",
          "type": "string"
        }
      ],
      "name": "registerUsername",
      "outputs": [],
      "stateMutability": "payable",
      "type": "function"
    },
    {
      "inputs": [],
      "name": "registrationFee",
      "outputs": [
        {
          "internalType": "uint256",
          "name": "",
          "type": "uint256"
        }
      ],
      "stateMutability": "view",
      "type": "function"
    },
    {
      "inputs": [],
      "name": "renounceOwnership",
      "outputs": [],
      "stateMutability": "nonpayable",
      "type": "function"
    },
    {
      "inputs": [
        {
          "internalType": "uint256",
          "name": "_fee",
          "type": "uint256"
        }
      ],
      "name": "setDefaultCommentFee",
      "outputs": [],
      "stateMutability": "nonpayable",
      "type": "function"
    },
    {
      "inputs": [
        {
          "internalType": "address",
          "name": "newReceiver",
          "type": "address"
        }
      ],
      "name": "setFeeReceiver",
      "outputs": [],
      "stateMutability": "nonpayable",
      "type": "function"
    },
    {
      "inputs": [
        {
          "internalType": "uint256",
          "name": "fee",
          "type": "uint256"
        }
      ],
      "name": "setModificationFee",
      "outputs": [],
      "stateMutability": "nonpayable",
      "type": "function"
    },
    {
      "inputs": [
        {
          "internalType": "uint256",
          "name": "fee",
          "type": "uint256"
        }
      ],
      "name": "setRegistrationFee",
      "outputs": [],
      "stateMutability": "nonpayable",
      "type": "function"
    },
    {
      "inputs": [
        {
          "internalType": "uint256",
          "name": "_commentFee",
          "type": "uint256"
        }
      ],
      "name": "setUserCommentFee",
      "outputs": [],
      "stateMutability": "nonpayable",
      "type": "function"
    },
    {
      "inputs": [
        {
          "internalType": "enum ConnectionUserRegistry.AirdropPool",
          "name": "pool",
          "type": "uint8"
        },
        {
          "internalType": "uint256",
          "name": "totalCT",
          "type": "uint256"
        }
      ],
      "name": "startNewAirdropCycle",
      "outputs": [],
      "stateMutability": "nonpayable",
      "type": "function"
    },
    {
      "inputs": [],
      "name": "totalUsers",
      "outputs": [
        {
          "internalType": "uint256",
          "name": "",
          "type": "uint256"
        }
      ],
      "stateMutability": "view",
      "type": "function"
    },
    {
      "inputs": [
        {
          "internalType": "address",
          "name": "newOwner",
          "type": "address"
        }
      ],
      "name": "transferOwnership",
      "outputs": [],
      "stateMutability": "nonpayable",
      "type": "function"
    },
    {
      "inputs": [
        {
          "internalType": "uint256",
          "name": "",
          "type": "uint256"
        },
        {
          "internalType": "address",
          "name": "",
          "type": "address"
        }
      ],
      "name": "userCommentLikes",
      "outputs": [
        {
          "internalType": "bool",
          "name": "",
          "type": "bool"
        }
      ],
      "stateMutability": "view",
      "type": "function"
    },
    {
      "inputs": [
        {
          "internalType": "uint256",
          "name": "",
          "type": "uint256"
        },
        {
          "internalType": "address",
          "name": "",
          "type": "address"
        }
      ],
      "name": "userLikes",
      "outputs": [
        {
          "internalType": "bool",
          "name": "",
          "type": "bool"
        }
      ],
      "stateMutability": "view",
      "type": "function"
    },
    {
      "inputs": [
        {
          "internalType": "address",
          "name": "",
          "type": "address"
        },
        {
          "internalType": "uint256",
          "name": "",
          "type": "uint256"
        }
      ],
      "name": "userMessages",
      "outputs": [
        {
          "internalType": "uint256",
          "name": "",
          "type": "uint256"
        }
      ],
      "stateMutability": "view",
      "type": "function"
    },
    {
      "inputs": [
        {
          "internalType": "bytes32",
          "name": "",
          "type": "bytes32"
        }
      ],
      "name": "usernameHashToAddress",
      "outputs": [
        {
          "internalType": "address",
          "name": "",
          "type": "address"
        }
      ],
      "stateMutability": "view",
      "type": "function"
    },
    {
      "inputs": [
        {
          "internalType": "bytes32",
          "name": "",
          "type": "bytes32"
        }
      ],
      "name": "usernameHashToString",
      "outputs": [
        {
          "internalType": "string",
          "name": "",
          "type": "string"
        }
      ],
      "stateMutability": "view",
      "type": "function"
    },
    {
      "inputs": [
        {
          "internalType": "address",
          "name": "",
          "type": "address"
        }
      ],
      "name": "users",
      "outputs": [
        {
          "internalType": "bytes32",
          "name": "usernameHash",
          "type": "bytes32"
        },
        {
          "internalType": "uint256",
          "name": "registrationTime",
          "type": "uint256"
        },
        {
          "internalType": "uint256",
          "name": "commentFee",
          "type": "uint256"
        }
      ],
      "stateMutability": "view",
      "type": "function"
    },
    {
      "inputs": [],
      "name": "withdrawFee",
      "outputs": [],
      "stateMutability": "nonpayable",
      "type": "function"
    }
  ],
  "bytecode": "0x60a060405234801561001057600080fd5b50604051615ecf380380615ecf833981810160405281019061003291906102a5565b33600073ffffffffffffffffffffffffffffffffffffffff168173ffffffffffffffffffffffffffffffffffffffff16036100a55760006040517f1e4fbdf700000000000000000000000000000000000000000000000000000000815260040161009c919061031b565b60405180910390fd5b6100b48161014860201b60201c565b508373ffffffffffffffffffffffffffffffffffffffff1660808173ffffffffffffffffffffffffffffffffffffffff168152505082600581905550816006819055508060078190555033600860006101000a81548173ffffffffffffffffffffffffffffffffffffffff021916908373ffffffffffffffffffffffffffffffffffffffff16021790555050505050610336565b60008060009054906101000a900473ffffffffffffffffffffffffffffffffffffffff169050816000806101000a81548173ffffffffffffffffffffffffffffffffffffffff021916908373ffffffffffffffffffffffffffffffffffffffff1602179055508173ffffffffffffffffffffffffffffffffffffffff168173ffffffffffffffffffffffffffffffffffffffff167f8be0079c531659141344cd1fd0a4f28419497f9722a3daafe3b4186f6b6457e060405160405180910390a35050565b600080fd5b600073ffffffffffffffffffffffffffffffffffffffff82169050919050565b600061023c82610211565b9050919050565b61024c81610231565b811461025757600080fd5b50565b60008151905061026981610243565b92915050565b6000819050919050565b6102828161026f565b811461028d57600080fd5b50565b60008151905061029f81610279565b92915050565b600080600080608085870312156102bf576102be61020c565b5b60006102cd8782880161025a565b94505060206102de87828801610290565b93505060406102ef87828801610290565b925050606061030087828801610290565b91505092959194509250565b61031581610231565b82525050565b6000602082019050610330600083018461030c565b92915050565b608051615b6961036660003960008181611a1601528181612630015281816137050152613b4d0152615b696000f3fe6080604052600436106102885760003560e01c806386f79edb1161015a578063bff1f9e1116100c1578063e941fa781161007a578063e941fa7814610a89578063ed1a998d14610aa0578063ee442c2a14610add578063efdcd97414610b1a578063f2fde38b14610b43578063ffe3185714610b6c57610288565b8063bff1f9e114610965578063c320c72714610990578063c7a61a11146109b9578063d26aa5de146109fa578063d5a3bbca14610a23578063d9a0873114610a4c57610288565b80639b88c806116101135780639b88c806146108035780639ca654be146108445780639e19a1ca14610881578063a2bdedf4146108be578063a87430ba146108fb578063b3f006741461093a57610288565b806386f79edb146106dc5780638da5cb5b146107195780638fb7092c146107445780639428cda31461078157806397d687b2146107be57806399a0cf65146107e757610288565b80633dbcc8d1116101fe57806363dc0bb3116101b757806363dc0bb3146105b65780636630f88f146105f9578063715018a614610622578063742d9fcc14610639578063775dbe551461067657806381e6b76d146106b357610288565b80633dbcc8d11461047e5780634baeb4db146104a95780634d6fad09146104d2578063505163c8146104fd57806359be72ac1461053c5780636322961d1461057957610288565b80631858e678116102505780631858e678146103765780631cd896c1146103a157806320b52ee4146103cc578063228114af146103e857806336a941341461042557806338a0684c1461044157610288565b80630800e3001461028d5780630e45b00b146102ca57806312c3f754146102f557806314c44e0914610320578063155b1d981461034b575b600080fd5b34801561029957600080fd5b506102b460048036038101906102af9190613d48565b610b97565b6040516102c19190613ef1565b60405180910390f35b3480156102d657600080fd5b506102df610d34565b6040516102ec9190613f22565b60405180910390f35b34801561030157600080fd5b5061030a610d3c565b6040516103179190613f22565b60405180910390f35b34801561032c57600080fd5b50610335610d42565b6040516103429190613f22565b60405180910390f35b34801561035757600080fd5b50610360610d48565b60405161036d9190613f22565b60405180910390f35b34801561038257600080fd5b5061038b610d4d565b6040516103989190613f22565b60405180910390f35b3480156103ad57600080fd5b506103b6610d5a565b6040516103c39190613f22565b60405180910390f35b6103e660048036038101906103e19190614072565b610d5f565b005b3480156103f457600080fd5b5061040f600480360381019061040a9190614117565b61145c565b60405161041c9190614153565b60405180910390f35b61043f600480360381019061043a919061416e565b61148f565b005b34801561044d57600080fd5b50610468600480360381019061046391906141b7565b611717565b6040516104759190613f22565b60405180910390f35b34801561048a57600080fd5b50610493611748565b6040516104a09190613f22565b60405180910390f35b3480156104b557600080fd5b506104d060048036038101906104cb9190613d48565b611755565b005b3480156104de57600080fd5b506104e7611a14565b6040516104f49190614256565b60405180910390f35b34801561050957600080fd5b50610524600480360381019061051f91906141b7565b611a38565b60405161053393929190614491565b60405180910390f35b34801561054857600080fd5b50610563600480360381019061055e9190614509565b611ea0565b6040516105709190614564565b60405180910390f35b34801561058557600080fd5b506105a0600480360381019061059b919061416e565b611ecf565b6040516105ad9190614153565b60405180910390f35b3480156105c257600080fd5b506105dd60048036038101906105d89190613d48565b611f13565b6040516105f097969594939291906145c9565b60405180910390f35b34801561060557600080fd5b50610620600480360381019061061b919061416e565b61200d565b005b34801561062e57600080fd5b506106376122a0565b005b34801561064557600080fd5b50610660600480360381019061065b91906141b7565b6122b4565b60405161066d9190613f22565b60405180910390f35b34801561068257600080fd5b5061069d60048036038101906106989190614117565b6122e5565b6040516106aa919061463f565b60405180910390f35b3480156106bf57600080fd5b506106da60048036038101906106d59190613d48565b612385565b005b3480156106e857600080fd5b5061070360048036038101906106fe9190613d48565b612397565b60405161071091906146d7565b60405180910390f35b34801561072557600080fd5b5061072e612520565b60405161073b9190614153565b60405180910390f35b34801561075057600080fd5b5061076b60048036038101906107669190614509565b612549565b6040516107789190614564565b60405180910390f35b34801561078d57600080fd5b506107a860048036038101906107a391906146f9565b6125b1565b6040516107b59190613f22565b60405180910390f35b3480156107ca57600080fd5b506107e560048036038101906107e0919061475e565b6125e2565b005b61080160048036038101906107fc919061416e565b6127cb565b005b34801561080f57600080fd5b5061082a60048036038101906108259190613d48565b612b3d565b60405161083b95949392919061479e565b60405180910390f35b34801561085057600080fd5b5061086b600480360381019061086691906147f8565b612c2b565b6040516108789190613f22565b60405180910390f35b34801561088d57600080fd5b506108a860048036038101906108a39190613d48565b612c3d565b6040516108b5919061495d565b60405180910390f35b3480156108ca57600080fd5b506108e560048036038101906108e09190613d48565b612eb2565b6040516108f29190614153565b60405180910390f35b34801561090757600080fd5b50610922600480360381019061091d919061497f565b612ef1565b604051610931939291906149bb565b60405180910390f35b34801561094657600080fd5b5061094f612f1b565b60405161095c9190614153565b60405180910390f35b34801561097157600080fd5b5061097a612f41565b6040516109879190613f22565b60405180910390f35b34801561099c57600080fd5b506109b760048036038101906109b29190613d48565b612f4e565b005b3480156109c557600080fd5b506109e060048036038101906109db91906147f8565b612f60565b6040516109f19594939291906149f2565b60405180910390f35b348015610a0657600080fd5b50610a216004803603810190610a1c9190613d48565b612f96565b005b348015610a2f57600080fd5b50610a4a6004803603810190610a459190613d48565b612fa8565b005b348015610a5857600080fd5b50610a736004803603810190610a6e9190614509565b6130c5565b604051610a809190614564565b60405180910390f35b348015610a9557600080fd5b50610a9e6130f4565b005b348015610aac57600080fd5b50610ac76004803603810190610ac2919061497f565b61334b565b604051610ad4919061463f565b60405180910390f35b348015610ae957600080fd5b50610b046004803603810190610aff919061497f565b613458565b604051610b119190614a45565b60405180910390f35b348015610b2657600080fd5b50610b416004803603810190610b3c919061497f565b6134ef565b005b348015610b4f57600080fd5b50610b6a6004803603810190610b65919061497f565b613626565b005b348015610b7857600080fd5b50610b816136ac565b604051610b8e9190613f22565b60405180910390f35b610b9f613c09565b600b805490508210610be6576040517f08c379a0000000000000000000000000000000000000000000000000000000008152600401610bdd90614ab3565b60405180910390fd5b600b8281548110610bfa57610bf9614ad3565b5b90600052602060002090600702016040518060e0016040529081600082015481526020016001820160009054906101000a900473ffffffffffffffffffffffffffffffffffffffff1673ffffffffffffffffffffffffffffffffffffffff1673ffffffffffffffffffffffffffffffffffffffff168152602001600282018054610c8390614b31565b80601f0160208091040260200160405190810160405280929190818152602001828054610caf90614b31565b8015610cfc5780601f10610cd157610100808354040283529160200191610cfc565b820191906000526020600020905b815481529060010190602001808311610cdf57829003601f168201915b505050505081526020016003820154815260200160048201548152602001600582015481526020016006820154815250509050919050565b630784ce0081565b60065481565b60055481565b600381565b6000600a80549050905090565b602081565b6000600160003373ffffffffffffffffffffffffffffffffffffffff1673ffffffffffffffffffffffffffffffffffffffff1681526020019081526020016000206001015403610de4576040517f08c379a0000000000000000000000000000000000000000000000000000000008152600401610ddb90614bae565b60405180910390fd5b600a805490508310610e2b576040517f08c379a0000000000000000000000000000000000000000000000000000000008152600401610e2290614c1a565b60405180910390fd5b60008151118015610e3f5750610118815111155b610e7e576040517f08c379a0000000000000000000000000000000000000000000000000000000008152600401610e7590614c86565b60405180910390fd5b6000600a8481548110610e9457610e93614ad3565b5b906000526020600020906005020190506000600160008360010160009054906101000a900473ffffffffffffffffffffffffffffffffffffffff1673ffffffffffffffffffffffffffffffffffffffff1673ffffffffffffffffffffffffffffffffffffffff1681526020019081526020016000206002015490506000808211610f2057600754610f22565b815b90506000600d600088815260200190815260200160002080549050036111635780341015610f85576040517f08c379a0000000000000000000000000000000000000000000000000000000008152600401610f7c90614cf2565b60405180910390fd5b600081111561115e5760006064605083610f9f9190614d41565b610fa99190614db2565b905060008183610fb99190614de3565b905060008560010160009054906101000a900473ffffffffffffffffffffffffffffffffffffffff1673ffffffffffffffffffffffffffffffffffffffff168360405161100590614e48565b60006040518083038185875af1925050503d8060008114611042576040519150601f19603f3d011682016040523d82523d6000602084013e611047565b606091505b505090508061108b576040517f08c379a000000000000000000000000000000000000000000000000000000000815260040161108290614ea9565b60405180910390fd5b6000600860009054906101000a900473ffffffffffffffffffffffffffffffffffffffff1673ffffffffffffffffffffffffffffffffffffffff16836040516110d390614e48565b60006040518083038185875af1925050503d8060008114611110576040519150601f19603f3d011682016040523d82523d6000602084013e611115565b606091505b5050905080611159576040517f08c379a000000000000000000000000000000000000000000000000000000000815260040161115090614f15565b60405180910390fd5b505050505b6111a7565b600034146111a6576040517f08c379a000000000000000000000000000000000000000000000000000000000815260040161119d90614f81565b60405180910390fd5b5b6000851461125e57600b8054905085106111f6576040517f08c379a00000000000000000000000000000000000000000000000000000000081526004016111ed90614fed565b60405180910390fd5b85600b868154811061120b5761120a614ad3565b5b9060005260206000209060070201600501541461125d576040517f08c379a000000000000000000000000000000000000000000000000000000000815260040161125490615059565b60405180910390fd5b5b6000600b80549050905060006040518060e001604052808381526020013373ffffffffffffffffffffffffffffffffffffffff16815260200187815260200142815260200160008152602001898152602001888152509050600b8190806001815401808255809150506001900390600052602060002090600702016000909190919091506000820151816000015560208201518160010160006101000a81548173ffffffffffffffffffffffffffffffffffffffff021916908373ffffffffffffffffffffffffffffffffffffffff1602179055506040820151816002019081611348919061521b565b50606082015181600301556080820151816004015560a0820151816005015560c082015181600601555050600087036113ba57600d60008981526020019081526020016000208290806001815401808255809150506001900390600052602060002001600090919091909150556113f5565b600e60008881526020019081526020016000208290806001815401808255809150506001900390600052602060002001600090919091909150555b6114006001346136b2565b873373ffffffffffffffffffffffffffffffffffffffff16837f0787f7b14358375cd4ea69957646c8c250627f2f80733ea30c22af16c4c43e018a8a60405161144a9291906152ed565b60405180910390a45050505050505050565b60026020528060005260406000206000915054906101000a900473ffffffffffffffffffffffffffffffffffffffff1681565b6005543410156114d4576040517f08c379a00000000000000000000000000000000000000000000000000000000081526004016114cb90615369565b60405180910390fd5b6000600160003373ffffffffffffffffffffffffffffffffffffffff1673ffffffffffffffffffffffffffffffffffffffff1681526020019081526020016000206001015414611559576040517f08c379a0000000000000000000000000000000000000000000000000000000008152600401611550906153d5565b60405180910390fd5b60006115648261381d565b905060405180606001604052808281526020014281526020016000815250600160003373ffffffffffffffffffffffffffffffffffffffff1673ffffffffffffffffffffffffffffffffffffffff168152602001908152602001600020600082015181600001556020820151816001015560408201518160020155905050336002600083815260200190815260200160002060006101000a81548173ffffffffffffffffffffffffffffffffffffffff021916908373ffffffffffffffffffffffffffffffffffffffff16021790555081600360008381526020019081526020016000209081611654919061521b565b506004339080600181540180825580915050600190039060005260206000200160009091909190916101000a81548173ffffffffffffffffffffffffffffffffffffffff021916908373ffffffffffffffffffffffffffffffffffffffff1602179055506116c36000346136b2565b3373ffffffffffffffffffffffffffffffffffffffff167f0a09fa67e91ea818e53d712f63caf32f685bed0c54acdb1cebf8f63a36b454aa833460405161170b9291906153f5565b60405180910390a25050565b600d602052816000526040600020818154811061173357600080fd5b90600052602060002001600091509150505481565b6000600a80549050905090565b600a80549050811061179c576040517f08c379a000000000000000000000000000000000000000000000000000000000815260040161179390614c1a565b60405180910390fd5b3373ffffffffffffffffffffffffffffffffffffffff16600a82815481106117c7576117c6614ad3565b5b906000526020600020906005020160010160009054906101000a900473ffffffffffffffffffffffffffffffffffffffff1673ffffffffffffffffffffffffffffffffffffffff160361184f576040517f08c379a000000000000000000000000000000000000000000000000000000000815260040161184690615471565b60405180910390fd5b600f600082815260200190815260200160002060003373ffffffffffffffffffffffffffffffffffffffff1673ffffffffffffffffffffffffffffffffffffffff16815260200190815260200160002060009054906101000a900460ff16156118ed576040517f08c379a00000000000000000000000000000000000000000000000000000000081526004016118e4906154dd565b60405180910390fd5b6001600f600083815260200190815260200160002060003373ffffffffffffffffffffffffffffffffffffffff1673ffffffffffffffffffffffffffffffffffffffff16815260200190815260200160002060006101000a81548160ff021916908315150217905550600a818154811061196a57611969614ad3565b5b9060005260206000209060050201600401600081548092919061198c906154fd565b919050555061199d600160006136b2565b3373ffffffffffffffffffffffffffffffffffffffff16817f38a8c1d205b30e16645d10e3aff49c1332976048452980d8f1e295151d318983600a84815481106119ea576119e9614ad3565b5b906000526020600020906005020160040154604051611a099190613f22565b60405180910390a350565b7f000000000000000000000000000000000000000000000000000000000000000081565b60608060606004805490508510611b3757600067ffffffffffffffff811115611a6457611a63613f47565b5b604051908082528060200260200182016040528015611a925781602001602082028036833780820191505090505b50600067ffffffffffffffff811115611aae57611aad613f47565b5b604051908082528060200260200182016040528015611ae157816020015b6060815260200190600190039081611acc5790505b50600067ffffffffffffffff811115611afd57611afc613f47565b5b604051908082528060200260200182016040528015611b2b5781602001602082028036833780820191505090505b50925092509250611e99565b60008486611b459190615545565b9050600480549050811115611b5d5760048054905090505b8581611b699190614de3565b67ffffffffffffffff811115611b8257611b81613f47565b5b604051908082528060200260200182016040528015611bb05781602001602082028036833780820191505090505b5093508581611bbf9190614de3565b67ffffffffffffffff811115611bd857611bd7613f47565b5b604051908082528060200260200182016040528015611c0b57816020015b6060815260200190600190039081611bf65790505b5092508581611c1a9190614de3565b67ffffffffffffffff811115611c3357611c32613f47565b5b604051908082528060200260200182016040528015611c615781602001602082028036833780820191505090505b50915060008690505b81811015611e9657600060048281548110611c8857611c87614ad3565b5b9060005260206000200160009054906101000a900473ffffffffffffffffffffffffffffffffffffffff1690506000600160008373ffffffffffffffffffffffffffffffffffffffff1673ffffffffffffffffffffffffffffffffffffffff16815260200190815260200160002060000154905081878a85611d0a9190614de3565b81518110611d1b57611d1a614ad3565b5b602002602001019073ffffffffffffffffffffffffffffffffffffffff16908173ffffffffffffffffffffffffffffffffffffffff1681525050600360008281526020019081526020016000208054611d7390614b31565b80601f0160208091040260200160405190810160405280929190818152602001828054611d9f90614b31565b8015611dec5780601f10611dc157610100808354040283529160200191611dec565b820191906000526020600020905b815481529060010190602001808311611dcf57829003601f168201915b5050505050868a85611dfe9190614de3565b81518110611e0f57611e0e614ad3565b5b6020026020010181905250600160008373ffffffffffffffffffffffffffffffffffffffff1673ffffffffffffffffffffffffffffffffffffffff16815260200190815260200160002060010154858a85611e6a9190614de3565b81518110611e7b57611e7a614ad3565b5b60200260200101818152505050508080600101915050611c6a565b50505b9250925092565b600f6020528160005260406000206020528060005260406000206000915091509054906101000a900460ff1681565b6000600260008380519060200120815260200190815260200160002060009054906101000a900473ffffffffffffffffffffffffffffffffffffffff169050919050565b600b8181548110611f2357600080fd5b90600052602060002090600702016000915090508060000154908060010160009054906101000a900473ffffffffffffffffffffffffffffffffffffffff1690806002018054611f7290614b31565b80601f0160208091040260200160405190810160405280929190818152602001828054611f9e90614b31565b8015611feb5780601f10611fc057610100808354040283529160200191611feb565b820191906000526020600020905b815481529060010190602001808311611fce57829003601f168201915b5050505050908060030154908060040154908060050154908060060154905087565b6000600160003373ffffffffffffffffffffffffffffffffffffffff1673ffffffffffffffffffffffffffffffffffffffff1681526020019081526020016000206001015403612092576040517f08c379a000000000000000000000000000000000000000000000000000000000815260040161208990614bae565b60405180910390fd5b600081511180156120a65750610118815111155b6120e5576040517f08c379a00000000000000000000000000000000000000000000000000000000081526004016120dc90614c86565b60405180910390fd5b6000600a80549050905060006040518060a001604052808381526020013373ffffffffffffffffffffffffffffffffffffffff16815260200184815260200142815260200160008152509050600a8190806001815401808255809150506001900390600052602060002090600502016000909190919091506000820151816000015560208201518160010160006101000a81548173ffffffffffffffffffffffffffffffffffffffff021916908373ffffffffffffffffffffffffffffffffffffffff16021790555060408201518160020190816121c3919061521b565b5060608201518160030155608082015181600401555050600c60003373ffffffffffffffffffffffffffffffffffffffff1673ffffffffffffffffffffffffffffffffffffffff16815260200190815260200160002082908060018154018082558091505060019003906000526020600020016000909190919091505561224c600160006136b2565b3373ffffffffffffffffffffffffffffffffffffffff16827f16effde6b8c5f78279aca5974057ff6b6fd8c9ab5e96994c7f1b62cbfcbbd78b85604051612293919061463f565b60405180910390a3505050565b6122a861392e565b6122b260006139b5565b565b600e60205281600052604060002081815481106122d057600080fd5b90600052602060002001600091509150505481565b6003602052806000526040600020600091509050805461230490614b31565b80601f016020809104026020016040519081016040528092919081815260200182805461233090614b31565b801561237d5780601f106123525761010080835404028352916020019161237d565b820191906000526020600020905b81548152906001019060200180831161236057829003601f168201915b505050505081565b61238d61392e565b8060068190555050565b61239f613c5c565b600a8054905082106123e6576040517f08c379a00000000000000000000000000000000000000000000000000000000081526004016123dd90614c1a565b60405180910390fd5b600a82815481106123fa576123f9614ad3565b5b90600052602060002090600502016040518060a0016040529081600082015481526020016001820160009054906101000a900473ffffffffffffffffffffffffffffffffffffffff1673ffffffffffffffffffffffffffffffffffffffff1673ffffffffffffffffffffffffffffffffffffffff16815260200160028201805461248390614b31565b80601f01602080910402602001604051908101604052809291908181526020018280546124af90614b31565b80156124fc5780601f106124d1576101008083540402835291602001916124fc565b820191906000526020600020905b8154815290600101906020018083116124df57829003601f168201915b50505050508152602001600382015481526020016004820154815250509050919050565b60008060009054906101000a900473ffffffffffffffffffffffffffffffffffffffff16905090565b6000600f600084815260200190815260200160002060008373ffffffffffffffffffffffffffffffffffffffff1673ffffffffffffffffffffffffffffffffffffffff16815260200190815260200160002060009054906101000a900460ff16905092915050565b600c60205281600052604060002081815481106125cd57600080fd5b90600052602060002001600091509150505481565b6125ea61392e565b6000811161262d576040517f08c379a0000000000000000000000000000000000000000000000000000000008152600401612624906155c5565b60405180910390fd5b807f000000000000000000000000000000000000000000000000000000000000000073ffffffffffffffffffffffffffffffffffffffff166370a08231306040518263ffffffff1660e01b81526004016126879190614153565b602060405180830381865afa1580156126a4573d6000803e3d6000fd5b505050506040513d601f19601f820116820180604052508101906126c891906155fa565b1015612709576040517f08c379a000000000000000000000000000000000000000000000000000000000815260040161270090615673565b60405180910390fd5b60006009600084600181111561272257612721615693565b5b600181111561273457612733615693565b5b81526020019081526020016000209050428160000181905550630784ce004261275d9190615545565b8160010181905550818160020181905550600081600301819055504281600401819055507fb7c06c7611916bf804d0480569de0a33ebe958a0712ac33a5ad897085d94fc8e8382600001548360010154856040516127be949392919061570a565b60405180910390a1505050565b6000600160003373ffffffffffffffffffffffffffffffffffffffff1673ffffffffffffffffffffffffffffffffffffffff1681526020019081526020016000206001015403612850576040517f08c379a00000000000000000000000000000000000000000000000000000000081526004016128479061579b565b60405180910390fd5b600654341015612895576040517f08c379a000000000000000000000000000000000000000000000000000000000815260040161288c90615369565b60405180910390fd5b600060036000600160003373ffffffffffffffffffffffffffffffffffffffff1673ffffffffffffffffffffffffffffffffffffffff16815260200190815260200160002060000154815260200190815260200160002080546128f790614b31565b80601f016020809104026020016040519081016040528092919081815260200182805461292390614b31565b80156129705780601f1061294557610100808354040283529160200191612970565b820191906000526020600020905b81548152906001019060200180831161295357829003601f168201915b505050505090506000600160003373ffffffffffffffffffffffffffffffffffffffff1673ffffffffffffffffffffffffffffffffffffffff16815260200190815260200160002060000154905060006129c98461381d565b90506002600083815260200190815260200160002060006101000a81549073ffffffffffffffffffffffffffffffffffffffff0219169055600360008381526020019081526020016000206000612a209190613ca1565b80600160003373ffffffffffffffffffffffffffffffffffffffff1673ffffffffffffffffffffffffffffffffffffffff16815260200190815260200160002060000181905550336002600083815260200190815260200160002060006101000a81548173ffffffffffffffffffffffffffffffffffffffff021916908373ffffffffffffffffffffffffffffffffffffffff16021790555083600360008381526020019081526020016000209081612ad9919061521b565b50612ae56000346136b2565b3373ffffffffffffffffffffffffffffffffffffffff167f8a2b28ab3f563bd1ac17a48f0f701c3b6a857357bec60220992c2608c5f2c700848634604051612b2f939291906157bb565b60405180910390a250505050565b600a8181548110612b4d57600080fd5b90600052602060002090600502016000915090508060000154908060010160009054906101000a900473ffffffffffffffffffffffffffffffffffffffff1690806002018054612b9c90614b31565b80601f0160208091040260200160405190810160405280929190818152602001828054612bc890614b31565b8015612c155780601f10612bea57610100808354040283529160200191612c15565b820191906000526020600020905b815481529060010190602001808311612bf857829003601f168201915b5050505050908060030154908060040154905085565b6000612c3682613a79565b9050919050565b60606000600a80549050905060008103612cae57600067ffffffffffffffff811115612c6c57612c6b613f47565b5b604051908082528060200260200182016040528015612ca557816020015b612c92613c5c565b815260200190600190039081612c8a5790505b50915050612ead565b6000839050600082851115612cc95782915060009050612cd8565b8483612cd59190614de3565b90505b60008267ffffffffffffffff811115612cf457612cf3613f47565b5b604051908082528060200260200182016040528015612d2d57816020015b612d1a613c5c565b815260200190600190039081612d125790505b50905060005b83811015612ea457600a8184612d499190615545565b81548110612d5a57612d59614ad3565b5b90600052602060002090600502016040518060a0016040529081600082015481526020016001820160009054906101000a900473ffffffffffffffffffffffffffffffffffffffff1673ffffffffffffffffffffffffffffffffffffffff1673ffffffffffffffffffffffffffffffffffffffff168152602001600282018054612de390614b31565b80601f0160208091040260200160405190810160405280929190818152602001828054612e0f90614b31565b8015612e5c5780601f10612e3157610100808354040283529160200191612e5c565b820191906000526020600020905b815481529060010190602001808311612e3f57829003601f168201915b5050505050815260200160038201548152602001600482015481525050828281518110612e8c57612e8b614ad3565b5b60200260200101819052508080600101915050612d33565b50809450505050505b919050565b60048181548110612ec257600080fd5b906000526020600020016000915054906101000a900473ffffffffffffffffffffffffffffffffffffffff1681565b60016020528060005260406000206000915090508060000154908060010154908060020154905083565b600860009054906101000a900473ffffffffffffffffffffffffffffffffffffffff1681565b6000600480549050905090565b612f5661392e565b8060058190555050565b60096020528060005260406000206000915090508060000154908060010154908060020154908060030154908060040154905085565b612f9e61392e565b8060078190555050565b6000600160003373ffffffffffffffffffffffffffffffffffffffff1673ffffffffffffffffffffffffffffffffffffffff168152602001908152602001600020600101540361302d576040517f08c379a000000000000000000000000000000000000000000000000000000000815260040161302490614bae565b60405180910390fd5b80600160003373ffffffffffffffffffffffffffffffffffffffff1673ffffffffffffffffffffffffffffffffffffffff168152602001908152602001600020600201819055503373ffffffffffffffffffffffffffffffffffffffff167f49b65d436fe4069bb1946f0ab3b1f78259ccdb660e1f18734a917b039cf20b04826040516130ba9190613f22565b60405180910390a250565b60106020528160005260406000206020528060005260406000206000915091509054906101000a900460ff1681565b6130fc612520565b73ffffffffffffffffffffffffffffffffffffffff163373ffffffffffffffffffffffffffffffffffffffff1614806131825750600860009054906101000a900473ffffffffffffffffffffffffffffffffffffffff1673ffffffffffffffffffffffffffffffffffffffff163373ffffffffffffffffffffffffffffffffffffffff16145b6131c1576040517f08c379a00000000000000000000000000000000000000000000000000000000081526004016131b89061584c565b60405180910390fd5b600047905060008111613209576040517f08c379a0000000000000000000000000000000000000000000000000000000008152600401613200906158b8565b60405180910390fd5b600860009054906101000a900473ffffffffffffffffffffffffffffffffffffffff1673ffffffffffffffffffffffffffffffffffffffff167f78473f3f373f7673597f4f0fa5873cb4d375fea6d4339ad6b56dbd411513cb3f826040516132719190613f22565b60405180910390a26000600860009054906101000a900473ffffffffffffffffffffffffffffffffffffffff1673ffffffffffffffffffffffffffffffffffffffff16826040516132c190614e48565b60006040518083038185875af1925050503d80600081146132fe576040519150601f19603f3d011682016040523d82523d6000602084013e613303565b606091505b5050905080613347576040517f08c379a000000000000000000000000000000000000000000000000000000000815260040161333e90615924565b60405180910390fd5b5050565b60606000600160008473ffffffffffffffffffffffffffffffffffffffff1673ffffffffffffffffffffffffffffffffffffffff1681526020019081526020016000206000015490506000801b811461343f576003600082815260200190815260200160002080546133bc90614b31565b80601f01602080910402602001604051908101604052809291908181526020018280546133e890614b31565b80156134355780601f1061340a57610100808354040283529160200191613435565b820191906000526020600020905b81548152906001019060200180831161341857829003601f168201915b5050505050613450565b604051806020016040528060008152505b915050919050565b6060600c60008373ffffffffffffffffffffffffffffffffffffffff1673ffffffffffffffffffffffffffffffffffffffff1681526020019081526020016000208054806020026020016040519081016040528092919081815260200182805480156134e357602002820191906000526020600020905b8154815260200190600101908083116134cf575b50505050509050919050565b6134f761392e565b600073ffffffffffffffffffffffffffffffffffffffff168173ffffffffffffffffffffffffffffffffffffffff1603613566576040517f08c379a000000000000000000000000000000000000000000000000000000000815260040161355d90615990565b60405180910390fd5b8073ffffffffffffffffffffffffffffffffffffffff16600860009054906101000a900473ffffffffffffffffffffffffffffffffffffffff1673ffffffffffffffffffffffffffffffffffffffff167fa4b009cc442411b602eaf94bc0579b6abdb8fd90b4ef5b9426e270038906bd0360405160405180910390a380600860006101000a81548173ffffffffffffffffffffffffffffffffffffffff021916908373ffffffffffffffffffffffffffffffffffffffff16021790555050565b61362e61392e565b600073ffffffffffffffffffffffffffffffffffffffff168173ffffffffffffffffffffffffffffffffffffffff16036136a05760006040517f1e4fbdf70000000000000000000000000000000000000000000000000000000081526004016136979190614153565b60405180910390fd5b6136a9816139b5565b50565b60075481565b6000600960008460018111156136cb576136ca615693565b5b60018111156136dd576136dc615693565b5b8152602001908152602001600020905060006136f884613a79565b90506000811115613817577f000000000000000000000000000000000000000000000000000000000000000073ffffffffffffffffffffffffffffffffffffffff1663a9059cbb33836040518363ffffffff1660e01b815260040161375e9291906159b0565b6020604051808303816000875af115801561377d573d6000803e3d6000fd5b505050506040513d601f19601f820116820180604052508101906137a19190615a05565b50808260030160008282546137b69190615545565b925050819055504282600401819055503373ffffffffffffffffffffffffffffffffffffffff167f171b2f9dc7a4c7eaa8ca718bcac62fbec15d147f033f38e42971b7ccabe9a469848360405161380e929190615a32565b60405180910390a25b50505050565b600080829050600381511015801561383757506020815111155b613876576040517f08c379a000000000000000000000000000000000000000000000000000000000815260040161386d90615aa7565b60405180910390fd5b600081805190602001209050600073ffffffffffffffffffffffffffffffffffffffff166002600083815260200190815260200160002060009054906101000a900473ffffffffffffffffffffffffffffffffffffffff1673ffffffffffffffffffffffffffffffffffffffff1614613924576040517f08c379a000000000000000000000000000000000000000000000000000000000815260040161391b90615b13565b60405180910390fd5b8092505050919050565b613936613c01565b73ffffffffffffffffffffffffffffffffffffffff16613954612520565b73ffffffffffffffffffffffffffffffffffffffff16146139b357613977613c01565b6040517f118cdaa70000000000000000000000000000000000000000000000000000000081526004016139aa9190614153565b60405180910390fd5b565b60008060009054906101000a900473ffffffffffffffffffffffffffffffffffffffff169050816000806101000a81548173ffffffffffffffffffffffffffffffffffffffff021916908373ffffffffffffffffffffffffffffffffffffffff1602179055508173ffffffffffffffffffffffffffffffffffffffff168173ffffffffffffffffffffffffffffffffffffffff167f8be0079c531659141344cd1fd0a4f28419497f9722a3daafe3b4186f6b6457e060405160405180910390a35050565b60008060096000846001811115613a9357613a92615693565b5b6001811115613aa557613aa4615693565b5b81526020019081526020016000209050806001015442101580613acc575060008160020154145b15613adb576000915050613bfc565b6000816004015442613aed9190614de3565b905060008103613b0257600092505050613bfc565b6000630784ce00836002015483613b199190614d41565b613b239190614db2565b9050600083600301548460020154613b3b9190614de3565b905080821115613b49578091505b60007f000000000000000000000000000000000000000000000000000000000000000073ffffffffffffffffffffffffffffffffffffffff166370a08231306040518263ffffffff1660e01b8152600401613ba49190614153565b602060405180830381865afa158015613bc1573d6000803e3d6000fd5b505050506040513d601f19601f82011682018060405250810190613be591906155fa565b905080831115613bf3578092505b82955050505050505b919050565b600033905090565b6040518060e0016040528060008152602001600073ffffffffffffffffffffffffffffffffffffffff16815260200160608152602001600081526020016000815260200160008152602001600081525090565b6040518060a0016040528060008152602001600073ffffffffffffffffffffffffffffffffffffffff1681526020016060815260200160008152602001600081525090565b508054613cad90614b31565b6000825580601f10613cbf5750613cde565b601f016020900490600052602060002090810190613cdd9190613ce1565b5b50565b5b80821115613cfa576000816000905550600101613ce2565b5090565b6000604051905090565b600080fd5b600080fd5b6000819050919050565b613d2581613d12565b8114613d3057600080fd5b50565b600081359050613d4281613d1c565b92915050565b600060208284031215613d5e57613d5d613d08565b5b6000613d6c84828501613d33565b91505092915050565b613d7e81613d12565b82525050565b600073ffffffffffffffffffffffffffffffffffffffff82169050919050565b6000613daf82613d84565b9050919050565b613dbf81613da4565b82525050565b600081519050919050565b600082825260208201905092915050565b60005b83811015613dff578082015181840152602081019050613de4565b60008484015250505050565b6000601f19601f8301169050919050565b6000613e2782613dc5565b613e318185613dd0565b9350613e41818560208601613de1565b613e4a81613e0b565b840191505092915050565b600060e083016000830151613e6d6000860182613d75565b506020830151613e806020860182613db6565b5060408301518482036040860152613e988282613e1c565b9150506060830151613ead6060860182613d75565b506080830151613ec06080860182613d75565b5060a0830151613ed360a0860182613d75565b5060c0830151613ee660c0860182613d75565b508091505092915050565b60006020820190508181036000830152613f0b8184613e55565b905092915050565b613f1c81613d12565b82525050565b6000602082019050613f376000830184613f13565b92915050565b600080fd5b600080fd5b7f4e487b7100000000000000000000000000000000000000000000000000000000600052604160045260246000fd5b613f7f82613e0b565b810181811067ffffffffffffffff82111715613f9e57613f9d613f47565b5b80604052505050565b6000613fb1613cfe565b9050613fbd8282613f76565b919050565b600067ffffffffffffffff821115613fdd57613fdc613f47565b5b613fe682613e0b565b9050602081019050919050565b82818337600083830152505050565b600061401561401084613fc2565b613fa7565b90508281526020810184848401111561403157614030613f42565b5b61403c848285613ff3565b509392505050565b600082601f83011261405957614058613f3d565b5b8135614069848260208601614002565b91505092915050565b60008060006060848603121561408b5761408a613d08565b5b600061409986828701613d33565b93505060206140aa86828701613d33565b925050604084013567ffffffffffffffff8111156140cb576140ca613d0d565b5b6140d786828701614044565b9150509250925092565b6000819050919050565b6140f4816140e1565b81146140ff57600080fd5b50565b600081359050614111816140eb565b92915050565b60006020828403121561412d5761412c613d08565b5b600061413b84828501614102565b91505092915050565b61414d81613da4565b82525050565b60006020820190506141686000830184614144565b92915050565b60006020828403121561418457614183613d08565b5b600082013567ffffffffffffffff8111156141a2576141a1613d0d565b5b6141ae84828501614044565b91505092915050565b600080604083850312156141ce576141cd613d08565b5b60006141dc85828601613d33565b92505060206141ed85828601613d33565b9150509250929050565b6000819050919050565b600061421c61421761421284613d84565b6141f7565b613d84565b9050919050565b600061422e82614201565b9050919050565b600061424082614223565b9050919050565b61425081614235565b82525050565b600060208201905061426b6000830184614247565b92915050565b600081519050919050565b600082825260208201905092915050565b6000819050602082019050919050565b60006142a98383613db6565b60208301905092915050565b6000602082019050919050565b60006142cd82614271565b6142d7818561427c565b93506142e28361428d565b8060005b838110156143135781516142fa888261429d565b9750614305836142b5565b9250506001810190506142e6565b5085935050505092915050565b600081519050919050565b600082825260208201905092915050565b6000819050602082019050919050565b60006143588383613e1c565b905092915050565b6000602082019050919050565b600061437882614320565b614382818561432b565b9350836020820285016143948561433c565b8060005b858110156143d057848403895281516143b1858261434c565b94506143bc83614360565b925060208a01995050600181019050614398565b50829750879550505050505092915050565b600081519050919050565b600082825260208201905092915050565b6000819050602082019050919050565b600061441a8383613d75565b60208301905092915050565b6000602082019050919050565b600061443e826143e2565b61444881856143ed565b9350614453836143fe565b8060005b8381101561448457815161446b888261440e565b975061447683614426565b925050600181019050614457565b5085935050505092915050565b600060608201905081810360008301526144ab81866142c2565b905081810360208301526144bf818561436d565b905081810360408301526144d38184614433565b9050949350505050565b6144e681613da4565b81146144f157600080fd5b50565b600081359050614503816144dd565b92915050565b600080604083850312156145205761451f613d08565b5b600061452e85828601613d33565b925050602061453f858286016144f4565b9150509250929050565b60008115159050919050565b61455e81614549565b82525050565b60006020820190506145796000830184614555565b92915050565b600082825260208201905092915050565b600061459b82613dc5565b6145a5818561457f565b93506145b5818560208601613de1565b6145be81613e0b565b840191505092915050565b600060e0820190506145de600083018a613f13565b6145eb6020830189614144565b81810360408301526145fd8188614590565b905061460c6060830187613f13565b6146196080830186613f13565b61462660a0830185613f13565b61463360c0830184613f13565b98975050505050505050565b600060208201905081810360008301526146598184614590565b905092915050565b600060a0830160008301516146796000860182613d75565b50602083015161468c6020860182613db6565b50604083015184820360408601526146a48282613e1c565b91505060608301516146b96060860182613d75565b5060808301516146cc6080860182613d75565b508091505092915050565b600060208201905081810360008301526146f18184614661565b905092915050565b600080604083850312156147105761470f613d08565b5b600061471e858286016144f4565b925050602061472f85828601613d33565b9150509250929050565b6002811061474657600080fd5b50565b60008135905061475881614739565b92915050565b6000806040838503121561477557614774613d08565b5b600061478385828601614749565b925050602061479485828601613d33565b9150509250929050565b600060a0820190506147b36000830188613f13565b6147c06020830187614144565b81810360408301526147d28186614590565b90506147e16060830185613f13565b6147ee6080830184613f13565b9695505050505050565b60006020828403121561480e5761480d613d08565b5b600061481c84828501614749565b91505092915050565b600081519050919050565b600082825260208201905092915050565b6000819050602082019050919050565b600060a0830160008301516148696000860182613d75565b50602083015161487c6020860182613db6565b50604083015184820360408601526148948282613e1c565b91505060608301516148a96060860182613d75565b5060808301516148bc6080860182613d75565b508091505092915050565b60006148d38383614851565b905092915050565b6000602082019050919050565b60006148f382614825565b6148fd8185614830565b93508360208202850161490f85614841565b8060005b8581101561494b578484038952815161492c85826148c7565b9450614937836148db565b925060208a01995050600181019050614913565b50829750879550505050505092915050565b6000602082019050818103600083015261497781846148e8565b905092915050565b60006020828403121561499557614994613d08565b5b60006149a3848285016144f4565b91505092915050565b6149b5816140e1565b82525050565b60006060820190506149d060008301866149ac565b6149dd6020830185613f13565b6149ea6040830184613f13565b949350505050565b600060a082019050614a076000830188613f13565b614a146020830187613f13565b614a216040830186613f13565b614a2e6060830185613f13565b614a3b6080830184613f13565b9695505050505050565b60006020820190508181036000830152614a5f8184614433565b905092915050565b7f636f6d6d656e74206e6f7420666f756e64000000000000000000000000000000600082015250565b6000614a9d60118361457f565b9150614aa882614a67565b602082019050919050565b60006020820190508181036000830152614acc81614a90565b9050919050565b7f4e487b7100000000000000000000000000000000000000000000000000000000600052603260045260246000fd5b7f4e487b7100000000000000000000000000000000000000000000000000000000600052602260045260246000fd5b60006002820490506001821680614b4957607f821691505b602082108103614b5c57614b5b614b02565b5b50919050565b7f6e6f742072656769737465726564000000000000000000000000000000000000600082015250565b6000614b98600e8361457f565b9150614ba382614b62565b602082019050919050565b60006020820190508181036000830152614bc781614b8b565b9050919050565b7f6d657373616765206e6f7420666f756e64000000000000000000000000000000600082015250565b6000614c0460118361457f565b9150614c0f82614bce565b602082019050919050565b60006020820190508181036000830152614c3381614bf7565b9050919050565b7f636f6e74656e74206c656e67746820696e76616c696400000000000000000000600082015250565b6000614c7060168361457f565b9150614c7b82614c3a565b602082019050919050565b60006020820190508181036000830152614c9f81614c63565b9050919050565b7f636f6d6d656e7420666565206c6f770000000000000000000000000000000000600082015250565b6000614cdc600f8361457f565b9150614ce782614ca6565b602082019050919050565b60006020820190508181036000830152614d0b81614ccf565b9050919050565b7f4e487b7100000000000000000000000000000000000000000000000000000000600052601160045260246000fd5b6000614d4c82613d12565b9150614d5783613d12565b9250828202614d6581613d12565b91508282048414831517614d7c57614d7b614d12565b5b5092915050565b7f4e487b7100000000000000000000000000000000000000000000000000000000600052601260045260246000fd5b6000614dbd82613d12565b9150614dc883613d12565b925082614dd857614dd7614d83565b5b828204905092915050565b6000614dee82613d12565b9150614df983613d12565b9250828203905081811115614e1157614e10614d12565b5b92915050565b600081905092915050565b50565b6000614e32600083614e17565b9150614e3d82614e22565b600082019050919050565b6000614e5382614e25565b9150819050919050565b7f617574686f72207472616e73666572206661696c656400000000000000000000600082015250565b6000614e9360168361457f565b9150614e9e82614e5d565b602082019050919050565b60006020820190508181036000830152614ec281614e86565b9050919050565b7f7265636569766572207472616e73666572206661696c65640000000000000000600082015250565b6000614eff60188361457f565b9150614f0a82614ec9565b602082019050919050565b60006020820190508181036000830152614f2e81614ef2565b9050919050565b7f636f6d6d656e7420697320667265650000000000000000000000000000000000600082015250565b6000614f6b600f8361457f565b9150614f7682614f35565b602082019050919050565b60006020820190508181036000830152614f9a81614f5e565b9050919050565b7f706172656e7420636f6d6d656e74206e6f7420666f756e640000000000000000600082015250565b6000614fd760188361457f565b9150614fe282614fa1565b602082019050919050565b6000602082019050818103600083015261500681614fca565b9050919050565b7f706172656e7420636f6d6d656e74206d69736d61746368000000000000000000600082015250565b600061504360178361457f565b915061504e8261500d565b602082019050919050565b6000602082019050818103600083015261507281615036565b9050919050565b60008190508160005260206000209050919050565b60006020601f8301049050919050565b600082821b905092915050565b6000600883026150db7fffffffffffffffffffffffffffffffffffffffffffffffffffffffffffffffff8261509e565b6150e5868361509e565b95508019841693508086168417925050509392505050565b600061511861511361510e84613d12565b6141f7565b613d12565b9050919050565b6000819050919050565b615132836150fd565b61514661513e8261511f565b8484546150ab565b825550505050565b600090565b61515b61514e565b615166818484615129565b505050565b5b8181101561518a5761517f600082615153565b60018101905061516c565b5050565b601f8211156151cf576151a081615079565b6151a98461508e565b810160208510156151b8578190505b6151cc6151c48561508e565b83018261516b565b50505b505050565b600082821c905092915050565b60006151f2600019846008026151d4565b1980831691505092915050565b600061520b83836151e1565b9150826002028217905092915050565b61522482613dc5565b67ffffffffffffffff81111561523d5761523c613f47565b5b6152478254614b31565b61525282828561518e565b600060209050601f8311600181146152855760008415615273578287015190505b61527d85826151ff565b8655506152e5565b601f19841661529386615079565b60005b828110156152bb57848901518255600182019150602085019450602081019050615296565b868310156152d857848901516152d4601f8916826151e1565b8355505b6001600288020188555050505b505050505050565b60006040820190506153026000830185613f13565b81810360208301526153148184614590565b90509392505050565b7f666565206c6f7700000000000000000000000000000000000000000000000000600082015250565b600061535360078361457f565b915061535e8261531d565b602082019050919050565b6000602082019050818103600083015261538281615346565b9050919050565b7f616c726561647920726567000000000000000000000000000000000000000000600082015250565b60006153bf600b8361457f565b91506153ca82615389565b602082019050919050565b600060208201905081810360008301526153ee816153b2565b9050919050565b6000604082019050818103600083015261540f8185614590565b905061541e6020830184613f13565b9392505050565b7f63616e6e6f74206c696b65206f776e206d657373616765000000000000000000600082015250565b600061545b60178361457f565b915061546682615425565b602082019050919050565b6000602082019050818103600083015261548a8161544e565b9050919050565b7f616c7265616479206c696b656400000000000000000000000000000000000000600082015250565b60006154c7600d8361457f565b91506154d282615491565b602082019050919050565b600060208201905081810360008301526154f6816154ba565b9050919050565b600061550882613d12565b91507fffffffffffffffffffffffffffffffffffffffffffffffffffffffffffffffff820361553a57615539614d12565b5b600182019050919050565b600061555082613d12565b915061555b83613d12565b925082820190508082111561557357615572614d12565b5b92915050565b7f7a65726f20616d6f756e74000000000000000000000000000000000000000000600082015250565b60006155af600b8361457f565b91506155ba82615579565b602082019050919050565b600060208201905081810360008301526155de816155a2565b9050919050565b6000815190506155f481613d1c565b92915050565b6000602082840312156156105761560f613d08565b5b600061561e848285016155e5565b91505092915050565b7f696e73756666696369656e742043540000000000000000000000000000000000600082015250565b600061565d600f8361457f565b915061566882615627565b602082019050919050565b6000602082019050818103600083015261568c81615650565b9050919050565b7f4e487b7100000000000000000000000000000000000000000000000000000000600052602160045260246000fd5b600281106156d3576156d2615693565b5b50565b60008190506156e4826156c2565b919050565b60006156f4826156d6565b9050919050565b615704816156e9565b82525050565b600060808201905061571f60008301876156fb565b61572c6020830186613f13565b6157396040830185613f13565b6157466060830184613f13565b95945050505050565b7f6e6f742072656700000000000000000000000000000000000000000000000000600082015250565b600061578560078361457f565b91506157908261574f565b602082019050919050565b600060208201905081810360008301526157b481615778565b9050919050565b600060608201905081810360008301526157d58186614590565b905081810360208301526157e98185614590565b90506157f86040830184613f13565b949350505050565b7f6e6f74206f776e6572206f722072656365697665720000000000000000000000600082015250565b600061583660158361457f565b915061584182615800565b602082019050919050565b6000602082019050818103600083015261586581615829565b9050919050565b7f6e6f206665650000000000000000000000000000000000000000000000000000600082015250565b60006158a260068361457f565b91506158ad8261586c565b602082019050919050565b600060208201905081810360008301526158d181615895565b9050919050565b7f7472616e73666572206661696c65640000000000000000000000000000000000600082015250565b600061590e600f8361457f565b9150615919826158d8565b602082019050919050565b6000602082019050818103600083015261593d81615901565b9050919050565b7f7a65726f20616464720000000000000000000000000000000000000000000000600082015250565b600061597a60098361457f565b915061598582615944565b602082019050919050565b600060208201905081810360008301526159a98161596d565b9050919050565b60006040820190506159c56000830185614144565b6159d26020830184613f13565b9392505050565b6159e281614549565b81146159ed57600080fd5b50565b6000815190506159ff816159d9565b92915050565b600060208284031215615a1b57615a1a613d08565b5b6000615a29848285016159f0565b91505092915050565b6000604082019050615a476000830185613f13565b615a546020830184613f13565b9392505050565b7f6c656e0000000000000000000000000000000000000000000000000000000000600082015250565b6000615a9160038361457f565b9150615a9c82615a5b565b602082019050919050565b60006020820190508181036000830152615ac081615a84565b9050919050565b7f74616b656e000000000000000000000000000000000000000000000000000000600082015250565b6000615afd60058361457f565b9150615b0882615ac7565b602082019050919050565b60006020820190508181036000830152615b2c81615af0565b905091905056fea2646970667358221220cb8f3d90bc65d22beb14cda553684c8595ad9a2aad13b3dd021085c5d106cbbd64736f6c634300081c0033",
  "linkReferences": {},
  "deployedLinkReferences": {}
}